:020000040800F2
:10000000E804002001010008B51900085317000892
:10001000B119000899010008C11F00080000000084
:100020000000000000000000000000001D1A000891
:100030009D01000800000000F11900081F1A0008C7
:100040001B0100081B0100081B0100081B01000820
:100050001B0100081B0100081B0100081B01000810
:100060001B0100081B0100081B0100081B01000800
:100070001B0100081B0100081B0100081B010008F0
:100080001B0100081B0100081B0100081B010008E0
:100090001B0100081B0100081B0100081B010008D0
:1000A0001B0100081B0100081B0100081B010008C0
:1000B000151B00081B0100081B0100081B0100089C
:1000C0001B0100081B0100081B0100081B010008A0
:1000D0001B010008B11F00081B0100081B010008DC
:1000E0001B0100081B0100081B010008DFF80CD0F1
:1000F00000F040F80048004771210008E8040020A3
:100100000648804706480047FEE7FEE7FEE7FEE7B1
:10011000FEE7FEE7FEE7FEE7FEE7FEE7BD1A0008A2
:10012000ED000008D2B201E000F8012B491EFBD21D
:1001300070470022F6E710B513460A4604461946F2
:10014000FFF7F0FF204610BD30B50B4601460020FA
:100150002022012409E021FA02F59D4205D303FA89
:1001600002F5491B04FA02F52844151EA2F101020A
:10017000F1DC30BD064C074D06E0E06840F00103BD
:1001800094E8070098471034AC42F6D3FFF7B2FF6B
:10019000442200086422000800BFFEE77047000008
:1001A00070B50446002594F82100022803D00420ED
:1001B000A063012548E02068006820F00E00216857
:1001C00008602068006820F00100216808601F496D
:1001D0002068884201D1012026E01C4914312068A2
:1001E000884201D110201FE0184928312068884238
:1001F00001D1801518E015493C312068884201D1B1
:10020000801411E0114950312068884202D14FF426
:10021000803009E00D4964312068884202D14FF4F2
:10022000801001E04FF080700849083948600120D3
:1002300084F8210000BF002084F8200000BF606B1C
:1002400010B12046616B8847284670BD0800024007
:1002500070B5044600F0A4F906462546681C10B1A6
:1002600004480078054400BF00F09AF9801BA842BA
:10027000FAD370BD080000202DE9F847034600249A
:10028000002000258446002700226EE14FF001087F
:1002900008FA02F4D1F8008008EA0400A0427DD1F7
:1002A000DFF8D0A2D1F80480A8EB0A09D0453AD0F3
:1002B00014DCB8F1030F50D009DCB8F1000F31D0D5
:1002C000B8F1010F1CD0B8F1020F49D120E0B8F10C
:1002D000110F18D0B8F1120F42D11EE0B9F5881FE6
:1002E00025D006DCB9F5803F20D0B9F5801F37D185
:1002F0001AE0B9F5001F18D0B9F5041F30D117E086
:10030000D1F80CC02DE0D1F80C8008F1040C28E0E5
:10031000D1F80C8008F1080C23E0D1F80C8008F12A
:100320000C0C1EE000BF00BF00BF00BF00BF00BF3D
:10033000D1F80880B8F1000F02D14FF0040C0BE0A7
:10034000D1F80880B8F1010F03D14FF0080C1C61FF
:1003500002E04FF0080C5C6103E04FF0000C00E09D
:1003600000BF00BFFF2801D8984601E003F1040850
:100370004646FF2802D84FEA820803E0A2F10808A7
:100380004FEA88084746D6F800804FF00F0909FA6F
:1003900007F928EA09080CFA07F900E088E048EABA
:1003A0000908C6F80080D1F8048008F08058B8F138
:1003B000805F7DD100BFDFF8C081D8F8188048F099
:1003C0000108DFF8B491C9F81880C846D8F8188039
:1003D00008F00108CDF8008000BF00BF4FEAB9382F
:1003E0004FEA920958F829504FEA82784FEA187973
:1003F0004FF00F0808FA09F825EA0805DFF87C81B4
:10040000434502D14FF0000816E0DFF87481434500
:1004100002D14FF001080FE0DFF86881434502D1B7
:100420004FF0020808E0DFF86081434502D14FF049
:10043000030801E04FF004084FEA82794FEA197986
:1004400008FA09F848EA0505DFF840814FEA920901
:1004500048F82950D1F8048008F48038B8F5803F76
:100460000AD1DFF82C81D8F8008048EA0008DFF8CC
:100470002091C9F8008009E0DFF81481D8F80080E5
:1004800028EA0008DFF80891C9F80080D1F8048054
:1004900008F40038B8F5003F10D1DFF8F48008F117
:1004A0000408D8F8008048EA0008DFF8E49000E08B
:1004B0005AE009F10409C9F800800DE0DFF8D080A6
:1004C00008F10408D8F8008028EA0008DFF8C09096
:1004D00009F10409C9F80080D1F8048008F48018F3
:1004E000B8F5801F0ED1DFF8A88008F10808D8F809
:1004F000008048EA0008DFF8989009F10809C9F877
:1005000000800DE0DFF8888008F10808D8F8008046
:1005100028EA0008DFF8789009F10809C9F8008096
:10052000D1F8048008F40018B8F5001F0ED1DFF8E8
:10053000608008F10C08D8F8008048EA0008DFF86D
:10054000509009F10C09C9F800800DE0DFF84080F7
:1005500008F10C08D8F8008028EA0008DFF830908D
:1005600009F10C09C9F80080521C102AFFF48EAE64
:10057000BDE8F8870000111000100240000801409B
:10058000000C01400010014000140140080001402F
:10059000000401400AB1016101E00B0403617047EE
:1005A00001480068704700000000002070B5044654
:1005B000002600250CB9012070BD94F83D0028B933
:1005C000002084F83C00204600F0AEF8242084F897
:1005D0003D002068006820F001002168086000F0FC
:1005E0009DFA05464C496068884206D84B488542CA
:1005F00001D2012007E0002005E04948854201D2F0
:10060000012000E00020012800D1D5E74548B5FBD6
:10061000F0F62068466040496068884201D8701C46
:1006200007E04FF4967070434FF47A71B0FBF1F02D
:10063000401C2168086238496068884214D8681EE6
:1006400061684900B0FBF1F0401CC0F30B000428C6
:1006500001D204203DE0681E61684900B0FBF1F062
:10066000401CC0F30B0034E0A06838B9681E616814
:1006700001EB4101B0FBF1F0401C0AE0681E61682B
:1006800001EBC10202EB0111B0FBF1F0401C40F4A0
:100690008040C0F30B0008B901201AE0A06848B9F7
:1006A000681E616801EB4101B0FBF1F0401CC0F332
:1006B0000B000CE0681E616801EBC10202EB011146
:1006C000B0FBF1F0401CC0F30B0040F4804040F45C
:1006D00000402168C861D4E9070108432168086027
:1006E000D4E90310084321688860D4E90501084370
:1006F0002168C8602068006840F001002168086037
:1007000000202064202084F83D000020206384F82D
:100710003E0000BF50E70000A086010080841E005C
:1007200000093D0040420F0010B586B004460F4955
:100730002068884217D1C020029012200390032025
:10074000059002A90A48FFF797FD00BF0948C06954
:1007500040F400100749C8610846C06900F4001061
:10076000019000BF00BF06B010BD00000054004063
:10077000000C01400010024003480068034909785A
:10078000084401490860704700000020080000206C
:1007900010B50848006840F01000064908600320C2
:1007A00000F0D0F8002000F007F800F02BF800204F
:1007B00010BD00000020024070B504460E480078CD
:1007C0004FF47A71B1FBF0F00C490968B1FBF0F518
:1007D000284600F042FC08B1012070BD102C07D261
:1007E00000222146501E00F06EF80548046001E02A
:1007F0000120F2E70020F0E7080000200C000020B4
:100800000400002008B500BF2648806940F00100C0
:10081000244988610846806900F00100009000BF0B
:1008200000BF00BF0846C06940F08050C86108465C
:10083000C06900F08050009000BF00BF032000F0AE
:1008400081F8002211466FF00B0000F03CF8002206
:1008500011466FF00A0000F036F8002211466FF0E2
:10086000090000F030F800221146501F00F02BF86C
:1008700000221146101F00F026F800221146901E9B
:1008800000F021F800221146501E00F01CF800BFB5
:100890000549486820F0E06040F00070486000BF03
:1008A00008BD0000001002400000014000BF00F041
:1008B0001F02012191404209920002F1E022C2F898
:1008C000001100BF70472DE9F05F80460D461646C7
:1008D000002701F071F8074639462A46334601F0F1
:1008E0000700C0F1070ABAF1040F02D94FF0040A59
:1008F00001E0C0F1070AD14600F1040ABAF1070F7E
:1009000002D24FF0000A01E0A0F1030AD4464FF0F2
:10091000010A0AFA09FAAAF1010A0AEA020A0AFA1B
:100920000CFA4FF0010B0BFA0CFBABF1010B0BEACD
:10093000030B4AEA0B042146404601F045F8BDE8A6
:10094000F09F000000BF00F00702064B19684FF649
:10095000FF031940044B0B4343EA0221014B19608A
:1009600000BF70470CED00E00000FA0570B50446CA
:100970000D4600266248006800F00700A8420ED22B
:100980005F48006820F0070028435D49086008467A
:10099000006800F00700A84201D0012070BD207857
:1009A00000F00200022807D15648406820F0F0000D
:1009B000A168084353494860207800F001000028EE
:1009C0005DD06068012806D14E48006800F4003010
:1009D00090B90120E2E76068022806D14948006822
:1009E00000F0007040B90120D8E74648006800F0E8
:1009F000020008B90120D1E74248406820F0030016
:100A0000616808433F494860FFF7CAFD06466068D1
:100A1000012810D108E0FFF7C3FD801B41F28831A7
:100A2000884201D90320B9E73648406800F00C003D
:100A30000428F0D123E06068022810D108E0FFF715
:100A4000AFFD801B41F28831884201D90320A5E720
:100A50002C48406800F00C000828F0D10FE008E0B6
:100A6000FFF79EFD801B41F28831884201D90320A7
:100A700094E72448406800F00C000028F0D120489A
:100A8000006800F00700A8420ED91D48006820F059
:100A9000070028431A4908600846006800F007006C
:100AA000A84201D0012079E7207800F00400042852
:100AB00007D11448406820F4E060E1680843114918
:100AC0004860207800F00800082808D10D484068E8
:100AD00020F46050216940EAC1000A49486000F0F2
:100AE0003DF808494968C1F30311074A515CC84001
:100AF000064908600020FFF75FFE00204EE7000077
:100B000000200240001002402C2200080C000020AF
:100B100001480068704700000C00002000B5FFF796
:100B2000F7FF04494968C1F30221034A515CC840F8
:100B300000BD0000001002403C22000800B5FFF795
:100B4000E7FF04494968C1F3C221034A515CC84028
:100B500000BD0000001002403C220008F0B585B046
:100B60000FF26C0C9CE8E01001A8A0E8E0101CA5B6
:100B70002D68009500210022002300240020194D3B
:100B8000696801F00C05F5B1042D02D0082D19D1CA
:100B900001E0154819E001ADC1F38346AC5D01F4F5
:100BA000803555B10F4D6D68C5F340451DF80520E2
:100BB0000D4D6543B5FBF2F302E00C4D04FB05F36C
:100BC000184602E000BF084800BF00BF05B0F0BDF6
:100BD00002030405060708090A0B0C0D0E0F10107E
:100BE000010200000010024000127A0000093D00DE
:100BF000F8B504460025207800F00100002878D0E0
:100C0000F848406800F00C0004280CD0F548406813
:100C100000F00C00082811D1F248406800F4803040
:100C2000B0F5803F0AD1EF48006800F4003000289A
:100C30005FD0606800285CD10120F8BD00BF60680B
:100C4000B0F5803F06D1E748006840F48030E549C0
:100C5000086028E0606858B9E248006820F48030F5
:100C6000E04908600846006820F4802008601AE027
:100C70006068B0F5A02F0BD1DA48006840F48020FE
:100C8000D84908600846006840F4803008600AE0EF
:100C9000D448006820F48030D249086008460068D3
:100CA00020F48020086000BF606888B1FFF778FCFE
:100CB000054606E0FFF774FC401B642801D90320B9
:100CC000BBE7C848006800F400300028F2D010E00C
:100CD000FFF766FC054606E0FFF762FC401B642850
:100CE00001D90320A9E7BF48006800F400300028BC
:100CF000F2D1207800F00200022857D1B9484068AC
:100D000000F00C0050B1B748406800F00C00082813
:100D100018D1B448406800F4803098B9B1480068F0
:100D200000F0020020B12069012801D0012084E7F1
:100D3000AC48006820F0F800616940EAC100A949A8
:100D4000086033E02069E8B10120A7490860FFF797
:100D500027FC054606E0FFF723FC401B022801D9CB
:100D600003206AE79F48006800F002000028F2D0E4
:100D70009C48006820F0F800616940EAC100994988
:100D8000086013E0002098490860FFF709FC054659
:100D900006E0FFF705FC401B022801D903204CE7C1
:100DA0009048006800F002000028F2D1207800F09E
:100DB000080008282DD1A069B8B101208B4908602E
:100DC000FFF7EEFB054606E0FFF7EAFB401B0228B3
:100DD00001D9032031E78348406A00F0020000286F
:100DE000F2D0012000F006FE13E000207F490860E9
:100DF000FFF7D6FB054606E0FFF7D2FB401B0228B3
:100E000001D9032019E77748406A00F00200002862
:100E1000F2D1207800F00400042873D10026714834
:100E2000C06900F0805070B900BF6E48C06940F0E2
:100E300080506C49C8610846C06900F0805000903D
:100E400000BF00BF01266A48006800F48070B0B996
:100E50006748006840F4807065490860FFF7A0FBB0
:100E6000054606E0FFF79CFB401B642801D90320E0
:100E7000E3E65F48006800F480700028F2D000BF0D
:100E8000E068012806D15748006A40F00100554942
:100E9000086227E0E06858B95248006A20F0010073
:100EA000504908620846006A20F00400086219E010
:100EB000E06805280BD14B48006A40F0040049491E
:100EC00008620846006A40F0010008620AE04548EE
:100ED000006A20F00100434908620846006A20F0D9
:100EE0000400086200BFE068A0B1FFF759FB0546A7
:100EF00009E0FFF755FB401B41F28831884202D9D7
:100F000003209AE622E03748006A00F00200002839
:100F1000EFD012E0FFF744FB054608E0FFF740FB87
:100F2000401B41F28831884201D9032085E62D48D3
:100F3000006A00F002000028F0D1012E05D12948F6
:100F4000C06920F080502749C86100BFE069C8B37C
:100F50002448406800F00C00082860D0E0690228AE
:100F600048D1002020490866FFF71AFB054606E035
:100F7000FFF716FB401B022801D903205DE6194844
:100F8000006800F000700028F2D1206AB0F5803FC0
:100F900007D11448406820F40030A1680843114983
:100FA0004860D4E9080108430E49496821F47411E6
:100FB00008430C49486001200B490866FFF7F0FA26
:100FC000054607E02DE0FFF7EBFA401B022801D9A8
:100FD000032032E60348006800F000700028F2D0D9
:100FE0001FE0000000100240000042428004424224
:100FF0000070004000200C490866FFF7D1FA054652
:1010000006E0FFF7CDFA401B022801D9032014E6C1
:101010000648006800F000700028F2D101E00120CD
:101020000BE6002009E600000000424200100240EA
:10103000042808D14FF0E021096941F004014FF084
:10104000E022116107E04FF0E021096921F004017D
:101050004FF0E02211617047704770B50446254695
:10106000681EB0F1807F01D301200FE0681E4FF0B1
:10107000E02148610F214FF0FF3000F0A5FC002077
:101080004FF0E021886107200861002070BD10B595
:10109000FFF7E2FF10BD70477047024600BF92F8AD
:1010A0003C00012801D102207047012082F83C0059
:1010B00000BF022082F83D001068406820F07000F8
:1010C00013685860106840680B68184313685860CC
:1010D0001068806820F0800013689860106880684D
:1010E0004B68184313689860012082F83D0000BFE8
:1010F000002082F83C0000BF00BFD5E710B50446D1
:101100000CB9012010BD94F83D0028B9002084F8E6
:101110003C00204600F00CF8022084F83D00211D20
:10112000206800F0FFFC012084F83D000020E9E782
:1011300038B504462068B0F1804F15D100BF0B4888
:10114000C06940F001000949C8610846C06900F063
:101150000100009000BF00BF002211461C20FFF7D5
:10116000B2FB1C20FFF7A2FB38BD000000100240BC
:101170002DE9F04104460D46002600BF94F83C00DE
:10118000012802D10220BDE8F081012084F83C0052
:1011900000BF022084F83D002068866826F07706AC
:1011A00026F47F4620688660286850283BD00CDCF7
:1011B000202860D004DC002853D0102865D155E0E9
:1011C00030285DD0402860D141E0602835D07028BB
:1011D0000DD0B0F5805F03D0B0F5005F55D115E0BC
:1011E0002068806820F00700216888604EE0D5E91B
:1011F00002136A68206800F0CFFC2068866826F039
:10120000770646F07706206886603FE0D5E902134E
:101210006A68206800F0C0FC2068806840F4804064
:101220002168886032E0EA686968206800F0CAFCDA
:101230005021206800F0BCFC28E0EA68696820685A
:1012400000F0D5FC6021206800F0B2FC1EE0EA68E6
:101250006968206800F0B6FC4021206800F0A8FC16
:1012600014E00021206800F0A3FC0FE010212068AA
:1012700000F09EFC0AE02021206800F099FC05E0C7
:101280003021206800F094FC00E000BF00BF012086
:1012900084F83D0000BF002084F83C0000BF00BF80
:1012A00071E7704710B5044620680069C0F340003C
:1012B000D8B12068C068C0F34000B0B16FF0020040
:1012C00021680861012020772068806900F0030010
:1012D00018B12046FFF7E5FF05E0204600F0ADF825
:1012E000204600F0ABF80020207720680069C0F3AA
:1012F0008000D8B12068C068C0F38000B0B16FF042
:10130000040021680861022020772068806900F4C9
:10131000407018B12046FFF7C4FF05E0204600F0FA
:101320008CF8204600F08AF80020207720680069B9
:10133000C0F3C000D8B12068C068C0F3C000B0B12D
:101340006FF0080021680861042020772068C069D8
:1013500000F0030018B12046FFF7A3FF05E0204688
:1013600000F06BF8204600F069F800202077206834
:101370000069C0F30010D8B12068C068C0F3001045
:10138000B0B16FF010002168086108202077206854
:10139000C06900F4407018B12046FFF782FF05E0F5
:1013A000204600F04AF8204600F048F80020207758
:1013B0002068006900F0010058B12068C06800F0A2
:1013C000010030B16FF0010021680861204600F093
:1013D00036F820680069C0F3C01058B12068C068B2
:1013E000C0F3C01030B16FF0800021680861204662
:1013F000FFF751FE20680069C0F3801058B12068E3
:10140000C068C0F3801030B16FF0400021680861FF
:10141000204600F015F820680069C0F3401058B16C
:101420002068C068C0F3401030B16FF02000216820
:1014300008612046FFF730FE10BD704770477047C7
:10144000704770472DE9F04704462068056820681A
:10145000C668206847694FF00008C14605F00F08CC
:10146000B8F1000F0AD105F0200038B106F02000D5
:1014700020B1204600F0FBFBBDE8F087B8F1000F7B
:101480006DD007F0010018B906F49070002866D0FE
:1014900005F0010030B106F4807018B1E06B40F047
:1014A0000100E06305F0040030B107F0010018B15D
:1014B000E06B40F00200E06305F0020030B107F09D
:1014C000010018B1E06B40F00400E06305F0080093
:1014D00030B107F0010018B1E06B40F00800E063A4
:1014E000E06B68B305F0200028B106F0200010B1D1
:1014F000204600F0BCFB20684069C0F38019E06B17
:1015000000F0080010B9B9F1000F22D0204600F019
:101510008EFB2068406900F04000B0B1206840694F
:1015200020F0400021684861606B50B11748616B42
:101530004863606BFEF734FE10B1606B416B884707
:101540000CE02046FFF77DFF08E02046FFF779FF1B
:1015500004E02046FFF775FF0020E0638CE705F00C
:10156000800030B106F0800018B1204600F0B6FCD3
:1015700082E705F0400030B106F0400018B1204687
:1015800000F065FB78E700BF76E700001B1C000851
:1015900010B504460CB9012010BDA06900B100E0EF
:1015A00000BF94F8390028B9002084F8380020469C
:1015B00000F028F8242084F839002068C06820F45E
:1015C00000502168C860204600F0A4FB2068006934
:1015D00020F49040216808612068406920F02A00CA
:1015E000216848612068C06840F400502168C860E4
:1015F0000020E063202084F8390084F83A000020BD
:10160000CAE7000010B586B0044618492068884231
:1016100029D100BF1648806940F480401449886190
:101620000846806900F48040019000BF00BF481563
:101630000290022003900320059002A90D48FEF7B6
:101640001BFE4FF48060029000200390049002A9DA
:101650000848FEF711FE002211462520FFF733F956
:101660002520FFF723F906B010BD00000038014027
:10167000001002400008014070472DE9F84304467D
:101680000D4616461F464FF0000994F839002028F1
:101690005CD105B116B90120BDE8F88300BF94F80C
:1016A0003800012801D10220F6E7012084F8380033
:1016B00000BF0020E063212084F83900FEF770FFAE
:1016C0008146A684E6842BE0E08C401EE084A0687E
:1016D000B0F5805F16D14B4600228021204600974E
:1016E00000F030FC08B10320D6E7A846B8F80000A7
:1016F000C0F3080021684860206908B9AD1C0FE0FC
:101700006D1C0DE04B46002280212046009700F022
:1017100019FC08B10320BFE715F8010B21684860E8
:10172000E08C0028D0D14B46002240212046009773
:1017300000F008FC08B10320AEE7202084F839004F
:1017400000BF002084F8380000BFA5E70220A3E70F
:10175000704700BFFEE7000000B585B000BF4B48F2
:10176000806940F01000494988610846806900F0AE
:101770001000009000BF00BF00BF0846806940F025
:10178000200088610846806900F02000009000BFBA
:1017900000BF00BF0846806940F004008861084629
:1017A000806900F00400009000BF00BF00BF084641
:1017B000806940F0080088610846806900F00800F0
:1017C000009000BF00BF00224FF400513048FEF7E8
:1017D000E1FE002241F202412E48FEF7DBFE00222C
:1017E0004FF410612C48FEF7D5FE4FF400500190E5
:1017F00001200290002003900220049001A92448B7
:10180000FEF73AFD4FF44040019000200290022084
:10181000039001A91E48FEF72FFD0620019000202D
:1018200002900220039001A91B48FEF725FD10201D
:10183000019000200290039001A91748FEF71CFDBB
:101840000120019000200290039001A91148FEF7A9
:1018500013FD41F20240019001200290002003900C
:101860000220049001A90B48FEF706FD4FF410601A
:10187000019001200290002003900220049001A911
:101880000548FEF7F9FC05B000BD0000001002405D
:1018900000100140000C01400008014010B50C4848
:1018A0000C4908600C48486000210A488160C1600A
:1018B0004FF480410161002141618161C161016298
:1018C000FEF774FE18B1D52104A000F07BFB10BD1B
:1018D0000054004010000020A08601002E2E2F533F
:1018E00072632F6D61696E2E6300000000B587B0D2
:1018F0004FF080401649086048F6A040486000213B
:1019000013488160C821C160002101618161FFF736
:10191000F5FB18B1E9210FA000F054FB4FF4805003
:10192000039003A90A48FFF723FC18B1EF2109A08F
:1019300000F048FB00200190029001A90448FFF745
:10194000ACFB18B1F62103A000F03CFB07B000BDD2
:10195000640000202E2E2F5372632F6D61696E2E4E
:101960006300000010B50C480C4908604FF4E130EA
:101970004860002109488160C16001610C2141611A
:1019800000218161C161FFF703FE20B140F209111E
:1019900003A000F017FB10BD00380140A400002098
:1019A0002E2E2F5372632F6D61696E2E630000001F
:1019B00000BFFEE77047000002480068C0F3022045
:1019C000704700000CED00E010B5002807DA0A07A8
:1019D000140E054A00F00F031B1FD45403E00A073E
:1019E000130E024A135410BD18ED00E000E400E0AD
:1019F0007047000008B508490968C9084FF47A72B1
:101A0000B1FBF2F14143009100BF00BF00994A1EB3
:101A100000920029F9D108BD0C000020704710B5D4
:101A2000FEF7AAFEFFF733FB10BD000010B590B023
:101A300001200690000407900020089001200A90E1
:101A400002200D90C1030E914FF4E0110F9106A8F2
:101A5000FFF7CEF818B1A92114A000F0B3FA0F20B7
:101A6000019002200290002003904FF480600490C7
:101A700000200590022101A8FEF778FF18B1B721D8
:101A80000AA000F09FFAFFF743F84FF47A71B0FB19
:101A9000F1F42046FFF7E1FA0420FFF7C9FA00222B
:101AA0001146501EFEF70FFF10B010BD2E2E2F5303
:101AB00072632F6D61696E2E63000000114800682B
:101AC00040F001000F490860084640680E49084090
:101AD0000C494860084600680C49084009490860FC
:101AE0000846006820F4802008600846406820F41A
:101AF000FE0048604FF41F008860C8030449086076
:101B000070470000001002400000FFF8FFFFF6FEE3
:101B100008ED00E010B50248FFF7C4FB10BD00005F
:101B20006400002000220268184B984208D0B0F1EF
:101B3000804F05D0164B984202D0164B984203D1E5
:101B400022F070024B681A43104B984208D0B0F153
:101B5000804F05D00E4B984202D00E4B984203D1D5
:101B600022F44072CB681A4322F080024B691A4378
:101B700002608B68C3620B688362044B984201D198
:101B80000B6903630123436170470000002C01408F
:101B9000000400400008004030B50C460021816878
:101BA00021F47F4142EA032525432943816030BD6A
:101BB0000A460021816821F0700142F007031943B1
:101BC0008160704730B50B46144600210022026A3E
:101BD000056A25F001050562816921F0F00141EAFD
:101BE000041122F00A021A438161026230BD30B54D
:101BF0000B46144600210022056A25F010050562F7
:101C00008169026A21F4704141EA043122F0A002A4
:101C100042EA03128161026230BD70B505466C6A0A
:101C20000020E085E0842046FFF70BFC70BD0168D2
:101C3000C96821F490710268D1600168496921F096
:101C4000010102685161202180F83A10704710B5F7
:101C500004462068C06820F040002168C860202049
:101C600084F839002046FFF773FD002010BD70B5E1
:101C7000044694F83A0022284AD1A068B0F5805F63
:101C800013D1A56A206940B920684068C0F30800F4
:101C90002880A06A801CA06219E020684068C0B259
:101CA0002880A06A401CA06211E0206938B9206831
:101CB0004068C1B2A26A501CA062117007E020689F
:101CC000406800F07F01A26A501CA0621170E08D94
:101CD000401E80B2E085C8B92068C06820F02000AE
:101CE0002168C8602068C06820F480702168C860DE
:101CF0002068406920F0010021684861202084F8B4
:101D00003A002046FFF7B8FC002070BD0020FCE739
:101D10000220FAE72DE9F041044600252068006919
:101D200020F44050E1680843216808612169A068F7
:101D300008436169084305432068C06841F20C61AB
:101D4000884328432168C8602068406920F44070B7
:101D5000A1690843216848615F49206888425CD1D5
:101D6000FEF7ECFE00EBC00101EB0010616889009A
:101D7000B0FBF1F6FEF7E2FE00EBC00101EB001054
:101D800061688900B0FBF1F06421B0FBF1F000EB79
:101D9000C00101EB0010A6EB8000322101EB001026
:101DA0006421B0FBF1F000F0F006FEF7C7FE00EB97
:101DB000C00101EB001061688900B0FBF1F0642103
:101DC000B0FBF1F006EB0016FEF7B8FE00EBC00129
:101DD00001EB001061688900B0FBF1F7FEF7AEFE81
:101DE00000EBC00101EB001061688900B0FBF1F06D
:101DF0006421B0FBF1F000EBC00101EB0010A7EB98
:101E00008000322101EB00106421B0FBF1F000F002
:101E10000F003044216888605BE0FEF77FFE00EB36
:101E2000C00101EB001061688900B0FBF1F6FEF71C
:101E300075FE00EBC00101EB001061688900B0FB8A
:101E4000F1F06421B0FBF1F000EBC00101EB0010F8
:101E5000A6EB8000322101EB00106421B0FBF1F011
:101E600000F0F006FEF75AFE00EBC00101EB001097
:101E700061688900B0FBF1F06421B0FBF1F006EB82
:101E80000016FEF74BFE00EBC00101EB001061688D
:101E90008900B0FBF1F7FEF741FE00EBC00101EB5A
:101EA000001061688900B0FBF1F06421B0FBF1F033
:101EB00000EBC00101EB0010A7EB8000322101EB29
:101EC00000106421B0FBF1F000F00F0030442168F5
:101ED0008860BDE8F081000000380140014691F8BB
:101EE000390021282CD18868B0F5805F0FD10A6AAB
:101EF0001088C0F308000B685860086918B9086AB0
:101F0000801C086209E0086A401C086205E00B6A50
:101F1000581C086218780B685860C88C401E80B244
:101F2000C88458B90868C06820F080000B68D86081
:101F30000868C06840F040000B68D8600020704717
:101F40000220FCE72DE9F04104460D46174698466D
:101F5000069E21E0701CF8B12EB1FEF721FBA0EB2C
:101F60000800B04218D92068C06820F4D0702168F9
:101F7000C8602068406920F0010021684861202085
:101F800084F8390084F83A0000BF002084F8380053
:101F900000BF0320BDE8F081206800682840A84207
:101FA00001D1012000E00020B842D3D00020F1E7A9
:101FB00010B50248FFF746FA10BD0000A40000204B
:101FC00000BFFEE700BFFEE70FB4084B10B504A941
:101FD00002AA039800F01CF8044602A9002000F0B1
:101FE000C1F8204610BC5DF814FB00006521000814
:101FF00002E008C8121F08C1002AFAD170477047D2
:10200000002001E001C1121F002AFBD1704700002F
:102010002DE9FF4F89B09B460446002506E02528A0
:102020000BD05A460B999047641C6D1C20780028F1
:10203000F5D10DB02846BDE8F08F0027B846012243
:10204000474900E0074314F8013F203B02FA03F040
:102050000842F7D120782E2819D114F8010F47F043
:1020600004072A280ED06FF02F022078A0F130014B
:1020700009290CD808EB880102EB410100EB0108AB
:10208000641CF2E70A98641C50F8048B0A902078CC
:102090000028CED0642808D0692806D075281ED024
:1020A0005A460B9990476D1C58E00A994FF00A095F
:1020B00001C90A91002802DA40422D2102E03905C7
:1020C00004D52B218DF82010012103E0F90704D05D
:1020D0002021F7E78A4608AE0DE00021FAE70A99C9
:1020E0004FF00A0901C90A91F7E74946FEF72CF8B3
:1020F000303106F8011D0028F7D1ADEB060000F1E4
:102100002009780701D44FF00108C84502DDA8EB8B
:10211000090000E000208046002706E008A85A4693
:10212000C05D0B9990476D1C7F1C5745F6DB04E0A2
:1021300030205A460B9990476D1CB8F10001A8F168
:102140000108F5DC05E016F8010B5A460B9990479B
:102150006D1CB9F10001A9F10109F4DC641C65E70B
:10216000092801000A68531C0B60107070470000BA
:1021700092B0FEF70DFBFFF759FCFFF7EDFAFFF702
:10218000F1FBFFF78BFBFFF7B1FB342105A8FDF74F
:10219000D0FF002531E06F200290DE20039040F256
:1021A0004D1004900498009014A105A8DDE90223C5
:1021B000FFF70AFF32254FF47A732A4605A918481B
:1021C000FFF75BFA002400BF04E0002005A90855D2
:1021D000601CC4B2322CF8DD12A105A8FFF7F4FE92
:1021E00032254FF47A732A4605A90D48FFF745FAC0
:1021F0004FF47A70FEF72CF800BFCCE77661725F7F
:10220000313D3A25642C207661725F323D3A256477
:102210002C207661725F333D3A25640D0A00000080
:10222000A4000020544553540D0A00000000000093
:102230000000000001020304060708090000000076
:1022400001020304642200080000002010000000C6
:10225000F01F00087422000810000020D8040000BD
:102260000020000800000000100000000100000035
:0422700000A24A047A
:04000005080000ED02
:00000001FF
