:020000040800F2
:10000000B005002001010008E53800080B270008B2
:10001000E13800086D070008B94200080000000040
:100020000000000000000000000000001B3E00086F
:100030007107000800000000F93C00081D3E0008A0
:100040001B0100081B0100081B0100081B01000820
:100050001B0100081B0100081B0100081B01000810
:100060001B0100081B0100081B0100081B01000800
:100070001B0100081B0100081B0100081B010008F0
:100080001B0100081B0100081B0100081B010008E0
:100090001B0100081B0100081B0100081B010008D0
:1000A0001B0100081B0100081B0100081B010008C0
:1000B0001B0100081B0100081B0100082127000884
:1000C000112700081B0100081B010008253D00083E
:1000D0001B010008A94200081B0100081B010008C1
:1000E0001B0100081B0100081B010008DFF80CD0F1
:1000F00000F0ACFA0048004701540008B0050020A9
:100100000648804706480047FEE7FEE7FEE7FEE7B1
:10011000FEE7FEE7FEE7FEE7FEE7FEE7B93E000882
:10012000ED000008202A04DB203A21FA02F0002129
:10013000704721FA02F3D040C2F1200291400843F7
:1001400019467047D2B201E000F8012B491EFBD2DC
:1001500070470022F6E710B513460A4604461946D2
:10016000FFF7F0FF204610BD421C10F8011B0029CC
:10017000FBD1801A7047C10F80EAE0700844CA07BB
:100180009623002100F07CB800F0004220F00040EF
:10019000C10DC0F3160040F400007F2901DA0020F1
:1001A0007047962903DCC1F19601C84001E09639F9
:1001B0008840002AF4D04042704700F0004230F0FE
:1001C00000400AD0C10D01F56071C0F3160042EA8B
:1001D0000151C20840071143704700200146704793
:1001E00030B50B46014600202022012409E021FA07
:1001F00002F59D4205D303FA02F5491B04FA02F504
:100200002844151EA2F10102F1DC30BD2DE9F05F9A
:100210000546002092469B46884606468146402475
:100220001BE02846414647462246FFF77BFF5346E0
:100230005A46C01A914110D311461846224600F082
:1002400017FA2D1A67EB01084F46224601200021BC
:1002500000F00EFA17EB00094E41201EA4F1010434
:10026000DFDC484631462A464346BDE8F09F002978
:10027000A8BF7047401C490008BF20F0010070472C
:1002800010B4B0FA80FC00FA0CF050EA010404BF8C
:1002900010BC704749B1CCF1200421FA04F411FAE2
:1002A0000CF118BF012121430843A3EB0C01CB1D26
:1002B0004FEA00614FEA102042BF002010BC704797
:1002C00000EBC35010440029A4BF10BC7047401C71
:1002D000490008BF20F0010010BC70472DE9FE4F17
:1002E000804681EA0300C00F0C46009021F00041D7
:1002F00023F00045B8EB0200A94105D24046214653
:1003000090461C460B46024623F00040104347D05F
:10031000270DC7F30A00C3F30A510290401A019057
:1003200040286BDAC3F3130040F4801B0098924618
:1003300020B10023D2EB030A63EB0B0B0198594663
:10034000C0F14002504600F093F906460D46504673
:100350005946019A00F09BF910EB08006141002416
:1003600087EA115284EAE7731A4340D0009A62B3D5
:10037000019A012A4FEA075215DC001B61EB0201CA
:100380004FF0004202EA0752CDE90042001C41F55D
:10039000801132462B4600F09BF903B0BDE8F08F88
:1003A00040462146F9E7001B61EB0201001C41F5C4
:1003B000801300185B412018A2F5001747EB0301DA
:1003C00040EAD570B6196D4111E06D084FEA360666
:1003D00045EAC0754FEA0752001B61EB0201001CA1
:1003E00041F5801149084FEA300000195141324669
:1003F0002B4603B0BDE8F04F00F05BB90098012236
:1004000040000023D0EB020263EBE073009821462A
:100410004FEAE074B8EB000061EB0401E9E783F018
:1004200000435BE781F0004158E72DE9FE4F81EA88
:10043000030404F0004421F0004100944FF0000B4D
:1004400023F0004350EA01045ED052EA03045BD07B
:10045000C3F30A54C1F30A552C44A4F2F3340194B3
:10046000A0FB0254C1F3130141F48011C3F3130341
:1004700043F4801301FB024400FB034E840A970AF5
:1004800044EA815447EA8357A4FB076802958D0A22
:1004900005FB07854FEA932C04FB0C542705029DAE
:1004A0004FEA065847EA1637B5EB08056EEB070C1E
:1004B000870E920E47EA811742EA8312A7FB0201D8
:1004C000B6EB0B0164EB00042B0D43EA0C335E1812
:1004D00044EB1C50DA465146E7FB0201C5F3130416
:1004E0004FEA0B3343EA14534FEA0432019C43EAC8
:1004F0000603A4F10C040294009CCDE900B400F0C2
:10050000E7F803B0BDE8F08F00200146F9E72DE9D8
:10051000F04D81EA030404F0004B21F0004514463D
:100520004FF0000A23F0004150EA050220D054EABF
:1005300001021DD0C5F30A570246C5F31303C1F3E8
:100540001300C1F30A5640F4801543F48013A7EB5F
:100550000608101BD64608F2FD3873EB050002D3DF
:1005600008F1010801E092185B41B8F1000F03DACD
:1005700000200146BDE8F08D00204FF480110646B2
:1005800084460EE0171B73EB050705D3121B63EBC4
:10059000050306434CEA010C49084FEA3000921863
:1005A0005B4150EA0107EDD152EA030012D082EA22
:1005B000040083EA0501084305D0101BAB4106D2B5
:1005C0000122002306E000224FF0004302E06FF01A
:1005D000010253101AEB06004CEB085110EB0A0015
:1005E00041EB0B01BDE8F04D00F063B8C1F30A52D6
:1005F000C1F3130140F2FF3341F480119A4202DA51
:1006000000200146704740F233439A42A2F233423F
:1006100002DC5242FFF786BD00F02AB830B5041E56
:1006200071F1000404DB4FF00044404264EB01012F
:10063000141E73F1000405DB1C464FF000435242C8
:1006400063EB0403994208BF904230BD064C074D4E
:1006500006E0E06840F0010394E807009847103492
:10066000AC42F6D3FFF746FDC0550008E055000840
:10067000202A04DB203A00FA02F100207047914062
:10068000C2F1200320FA03F3194390407047202A57
:1006900006DBCB17203A41FA02F043EAE07306E0AA
:1006A00041FA02F3D040C2F12002914008431946BA
:1006B000704710B5141E73F1000408DA401C41F1B4
:1006C000000192185B411A4301D120F0010010BDD6
:1006D0002DE9F04D92469B4611B1B1FA81F202E04C
:1006E000B0FA80F220329046FFF7C2FF04460F4670
:1006F00040EA0A0041EA0B0153465A46084313D028
:10070000114653EA010019D0C8F140025046FFF7E4
:1007100009FD05460E46504659464246FFF7A8FFDA
:10072000084305D0012004E020463946BDE8F08D9D
:100730000020054346EAE0762C4337430A986305D8
:10074000E40AA0EB08000022FD0A44EA47540A30FC
:1007500002D500200146E9E7010510196941DDE9EC
:10076000084500196941BDE8F04DA2E700BFFEE76A
:100770007047000001B5094800680949B0FBF1F075
:100780000921B0FBF1F000994843009000BF0098A8
:10079000411E00910028FAD108BD00005800002039
:1007A00040420F0070B50446002594F8210002284D
:1007B00003D00420A063012548E02068006820F0F1
:1007C0000E00216808602068006820F001002168A0
:1007D00008601F492068884201D1012026E01C4999
:1007E00014312068884201D110201FE018492831B7
:1007F0002068884201D1801518E015493C312068F5
:10080000884201D1801411E011495031206888429A
:1008100002D14FF4803009E00D49643120688842EC
:1008200002D14FF4801001E04FF080700849083980
:100830004860012084F8210000BF002084F82000D7
:1008400000BF606B10B12046616B8847284670BDC1
:100850000800024070B5044600F0B0F9064625468F
:10086000681C10B104480078054400BF00F0A6F9E8
:10087000801BA842FAD370BD540000202DE9F84730
:1008800003460024002000258446002700226EE154
:100890004FF0010808FA02F4D1F8008008EA0400D9
:1008A000A0427DD1DFF8D0A2D1F80480A8EB0A09DC
:1008B000D0453AD014DCB8F1030F50D009DCB8F1C0
:1008C000000F31D0B8F1010F1CD0B8F1020F49D19F
:1008D00020E0B8F1110F18D0B8F1120F42D11EE08C
:1008E000B9F5881F25D006DCB9F5803F20D0B9F5D1
:1008F000801F37D11AE0B9F5001F18D0B9F5041FD1
:1009000030D117E0D1F80CC02DE0D1F80C8008F1FF
:10091000040C28E0D1F80C8008F1080C23E0D1F891
:100920000C8008F10C0C1EE000BF00BF00BF00BF30
:1009300000BF00BFD1F80880B8F1000F02D14FF01E
:10094000040C0BE0D1F80880B8F1010F03D14FF08F
:10095000080C1C6102E04FF0080C5C6103E04FF0F2
:10096000000C00E000BF00BFFF2801D8984601E05E
:1009700003F104084646FF2802D84FEA820803E044
:10098000A2F108084FEA88084746D6F800804FF0E1
:100990000F0909FA07F928EA09080CFA07F900E033
:1009A00088E048EA0908C6F80080D1F8048008F019
:1009B0008058B8F1805F7DD100BFDFF8C081D8F8E2
:1009C000188048F00108DFF8B491C9F81880C846CB
:1009D000D8F8188008F00108CDF8008000BF00BFEB
:1009E0004FEAB9384FEA920958F829504FEA82780D
:1009F0004FEA18794FF00F0808FA09F825EA0805B8
:100A0000DFF87C81434502D14FF0000816E0DFF8A3
:100A10007481434502D14FF001080FE0DFF868818F
:100A2000434502D14FF0020808E0DFF860814345FA
:100A300002D14FF0030801E04FF004084FEA827939
:100A40004FEA197908FA09F848EA0505DFF8408104
:100A50004FEA920948F82950D1F8048008F4803808
:100A6000B8F5803F0AD1DFF82C81D8F8008048EA39
:100A70000008DFF82091C9F8008009E0DFF8148150
:100A8000D8F8008028EA0008DFF80891C9F800804B
:100A9000D1F8048008F40038B8F5003F10D1DFF831
:100AA000F48008F10408D8F8008048EA0008DFF86C
:100AB000E49000E05AE009F10409C9F800800DE073
:100AC000DFF8D08008F10408D8F8008028EA000890
:100AD000DFF8C09009F10409C9F80080D1F804805A
:100AE00008F48018B8F5801F0ED1DFF8A88008F14F
:100AF0000808D8F8008048EA0008DFF8989009F163
:100B00000809C9F800800DE0DFF8888008F10808BE
:100B1000D8F8008028EA0008DFF8789009F1080981
:100B2000C9F80080D1F8048008F40018B8F5001F57
:100B30000ED1DFF8608008F10C08D8F8008048EA90
:100B40000008DFF8509009F10C09C9F800800DE0A9
:100B5000DFF8408008F10C08D8F8008028EA000887
:100B6000DFF8309009F10C09C9F80080521C102AF6
:100B7000FFF48EAEBDE8F8870000111000100240AF
:100B800000080140000C0140001001400014014029
:100B90000800014000040140024693680B400BB17D
:100BA000012000E000207047C2684A40C2607047E0
:100BB0000AB1016101E00B0403617047014800685C
:100BC000704700004C000020704770472DE9F04747
:100BD00004464FF00008C1460027BA462068456920
:100BE000206846683448284080B106F4807068B1B7
:100BF000206C40F0010020646FF48070216848612F
:100C00002068006840F400402168086005F48130E5
:100C100050B106F4807038B1206C40F002002064BE
:100C20006FF400702168486105F4823078B306F4EF
:100C3000807060B394F83E80B4F82A9094F83D70C8
:100C4000D4F830A0B8F1200F0FD1B9F1000F0CD1BA
:100C5000212F06D0292F04D0282F06D1BAF1210F39
:100C600003D1204602F056FB11E0206C40F0040056
:100C7000206494F83E00102805D12068006840F4F4
:100C80000070216808606FF480602168486105F495
:100C9000843050B106F4807038B1206C40F0080008
:100CA00020646FF4006021684861206C10B1204618
:100CB00001F072FDBDE8F087000101002DE9F0416F
:100CC000064630688769306844693068456896F838
:100CD0003E80B8F1100F02D0B8F1400F58D104F0A7
:100CE000011030B105F4007018B1304602F035F94A
:100CF00013E04E48204030B105F4007018B1304682
:100D000002F001F809E04948801F204028B105F4AD
:100D1000007010B1304601F0FDFF45483840D8B1B1
:100D200042487830204050B105F4806038B13F48E7
:100D3000001F204018B9304601F040FF74E03B48E6
:100D4000001F204000286FD005F4007000286BD0F1
:100D5000304601F0E3FE67E034483830204050B1BF
:100D600005F4806038B13148001F204018B9304682
:100D700001F065FE58E02D48001F2040002853D0A8
:100D800005F4007000284FD0304601F0D7FD4BE04D
:100D90002648801F204030B105F4007018B130465D
:100DA00002F09CFA40E021480830204030B105F4C0
:100DB000007018B1304602F0FFFA35E01C483840A8
:100DC000C8B11A487830204050B105F4806038B17D
:100DD0001648001F204018B9304602F05CFA23E0A4
:100DE0001248001F2040F8B105F40070E0B1304611
:100DF00002F043FA18E00D483830204050B105F4B5
:100E0000806038B10948001F204018B9304602F010
:100E100010FA09E00548001F204028B105F40070D1
:100E200010B1304602F0F6F9BDE8F081080001008B
:100E3000040010007047000070B50446002600252D
:100E40000CB9012070BD94F83D0028B9002084F849
:100E50003C00204600F01CFB242084F83D00206864
:100E6000006820F001002168086000F01DFD0546C3
:100E70004C496068884206D84B48854201D201201F
:100E800007E0002005E04948854201D2012000E04A
:100E90000020012800D1D5E74548B5FBF0F62068D1
:100EA000466040496068884201D8701C07E04FF4F2
:100EB000967070434FF47A71B0FBF1F0401C2168DA
:100EC000086238496068884214D8681E6168490021
:100ED000B0FBF1F0401CC0F30B00042801D2042049
:100EE0003DE0681E61684900B0FBF1F0401CC0F3B2
:100EF0000B0034E0A06838B9681E616801EB41015D
:100F0000B0FBF1F0401C0AE0681E616801EBC10211
:100F100002EB0111B0FBF1F0401C40F48040C0F343
:100F20000B0008B901201AE0A06848B9681E616882
:100F300001EB4101B0FBF1F0401CC0F30B000CE0F1
:100F4000681E616801EBC10202EB0111B0FBF1F018
:100F5000401CC0F30B0040F4804040F40040216886
:100F6000C861D4E90701084321680860D4E9031087
:100F7000084321688860D4E9050108432168C860F6
:100F80002068006840F001002168086000202064AB
:100F9000202084F83D000020206384F83E0000BF3C
:100FA00050E70000A086010080841E0000093D007B
:100FB00040420F007047704770477047704700000D
:100FC0002DE9FC5F04460F4690469946DDE90CABDF
:100FD0000E9E0025FFF7F2FD054694F83D002028FF
:100FE0007ED119230122C5492046009502F097FAC7
:100FF00010B10220BDE8FC9F00BF94F83C0001281E
:1010000001D10220F6E7012084F83C0000BF2068EF
:10101000006800F0010028B92068006840F0010075
:10102000216808602068006820F40060216808607A
:10103000222084F83D00402084F83E0000202064F7
:10104000C4F824A0A4F82AB0AD48E062608D2085E1
:101050004B46424639462046CDE9006501F0BEFFC9
:1010600080B1206C042806D100BF002084F83C0029
:1010700000BF0120BEE700BF002084F83C0000BF95
:101080000320B7E7208D88B900BF002001902068B9
:101090004069019020688069019000BF00BF20680E
:1010A000006840F40070216808604CE0208D012841
:1010B0001BD12068006820F480602168086072B647
:1010C00000BF00200190206840690190206880697D
:1010D000019000BF00BF2068006840F4007000E08D
:1010E00009E12168086062B62DE0208D022819D13F
:1010F0002068006840F400602168086072B600BF94
:10110000002001902068406901902068806901906A
:1011100000BF00BF2068006820F48060216808607C
:1011200062B610E02068006840F4806021680860C2
:1011300000BF00200190206840690190206880690C
:10114000019000BF00BFC7E0208D032875D8208D17
:1011500001281AD12A463146204602F074FA30B1ED
:10116000206C202801D1032044E7012042E72068B9
:101170000069C1B2626A501C60621170208D401E0D
:101180002085608D401E6085A6E0208D02282CD130
:10119000334600225B492046009502F0C0F908B1B1
:1011A000032027E772B62068006840F400702168C9
:1011B000086020680069C1B2626A501C60621170E8
:1011C000208D401E2085608D401E608562B620689F
:1011D0000069C1B2626A501C60621170208D401EAD
:1011E0002085608D401E608576E0334600224549AB
:1011F0002046009502F093F908B10320FAE6206832
:10120000006820F480602168086072B62068006978
:10121000C1B2626A501C60621170208D401E208530
:10122000608D401E60853346002236492046009579
:1012300002F075F910B10320DCE621E020680068B7
:1012400040F400702168086020680069C1B2626AD9
:10125000501C60621170208D401E2085608D401EE4
:10126000608562B620680069C1B2626A501C606223
:101270001170208D401E2085608D401E60852BE002
:101280002A463146204602F0DEF930B1206C202893
:1012900001D10320AEE60120ACE620680069C1B2AE
:1012A000626A501C60621170208D401E2085608D26
:1012B000401E608520684069C0F3800060B12068EE
:1012C0000069C1B2626A501C60621170208D401EBC
:1012D0002085608D401E6085208D00287FF434AF0E
:1012E000202084F83D00002084F83E0000BF84F8F0
:1012F0003C0000BF7EE602207CE6000002001000F9
:101300000000FFFF040001002DE9FC5F04460F46CA
:1013100090469946DDE90CAB0E9E0025FFF74EFC8A
:10132000054694F83D0020287ED119230122564914
:101330002046009502F0F3F810B10220BDE8FC9FB2
:1013400000BF94F83C00012801D10220F6E70120FB
:1013500084F83C0000BF2068006800F0010028B954
:101360002068006840F0010021680860206800687B
:1013700020F4006021680860212084F83D004020AE
:1013800084F83E0000202064C4F824A0A4F82AB009
:101390003E48E062608D20854B46424639462046F5
:1013A000CDE9006501F0C6FE80B1206C042806D1AD
:1013B00000BF002084F83C0000BF0120BEE700BF52
:1013C000002084F83C0000BF0320B7E733E02A4642
:1013D0003146204602F06EF960B1206C042807D136
:1013E0002068006840F40070216808600120A5E7CB
:1013F0000320A3E7616A481C6062087821680861DD
:10140000208D401E2085608D401E608520684069CB
:10141000C0F3800078B1208D68B1616A481C6062B9
:1014200008782168086100E02CE0208D401E2085AE
:10143000608D401E6085208D0028C8D12A46314627
:10144000204602F041F860B1206C042807D12068E2
:10145000006840F400702168086001206EE70320F6
:101460006CE72068006840F4007021680860202064
:1014700084F83D00002084F83E0000BF84F83C0062
:1014800000BF5BE7022059E7020010000000FFFFE9
:1014900010B586B0044617492068884227D1C0207D
:1014A0000290122003900320059002A91248FFF732
:1014B000E5F900BF1148C06940F400100F49C86148
:1014C0000846C06900F40010019000BF00BF002270
:1014D00011461F2000F0BDF81F2000F0ADF80022DB
:1014E0001146202000F0B5F8202000F0A5F806B045
:1014F00010BD000000540040000C014000100240EC
:101500007047704703480068034909780844014957
:10151000086070474C0000205400002010B50848B7
:10152000006840F0100006490860032000F0D0F881
:10153000002000F007F800F02BF8002010BD00009C
:101540000020024070B504460E4800784FF47A71CE
:10155000B1FBF0F00C490968B1FBF0F5284600F04A
:101560002EFF08B1012070BD102C07D200222146A9
:10157000501E00F06EF80548046001E00120F2E71B
:101580000020F0E754000020580000205000002008
:1015900008B500BF2648806940F0010024498861F1
:1015A0000846806900F00100009000BF00BF00BF46
:1015B0000846C06940F08050C8610846C06900F024
:1015C0008050009000BF00BF032000F081F800228F
:1015D00011466FF00B0000F03CF8002211466FF04E
:1015E0000A0000F036F8002211466FF0090000F002
:1015F00030F800221146501F00F02BF8002211464F
:10160000101F00F026F800221146901E00F021F86D
:1016100000221146501E00F01CF800BF0549486822
:1016200020F0E06040F00070486000BF08BD00009E
:10163000001002400000014000BF00F01F02012125
:1016400091404209920002F1E022C2F8001100BF6D
:1016500070472DE9F05F80460D461646002702F0E0
:101660002FFB074639462A46334601F00700C0F1F2
:10167000070ABAF1040F02D94FF0040A01E0C0F1E1
:10168000070AD14600F1040ABAF1070F02D24FF05F
:10169000000A01E0A0F1030AD4464FF0010A0AFA59
:1016A00009FAAAF1010A0AEA020A0AFA0CFA4FF048
:1016B000010B0BFA0CFBABF1010B0BEA030B4AEA33
:1016C0000B042146404602F003FBBDE8F09F0000FA
:1016D00000BF00F00702064B19684FF6FF031940E0
:1016E000044B0B4343EA0221014B196000BF7047D2
:1016F0000CED00E00000FA0570B504460D4600262A
:101700006248006800F00700A8420ED25F480068F7
:1017100020F0070028435D4908600846006800F093
:101720000700A84201D0012070BD207800F002001F
:10173000022807D15648406820F0F000A16808430D
:1017400053494860207800F0010000285DD06068AF
:10175000012806D14E48006800F4003090B90120FD
:10176000E2E76068022806D14948006800F000708E
:1017700040B90120D8E74648006800F0020008B9E7
:101780000120D1E74248406820F003006168084327
:101790003F494860FFF712FA06466068012810D1F9
:1017A00008E0FFF70BFA801B41F28831884201D92B
:1017B0000320B9E73648406800F00C000428F0D157
:1017C00023E06068022810D108E0FFF7F7F9801BDA
:1017D00041F28831884201D90320A5E72C484068AE
:1017E00000F00C000828F0D10FE008E0FFF7E6F960
:1017F000801B41F28831884201D9032094E72448B4
:10180000406800F00C000028F0D12048006800F08B
:101810000700A8420ED91D48006820F007002843A1
:101820001A4908600846006800F00700A84201D085
:10183000012079E7207800F00400042807D114483B
:10184000406820F4E060E16808431149486020786E
:1018500000F00800082808D10D48406820F46050C6
:10186000216940EAC1000A49486000F03DF8084992
:101870004968C1F30311074A515CC8400649086032
:101880000020FFF75FFE00204EE70000002002402E
:1018900000100240A85500085800002001480068C8
:1018A000704700005800002000B5FFF7F7FF04491B
:1018B0004968C1F30221034A515CC84000BD0000E1
:1018C00000100240B855000800B5FFF7E7FF0449D3
:1018D0004968C1F3C221034A515CC84000BD000001
:1018E00000100240B8550008F0B585B00FF26C0C3E
:1018F0009CE8E01001A8A0E8E0101CA52D68009568
:1019000000210022002300240020194D696801F005
:101910000C05F5B1042D02D0082D19D101E01548B0
:1019200019E001ADC1F38346AC5D01F4803555B1DA
:101930000F4D6D68C5F340451DF805200D4D6543FD
:10194000B5FBF2F302E00C4D04FB05F3184602E090
:1019500000BF084800BF00BF05B0F0BD020304058A
:10196000060708090A0B0C0D0E0F101001020000EB
:101970000010024000127A0000093D00F8B504464C
:101980000025207800F00100002878D0F848406851
:1019900000F00C0004280CD0F548406800F00C0062
:1019A000082811D1F248406800F48030B0F5803F3B
:1019B0000AD1EF48006800F4003000285FD060686A
:1019C00000285CD10120F8BD00BF6068B0F5803F01
:1019D00006D1E748006840F48030E549086028E017
:1019E000606858B9E248006820F48030E049086037
:1019F0000846006820F4802008601AE06068B0F5AE
:101A0000A02F0BD1DA48006840F48020D849086044
:101A10000846006840F4803008600AE0D448006856
:101A200020F48030D24908600846006820F4802005
:101A3000086000BF606888B1FFF7C0F8054606E09F
:101A4000FFF7BCF8401B642801D90320BBE7C84856
:101A5000006800F400300028F2D010E0FFF7AEF884
:101A6000054606E0FFF7AAF8401B642801D90320C9
:101A7000A9E7BF48006800F400300028F2D12078C0
:101A800000F00200022857D1B948406800F00C006D
:101A900050B1B748406800F00C00082818D1B4488D
:101AA000406800F4803098B9B148006800F0020046
:101AB00020B12069012801D0012084E7AC480068EA
:101AC00020F0F800616940EAC100A949086033E0EC
:101AD0002069E8B10120A7490860FFF76FF80546C3
:101AE00006E0FFF76BF8401B022801D903206AE7E4
:101AF0009F48006800F002000028F2D09C4800686F
:101B000020F0F800616940EAC1009949086013E0DB
:101B1000002098490860FFF751F8054606E0FFF7F6
:101B20004DF8401B022801D903204CE7904800687B
:101B300000F002000028F2D1207800F00800082808
:101B40002DD1A069B8B101208B490860FFF736F8A4
:101B5000054606E0FFF732F8401B022801D90320B2
:101B600031E78348406A00F002000028F2D00120EB
:101B700002F0C4F813E000207F490860FFF71EF868
:101B8000054606E0FFF71AF8401B022801D903209A
:101B900019E77748406A00F002000028F2D1207867
:101BA00000F00400042873D100267148C06900F0D9
:101BB000805070B900BF6E48C06940F080506C49D9
:101BC000C8610846C06900F08050009000BF00BFA7
:101BD00001266A48006800F48070B0B96748006860
:101BE00040F4807065490860FEF7E8FF054606E0AE
:101BF000FEF7E4FF401B642801D90320E3E65F48B9
:101C0000006800F480700028F2D000BFE06801286E
:101C100006D15748006A40F001005549086227E0A4
:101C2000E06858B95248006A20F001005049086243
:101C30000846006A20F00400086219E0E068052800
:101C40000BD14B48006A40F004004949086208463D
:101C5000006A40F0010008620AE04548006A20F08E
:101C60000100434908620846006A20F00400086247
:101C700000BFE068A0B1FEF7A1FF054609E0FEF74E
:101C80009DFF401B41F28831884202D903209AE629
:101C900022E03748006A00F002000028EFD012E08E
:101CA000FEF78CFF054608E0FEF788FF401B41F277
:101CB0008831884201D9032085E62D48006A00F06A
:101CC00002000028F0D1012E05D12948C06920F07A
:101CD00080502749C86100BFE069C8B32448406804
:101CE00000F00C00082860D0E069022848D10020EC
:101CF00020490866FEF762FF054606E0FEF75EFF34
:101D0000401B022801D903205DE61948006800F055
:101D100000700028F2D1206AB0F5803F07D1144846
:101D2000406820F40030A168084311494860D4E9B4
:101D3000080108430E49496821F4741108430C490D
:101D4000486001200B490866FEF738FF054607E0AA
:101D50002DE0FEF733FF401B022801D9032032E6B5
:101D60000348006800F000700028F2D01FE0000077
:101D700000100240000042428004424200700040D5
:101D800000200C490866FEF719FF054606E0FEF73D
:101D900015FF401B022801D9032014E606480068FD
:101DA00000F000700028F2D101E001200BE60020D5
:101DB00009E60000000042420010024070470000A7
:101DC000F8B50446206846682068856805F040003C
:101DD00048B905F0010030B106F0400018B12046C6
:101DE000216C8847F8BD05F0020030B106F0800094
:101DF00018B12046616C8847F4E705F060000028C0
:101E000066D006F02000002862D005F04000F0B156
:101E100094F8510003280ED0606D40F00400606516
:101E200000BF002000902068C06800902068806893
:101E3000009000BF0BE000BF002000902068C06849
:101E4000009020688068009000BF00BFCAE705F0DE
:101E5000200088B1606D40F00100606500BF002087
:101E600000902068806800902068006820F04000A2
:101E70002168086000BF00BF606D20B32068406823
:101E800020F0E00021684860012084F8510006F04D
:101E9000020010B906F00100B0B12068406820F0DF
:101EA000030021684860E06C28B10A48E16C48638F
:101EB000E06CFEF777FCA06C28B10648A16C486383
:101EC000A06CFEF76FFC02E02046FFF777FF89E782
:101ED00000BF87E75D3D000810B504460CB901203E
:101EE00010BD0021A16294F8510010B9204600F005
:101EF00037F8022084F851002068006820F0400084
:101F000021680860D4E901010843E16808432169B8
:101F1000084361690843218B01F400710843E169BA
:101F20000843216A0843A16A084321680860042124
:101F3000A06901EA1040616A08432168486021688D
:101F4000E06A08612068C06920F400602168C86107
:101F500000206065012084F851000020C0E70000E7
:101F600010B586B0044617492068884228D100BFC2
:101F70001548806940F4805013498861084680699B
:101F800000F48050019000BF00BFA020029002200A
:101F900003900320059002A90C48FEF76FFC402037
:101FA000029000200390049002A90848FEF766FC06
:101FB000002211462320FFF74CFB2320FFF73CFBB8
:101FC00006B010BD00300140001002400008014082
:101FD0002DE9F84304460D4617461E464FF000080B
:101FE000C14600BF94F85000012802D10220BDE88C
:101FF000F883012084F8500000BFFEF7DFFD804623
:1020000094F85100012802D04FF00209A9E005B16F
:1020100017B94FF00109A4E0032084F85100002013
:1020200060652563A786E786A063A087E087606474
:102030002064A068B0F5004F05D12068006840F426
:102040008040216808602068006800F04000402857
:1020500005D02068006840F0400021680860E06812
:10206000B0F5006F2AD1606810B1E08E012806D16A
:1020700028882168C860AD1CE08E401EE08619E00B
:102080002068806800F00200022807D128882168B3
:10209000C860AD1CE08E401EE0860BE03EB1701CB7
:1020A00040B1FEF78BFDA0EB0800B04202D34FF029
:1020B000030956E0E08E0028E2D129E0606810B103
:1020C000E08E012806D12878216808736D1CE08E07
:1020D000401EE08619E02068806800F002000228B7
:1020E00007D12878216808736D1CE08E401EE086B9
:1020F0000BE03EB1701C40B1FEF760FDA0EB0800A4
:10210000B04202D34FF003092BE0E08E0028E2D169
:102110003346012202212046CDF8008001F028FE3E
:1021200010B14FF003091CE042463146204601F051
:1021300001FE20B14FF001092020606511E0A06888
:1021400050B900BF002000902068C068009020684F
:102150008068009000BF00BF606D08B14FF00109BA
:1021600000BF012084F8510000BF002084F8500017
:1021700000BF48463BE72DE9FE4F04460D46164694
:102180001F46DDF830804FF0000A002002908146A3
:102190004FF0010B019000BF94F85000012802D1CC
:1021A0000220BDE8FE8F012084F8500000BFFEF73A
:1021B00005FD814694F851A060680290BAF1010FC4
:1021C0000BD00298B0F5827F04D1A06810B9BAF1A3
:1021D000040F02D002200190D2E00DB106B117B970
:1021E00001200190CCE094F85100012802D1052093
:1021F00084F8510000206065A663E787A787256300
:10220000E786A786206460642068006800F04000CC
:10221000402805D02068006840F040002168086030
:10222000E068B0F5006F43D1606810B1E08E01281E
:1022300006D128882168C860AD1CE08E401EE0866B
:102240002FE0BBF1000F10D0E08E70B120688068E5
:1022500000F00200022808D128882168C860AD1C5F
:10226000E08E401EE0864FF0000BE08F68B12068E2
:10227000806800F0010040B12068C0683080B61C62
:10228000E08F401EE0874FF0010B08F1010040B1E4
:10229000FEF794FCA0EB0900404502D30320019017
:1022A0006EE0E08E0028CCD1E08F0028C9D142E05A
:1022B000606810B1E08E012806D128782168087383
:1022C0006D1CE08E401EE0862FE0BBF1000F10D0A9
:1022D000E08E70B12068806800F00200022808D10A
:1022E00015F8010B21680873E08E401EE0864FF060
:1022F000000BE08F68B12068806800F0010040B1F9
:102300002068C06806F8010BE08F401EE0874FF0A0
:10231000010B08F1010040B1FEF750FCA0EB0900F1
:10232000404502D3032001902AE0E08E0028CCD162
:10233000E08F0028C9D14346012202212046CDF872
:10234000009001F015FD10B10320019018E04A46FD
:102350004146204601F0EEFC20B1012001902020F2
:1023600060650DE0A06850B900BF002000902068B3
:10237000C068009020688068009000BF00BF00BF68
:10238000012084F8510000BF002084F8500000BFF5
:10239000019806E7042808D14FF0E021096941F0CF
:1023A00004014FF0E022116107E04FF0E0210969DC
:1023B00021F004014FF0E02211617047704770B5C1
:1023C00004462546681EB0F1807F01D301200FE04E
:1023D000681E4FF0E02148610F214FF0FF3001F0FF
:1023E00077FC00204FF0E021886107200861002081
:1023F00070BD10B5FFF7E2FF10BD70472DE9F04743
:102400000446206805682068C668206847694FF060
:102410000008C14605F00F08B8F1000F0AD105F019
:10242000200038B106F0200020B1204601F09AFDCE
:10243000BDE8F087B8F1000F6DD007F0010018B9C2
:1024400006F49070002866D005F0010030B106F463
:10245000807018B1E06B40F00100E06305F004000B
:1024600030B107F0010018B1E06B40F00200E0630A
:1024700005F0020030B107F0010018B1E06B40F048
:102480000400E06305F0080030B107F0010018B166
:10249000E06B40F00800E063E06B68B305F02000FB
:1024A00028B106F0200010B1204601F05BFD206845
:1024B0004069C0F38019E06B00F0080010B9B9F171
:1024C000000F22D0204601F02DFD2068406900F069
:1024D0004000B0B12068406920F0400021684861A8
:1024E000606B50B11748616B4863606BFEF75AF937
:1024F00010B1606B416B88470CE02046FFF77DFF11
:1025000008E02046FFF779FF04E02046FFF775FF5B
:102510000020E0638CE705F0800030B106F0800019
:1025200018B1204601F056FE82E705F0400030B1B8
:1025300006F0400018B1204601F004FD78E700BF26
:1025400076E70000113F000810B504460CB90120E1
:1025500010BDA06900B100E000BF94F8390028B9AF
:10256000002084F83800204600F028F8242084F861
:1025700039002068C06820F400502168C8602046F7
:1025800001F044FD2068006920F490402168086152
:102590002068406920F02A00216848612068C068EE
:1025A00040F400502168C8600020E063202084F8D7
:1025B000390084F83A000020CAE7000010B586B060
:1025C000044618492068884229D100BF164880690E
:1025D00040F48040144988610846806900F48040D6
:1025E000019000BF00BF4815029002200390032015
:1025F000059002A90D48FEF741F94FF48060029062
:1026000000200390049002A90848FEF737F9002241
:1026100011462520FFF71DF82520FFF70DF806B01D
:1026200010BD0000003801400010024000080140C9
:1026300070472DE9F84304460D4616461F464FF0F5
:10264000000994F8390020285CD105B116B90120A1
:10265000BDE8F88300BF94F83800012801D10220BA
:10266000F6E7012084F8380000BF0020E063212055
:1026700084F83900FEF7A2FA8146A684E6842BE0AE
:10268000E08C401EE084A068B0F5805F16D14B4618
:10269000002280212046009701F0D0FD08B10320E0
:1026A000D6E7A846B8F80000C0F3080021684860E3
:1026B000206908B9AD1C0FE06D1C0DE04B460022EF
:1026C00080212046009701F0B9FD08B10320BFE743
:1026D00015F8010B21684860E08C0028D0D14B46EA
:1026E000002240212046009701F0A8FD08B10320F8
:1026F000AEE7202084F8390000BF002084F83800BD
:1027000000BFA5E70220A3E7704700BFFEE7000077
:1027100010B50248FEF75AFA10BD000098000020DC
:1027200010B50248FEF7CAFA10BD0000980000205C
:1027300070B505466C6A2068006820F480602168E6
:10274000086000206085616B4863A16B486394F862
:102750003D00602810D1202084F83D00002084F83E
:102760003E0020642068006820F0010021680860B5
:102770002046FEF729FA0EE0202084F83D000020D4
:1027800084F83E002068006820F00100216808609D
:102790002046FEF74FFB70BD70B5044694F83D50DF
:1027A000292D01D02A2D05D100202063282084F86E
:1027B0003D0011E094F83D00602809D02068406891
:1027C00000F40060B0F5006F02D0202084F83D00D6
:1027D0000020206384F83E002068006820F4006038
:1027E000216808602068406800F40060B0F5006F60
:1027F00040D12068406820F4006021684860606B28
:1028000090F82100012814D03D48616B4863606B4B
:10281000FDF7C8FF00285BD02068006820F00100A9
:1028200021680860202084F83D00606B416B884778
:102830004EE03348A16B4863A06BFDF7B3FF00285F
:1028400046D020684069C0F3801030B1206800692C
:10285000C1B2626A501C606211702068006820F08A
:10286000010021680860202084F83D00A06B416BC6
:1028700088472DE094F83D0060281AD1202084F884
:102880003D000020206420684069C0F3801030B112
:1028900020680069C1B2626A501C606211702068D1
:1028A000006820F00100216808602046FEF78CF9DE
:1028B0000EE020684069C0F3801030B120680069E4
:1028C000C1B2626A501C606211702046FEF7B2FA13
:1028D00094F83D00282811D1206C00F00400042851
:1028E0000CD10848E06200202063202084F83D00DD
:1028F000002084F83E002046FEF75CFB70BD00001F
:10290000312700080000FFFF014608684069C0F356
:10291000802088B16FF480600A68506104200864E8
:1029200000200863202081F83D0000BF002081F8CE
:102930003C0000BF012070470020FCE770B5044652
:10294000E56A608D032817D1042D04D0082D02D02C
:1029500015F5803F05D12068006820F4806021686B
:10296000086020680069C1B2626A501C6062117020
:10297000608D401E608560E0608D022853D1042D7B
:102980001AD0082D18D015F5803F15D0022D06D08D
:102990002068006820F480602168086005E02068F5
:1029A000006840F48060216808602068406820F476
:1029B0004070216848600BE02068406820F4407057
:1029C000216848602068006840F400702168086051
:1029D00020680069C1B2626A501C60621170608D2B
:1029E000401E608520680069C1B2626A501C606246
:1029F0001170608D401E6085202084F83D0000200D
:102A0000206394F83E00402806D1002084F83E0060
:102A10002046FEF7D2FA10E0002084F83E0020465F
:102A2000FEF7C9FA09E020680069C1B2626A501C69
:102A300060621170608D401E6085002070BD70B5B1
:102A4000044694F83D00222866D10025658D032DAB
:102A50000AD920680069C1B2626A501C60621170B4
:102A6000608D401E608556E0022D01D0032D1CD1E3
:102A7000E06A02280CD02068006820F48060216899
:102A800008602068006840F400602168086005E084
:102A90002068006840F48060216808602068406811
:102AA00020F480602168486035E0E06A022806D0A2
:102AB0002068006820F480602168086005E02068D4
:102AC000006840F48060216808602068406820F455
:102AD000E0602168486020680069C1B2626A501CE9
:102AE00060621170608D401E6085202084F83D007A
:102AF0000020206394F83E00402806D1002084F88E
:102B00003E002046FEF759FA05E0002084F83E001A
:102B10002046FEF750FA00BF002070BD70B5044695
:102B2000E56A94F83D00212846D1608D48B1616A7C
:102B3000481C6062087821680861608D401E6085CD
:102B40003AE0042D16D0082D14D015F5803F11D091
:102B50002068406820F4E06021684860112020630C
:102B6000002084F83E00202084F83D002046FEF737
:102B700023FA21E02068406820F4E0602168486082
:102B80002068006840F4007021680860002020631D
:102B9000202084F83D0094F83E00402806D1002013
:102BA00084F83E002046FEF709FA05E0002084F88C
:102BB0003E002046FEF700FA002070BD2DE9F041EE
:102BC000044694F83D5094F83E70E66A208DB0BB00
:102BD000212D3CD1042E16D0082E14D016F5803F9E
:102BE00011D02068406820F4E0602168486011201E
:102BF0002063002084F83E00202084F83D00204619
:102C0000FEF7DAF97CE02068406820F4E060216893
:102C100048602068006840F4007021680860002067
:102C20002063202084F83D0094F83E00402807D11E
:102C3000002084F83E002046FEF7C0F960E006E080
:102C4000002084F83E002046FEF7B6F958E0212D1A
:102C500003D0402F54D1222D52D1608D30B920683D
:102C6000406820F480602168486049E094F83E00A4
:102C700040283CD1206D98B9E06C012807D1A06CA8
:102C8000C0B221680861206D801C206538E0A06C0E
:102C9000C0F3072021680861206D401C20652FE0EB
:102CA000206D012807D1A06CC0B221680861206D99
:102CB000401C206524E0206D022821D194F83D00BD
:102CC000222806D12068006840F4807021680860DE
:102CD00016E094F83D00212812D1616A481C606218
:102CE000087821680861608D401E608508E0616A8F
:102CF000481C6062087821680861608D401E60850C
:102D00000020BDE8F0810146486CC0B20A6810613D
:102D10000020704738B5014691F83E30CA6A0C6B06
:102D200091F83D00222873D1086D60B9402B0AD17B
:102D300000BF002000900868406900900868806922
:102D4000009000BF07E1086DC0B90869B0F5404FB9
:102D500014D100BF00200090086840690090086806
:102D60008069009000BF00BF0868006840F4807070
:102D70000D682860086D401C0865ECE0488D88B936
:102D800000BF0020009008684069009008688069D2
:102D9000009000BF00BF0868006840F400700D6834
:102DA0002860CAE0488D01286CD112F5803F30D1EF
:102DB0000868006820F480600D6828600868406832
:102DC00000F40060B0F5006F10D10868006820F4CE
:102DD00080600D68286000BF00200090086840698E
:102DE000009008688069009000BFA6E000BF002046
:102DF000009008684069009008688069009000BFF2
:102E000000BF0868006840F400700D68286094E016
:102E100096E0042A1ED0082A1CD0122C1AD0C86AA8
:102E2000022806D00868006820F480600D682860D9
:102E300005E00868006840F480600D68286000BF05
:102E40000020009008684069009008688069009040
:102E500000BF72E00868006820F480600D68286098
:102E600000BF0020009008684069009008688069F1
:102E7000009000BF00BF0868006840F400700D6853
:102E800028605AE0488D022839D1C86A022817D034
:102E90000868006840F400600D68286000BF0020EA
:102EA000009008684069009008688069009000BF41
:102EB00000BF0868006820F480600D68286010E09A
:102EC0000868006840F480600D68286000BF00203A
:102ED000009008684069009008688069009000BF11
:102EE00000BF0868406800F40060B0F5006F24D1AE
:102EF0000868406840F480500D6868601DE008680C
:102F0000006840F480600D6828600868406800F43C
:102F10000060B0F5006F05D10868406840F480504B
:102F20000D68686000BF002000900868406900904C
:102F300008688069009000BF00BF002008650AE0B3
:102F400000BF002000900868406900900868806910
:102F5000009000BF00BF002038BD014691F83E0040
:102F600040280ED1086D28B9486C00F0FE000A68B0
:102F7000106131E0486CC0B240F001000A68106195
:102F80002AE00869B0F5804F10D191F83D00212862
:102F900005D1486C00F0FE000A6810611CE0486C26
:102FA000C0B240F001000A68106115E0086D40B938
:102FB000486C00F44070F02242EAE0100A681061A8
:102FC0000AE0086D012807D1486C00F44070F12236
:102FD00042EAE0100A681061002070472DE9F843CA
:102FE00004460F4615469946DDE9088620680068C4
:102FF00040F48060216808602068006840F48070B8
:1030000021680860434600224FF0011120460096D7
:1030100000F085FA10B10320BDE8F88307F0FE0048
:1030200021680861334642464149204600F0B5FA1E
:1030300030B1206C042801D10120EDE70320EBE73B
:1030400000BF0020009020684069009020688069DF
:10305000009000BF00BF32464146204600F02AFBE8
:1030600060B1206C042807D12068006840F400702B
:10307000216808600120CFE70320CDE7B9F1010FF7
:1030800003D1E8B22168086119E0C5F3072021687F
:10309000086132464146204600F00CFB60B1206CCE
:1030A000042807D12068006840F400702168086097
:1030B0000120B1E70320AFE7E8B22168086132469A
:1030C0004146204600F0F6FA60B1206C042807D192
:1030D0002068006840F400702168086001209BE7C8
:1030E000032099E72068006840F480702168086038
:1030F000434600224FF001112046009600F00FFADF
:1031000008B1032088E7F8B240F0010021680861A7
:10311000334642460649204600F03FFA30B1206C63
:10312000042801D1012077E7032075E7002073E729
:10313000020001002DE9F8430446884615469946E9
:10314000DDE908672068006840F480702168086045
:10315000334600224FF001112046009700F0DFF9BE
:1031600010B10320BDE8F88308F0FE002168086173
:103170003B4632462649204600F00FFA30B1206C1B
:10318000042801D10120EDE70320EBE700BF002078
:10319000009020684069009020688069009000BF1E
:1031A00000BF3A463146204600F084FA60B1206CF8
:1031B000042807D12068006840F400702168086086
:1031C0000120CFE70320CDE7B9F1010F03D1E8B229
:1031D0002168086119E0C5F30720216808613A46B3
:1031E0003146204600F066FA60B1206C042807D111
:1031F0002068006840F40070216808600120B1E791
:103200000320AFE7E8B2216808610020AAE70000C8
:10321000020001000146488D48B108680069C2B249
:103220004B6A581C48621A70488D401E4885002021
:10323000704770B5044694F83D50608DD8B1206851
:103240000069C1B2626A501C60621170608D401EDC
:103250006085608D78B92A2D0DD12068406820F4F2
:1032600080602168486022202063282084F83D0087
:103270002046FEF745F9002070BD0146488D40B15B
:103280004A6A501C486210780A681061488D401ED6
:1032900048850020704770B5044694F83D50608D15
:1032A000D0B1616A481C6062087821680861608D4D
:1032B000401E6085608D78B9292D0DD12068406849
:1032C00020F480602168486021202063282084F851
:1032D0003D002046FEF715F9002070BD70B504468C
:1032E0000025002620688069C0F3800000B9012510
:1032F00020688069C0F3C01010B9A08986B201E0CF
:10330000208B86B2324629462046FDF75EFC00201F
:1033100070BD000070B5044694F83D50E66A042E76
:1033200001D0082E1FD1282D1DD12248E06220682F
:10333000406820F4E060216848606FF48060216894
:1033400048612068006820F48060216808600020DF
:103350002063202084F83D00002084F83E002046B1
:10336000FDF728FE23E0212D1DD11248E062212027
:103370002063202084F83D00002084F83E0020686F
:10338000406820F4E060216848606FF48060216844
:1033900048612068006820F4806021680860204649
:1033A000FEF7AFF803E06FF4806021684861002009
:1033B00070BD00000000FFFF38B5044694F83D5092
:1033C0002068406820F4E0602168486000BF002069
:1033D00000902068406900902068006840F001007B
:1033E0002168086000BF00BF2068006820F480608A
:1033F000216808602068406800F40060B0F5006F44
:1034000010D194F83D00222803D094F83D002A28DA
:1034100004D1A06B00684068608503E0606B0068C1
:1034200040686085608D08B320684069C0F3800003
:1034300048B120680069C1B2626A501C60621170B4
:10344000608D401E608520684069C0F3801048B1DF
:1034500020680069C1B2626A501C60621170608DA0
:10346000401E6085206C40F004002064206C18B180
:103470002046FFF791F923E0282D03D02A2D01D013
:10348000292D0DD10F48E06200202063202084F810
:103490003D00002084F83E002046FDF78BFD0FE044
:1034A000206B222801D0222D0AD100202063202069
:1034B00084F83D00002084F83E002046FEF720F806
:1034C000002038BD0000FFFF70B504460D461646CB
:1034D0001DE02046FFF718FA08B1012070BD681CF6
:1034E000A8B125B1FDF76AFB801BA8420FD9206C5B
:1034F00040F02000206400202063202084F83D005C
:1035000000BF002084F83C0000BF0320E6E72068ED
:103510004069C0F380000028DBD00020DEE72DE901
:10352000F04104460D4617461E46DDF8188017E0A8
:10353000701CA8B12EB1FDF741FBA0EB0800B04212
:103540000ED900202063202084F83D00002084F85C
:103550003E0000BF84F83C0000BF0320BDE8F081BE
:10356000C5F3074001280AD120684069A9B2084084
:10357000A9B2884201D101200BE0002009E02068B7
:103580008069A9B20840A9B2884201D1012000E0B7
:103590000020B842CCD00020E0E72DE9F0410446FD
:1035A0000D4616461F4631E020684069C0F3802072
:1035B000C0B12068006840F40070216808606FF4B2
:1035C000806021684861042020640020206320205E
:1035D00084F83D0000BF002084F83C0000BF0120BB
:1035E000BDE8F081701C88B126B1FDF7E7FAC01B79
:1035F000B0420BD900202063202084F83D0000BF9A
:10360000002084F83C0000BF0320E9E7C5F3074031
:1036100001280AD120684069A9B20840A9B28842AD
:1036200001D101200BE0002009E020688069A9B2E7
:103630000840A9B2884201D1012000E00020002802
:10364000B2D00020CCE770B504460D46164629E0FE
:1036500020684069C0F3001080B16FF0100021684D
:103660004861002020642063202084F83D0000BFD2
:10367000002084F83C0000BF012070BD25B1FDF79B
:103680009DFA801BA8420DD9206C40F020002064D8
:10369000202084F83D0000BF002084F83C0000BFDB
:1036A0000320EAE720684069C0F380100028CFD0EB
:1036B0000020E2E770B504460D4616461DE02046A0
:1036C000FFF722F908B1012070BD681CA8B125B12F
:1036D000FDF774FA801BA8420FD9206C40F020003F
:1036E000206400202063202084F83D0000BF0020DB
:1036F00084F83C0000BF0320E6E720684069C0F37F
:10370000C0100028DBD00020DEE7000000B585B047
:1037100000BF3148806940F010002F498861084699
:10372000806900F01000009000BF00BF00BF084695
:10373000806940F0200088610846806900F0200020
:10374000009000BF00BF00BF0846806940F0040041
:1037500088610846806900F00400009000BF00BF47
:1037600000BF0846806940F008008861084680690B
:1037700000F00800009000BF00BF00224FF400518D
:103780001648FDF715FA002218211548FDF710FA22
:103790004FF400500190012002900020039002207D
:1037A000049001A90D48FDF769F80420019000205C
:1037B0000290039001A90A48FDF760F818200190D3
:1037C00001200290002003900220049001A90448E7
:1037D000FDF754F805B000BD001002400010014094
:1037E0000008014010B50D480D4908600D484860BB
:1037F00000210B488160C1604FF4804101610021CC
:1038000041618161C1610162FDF716FB20B14FF496
:103810008B7105A000F052FD10BD00000054004067
:1038200098000020A08601002E2E2F5372632F6D6A
:1038300061696E2E6300000010B5104810490860E1
:103840004FF48270486000210D488160C1600161C1
:1038500041614FF4007181611821C1610021016251
:10386000416281620A21C162FEF736FB20B14FF44A
:10387000977104A000F022FD10BD0000003001404F
:10388000EC0000202E2E2F5372632F6D61696E2E77
:103890006300000010B50C480C4908604FF4E1309B
:1038A0004860002109488160C16001610C214161CB
:1038B00000218161C161FEF747FE20B140F2411154
:1038C00003A000F0FBFC10BD0038014044010020C3
:1038D0002E2E2F5372632F6D61696E2E63000000D0
:1038E00000BFFEE77047000010B50024002000F084
:1038F000C3F8044644F003042146002000F040F9D8
:10390000012208210548FDF753F99620FCF732FF04
:1039100000F072F800F090F810BD000000080140BF
:1039200070B5054600260024284600F04FF8002018
:1039300000F0A2F8044644F0020424F001042146F9
:10394000002000F01DF99620FCF714FF05222946FF
:10395000A02000F0E7F8012208211A48FDF728F915
:103960000F20FCF707FF002208211648FDF720F979
:1039700000BF04211348FDF70FF90128F9D00720F3
:1039800000F07AF8064606F0200048B14FF40051E6
:103990000D48FDF709F92021072000F0F1F808E0B3
:1039A00006F0100028B11021072000F0E9F800F01F
:1039B00043F8082000F060F80446FFF795FF204622
:1039C00070BD0000000801400010014010B5044621
:1039D00003220749102000F0F7F8002208210548CB
:1039E000FDF7E6F800F008F800F026F810BD00003A
:1039F000000000200008014008B50CA000680090FD
:103A0000002210210A48FDF7D3F84FF47A730122FF
:103A100069460848FEF7DCFA0120FCF7ABFE0122FC
:103A200010210348FDF7C4F808BD0000E2000000C3
:103A300000080140EC00002008B50CA000680090D0
:103A4000002210210A48FDF7B3F84FF47A730122DF
:103A500069460848FEF7BCFA0120FCF78BFE0122FC
:103A600010210348FDF7A4F808BD0000E1000000A4
:103A700000080140EC00002001B584B00020039054
:103A8000002210211148FDF793F84FF47A700123BA
:103A900003AA04A900900E48FEF76DFB9DF81000E4
:103AA00007280AD0FF2002904FF47A70012303AA5E
:103AB00002A900900648FEF75EFB01221021034890
:103AC000FDF776F89DF80C0005B000BD0008014038
:103AD000EC00002008B510A0006800900022102122
:103AE0000E48FDF765F84FF47A73012269460C48D9
:103AF000FEF76EFA0120FCF73DFE732000904FF4B4
:103B00007A73012269460648FEF762FA0122102103
:103B10000248FDF74DF808BD5000000000080140C4
:103B2000EC00002037B50C4615460022082112484B
:103B3000FDF73EF8002210210F48FDF739F84FF449
:103B40007A73012269460D48FEF742FA0120FCF71C
:103B500011FE4FF47A732A4621460848FEF738FAD8
:103B6000012210210448FDF723F801220821024810
:103B7000FDF71EF83EBD000000080140EC000020EB
:103B800013B59DF8000040F02000009000221021A5
:103B90000B48FDF70DF84FF47A7301226946094886
:103BA000FEF716FA4FF47A73012201A90548FEF7D1
:103BB0000FFA012210210248FCF7FAFF1CBD000099
:103BC00000080140EC00002037B50C4615469DF872
:103BD000000040F020000090002210210C48FCF76B
:103BE000E7FF4FF47A73012269460A48FEF7F0F9BD
:103BF0000120FCF7BFFD4FF47A732A4621460548A1
:103C0000FEF7E6F9012210210148FCF7D1FF3EBD85
:103C100000080140EC00002010B5002208212548D2
:103C2000FCF7C6FF41F28830FCF7A4FD0A21002012
:103C3000FFF7A6FF41F28830FCF79CFD0121084602
:103C4000FFF79EFF01210220FFF79AFF01210320C9
:103C5000FFF796FF5F210420FFF792FFFFF73AFF7F
:103C600000211D20FFF78CFF00211C20FFF788FF9B
:103C700070210720FFF784FF4C210520FFF780FF0C
:103C800006210846FFF77CFF03220B491020FFF7AF
:103C90009BFF032208490A20FFF796FF0521112008
:103CA000FFF76EFFFFF720FE012251030348FCF7E8
:103CB0007FFF10BD000801400000002000100140FF
:103CC00002480068C0F30220704700000CED00E0DD
:103CD00010B5002807DA0A07140E054A00F00F0392
:103CE0001B1FD45403E00A07130E024A135410BDDD
:103CF00018ED00E000E400E07047000008B5084956
:103D00000968C9084FF47A72B1FBF2F1414300919E
:103D100000BF00BF00994A1E00920029F9D108BDDA
:103D20005800002010B50248FEF74AF810BD000008
:103D3000EC000020F8B504460D4616462B4600223E
:103D400080212046009600F013F828B1606D40F005
:103D5000200060650320F8BD0020FCE770B5054633
:103D60006C6A0020E087E0862046FEF727F870BDE9
:103D70002DE9F04104460E4617461D46DDF8188031
:103D80003FE0681CE0B32DB1FCF718FFA0EB080082
:103D9000A84236D32068406820F0E00021684860DF
:103DA0006068B0F5827F0DD1A068B0F5004F03D0F8
:103DB000A068B0F5806F05D12068006820F0400051
:103DC00021680860A06AB0F5005F0ED100BF2068CE
:103DD00000684DF6FF71084021680860206800689F
:103DE00040F400502168086000BF012084F85100B1
:103DF00000BF002084F8500000BF0320BDE8F08120
:103E0000FFE7206880683040B04201D1012000E027
:103E10000020B842B5D10020F0E7704710B5FDF79B
:103E200071FBFEF7E6FA10BD10B590B001200690C8
:103E3000000407900020089001200A9002200D90B5
:103E4000C1030E914FF4E0110F9106A8FDF796FD06
:103E500018B1EA2114A000F031FA0F2001900220DD
:103E60000290002003904FF48060049000200590A1
:103E7000022101A8FDF740FC18B1F8210AA000F0CA
:103E80001DFAFDF70BFD4FF47A71B0FBF1F42046FB
:103E9000FEF795FA0420FEF77DFA00221146501E27
:103EA000FDF7D7FB10B010BD2E2E2F5372632F6D70
:103EB00061696E2E630000001148006840F0010047
:103EC0000F490860084640680E4908400C494860A0
:103ED000084600680C49084009490860084600681F
:103EE00020F4802008600846406820F4FE00486006
:103EF0004FF41F008860C803044908607047000041
:103F0000001002400000FFF8FFFFF6FE08ED00E0A1
:103F100070B505466C6A0020E085E0842046FEF717
:103F20006CFA70BD0168C96821F490710268D160B3
:103F30000168496921F0010102685161202180F87E
:103F40003A10704710B504462068C06820F0400061
:103F50002168C860202084F839002046FEF7D4FB91
:103F6000002010BD70B5044694F83A0022284AD1CA
:103F7000A068B0F5805F13D1A56A206940B92068B8
:103F80004068C0F308002880A06A801CA06219E085
:103F900020684068C0B22880A06A401CA06211E07E
:103FA000206938B920684068C1B2A26A501CA0627A
:103FB000117007E02068406800F07F01A26A501C81
:103FC000A0621170E08D401E80B2E085C8B9206803
:103FD000C06820F020002168C8602068C06820F414
:103FE00080702168C8602068406920F00100216865
:103FF0004861202084F83A002046FEF719FB002093
:1040000070BD0020FCE70220FAE700002DE9F04136
:10401000044600252068006920F44050E168084308
:10402000216808612169A068084361690843054364
:104030002068C06841F20C61884328432168C86049
:104040002068406920F44070A169084321684861F4
:104050005F49206888425CD1FDF736FC00EBC00167
:1040600001EB001061688900B0FBF1F6FDF72CFC54
:1040700000EBC00101EB001061688900B0FBF1F0BA
:104080006421B0FBF1F000EBC00101EB0010A6EBE6
:104090008000322101EB00106421B0FBF1F000F050
:1040A000F006FDF711FC00EBC00101EB00106168A8
:1040B0008900B0FBF1F06421B0FBF1F006EB0016D3
:1040C000FDF702FC00EBC00101EB00106168890004
:1040D000B0FBF1F7FDF7F8FB00EBC00101EB0010BE
:1040E00061688900B0FBF1F06421B0FBF1F000EBF6
:1040F000C00101EB0010A7EB8000322101EB0010A2
:104100006421B0FBF1F000F00F00304421688860BA
:104110005BE0FDF7C9FB00EBC00101EB001061683B
:104120008900B0FBF1F6FDF7BFFB00EBC00101EB2E
:10413000001061688900B0FBF1F06421B0FBF1F080
:1041400000EBC00101EB0010A6EB8000322101EB77
:1041500000106421B0FBF1F000F0F006FDF7A4FBC5
:1041600000EBC00101EB001061688900B0FBF1F0C9
:104170006421B0FBF1F006EB0016FDF795FB00EBB8
:10418000C00101EB001061688900B0FBF1F7FDF799
:104190008BFB00EBC00101EB001061688900B0FBF4
:1041A000F1F06421B0FBF1F000EBC00101EB001075
:1041B000A7EB8000322101EB00106421B0FBF1F08D
:1041C00000F00F00304421688860BDE8F0810000F5
:1041D00000380140014691F8390021282CD1886827
:1041E000B0F5805F0FD10A6A1088C0F308000B6831
:1041F0005860086918B9086A801C086209E0086AF2
:10420000401C086205E00B6A581C086218780B68AD
:104210005860C88C401E80B2C88458B90868C0680D
:1042200020F080000B68D8600868C06840F040004B
:104230000B68D860002070470220FCE72DE9F041B0
:1042400004460D4617469846069E21E0701CF8B1BC
:104250002EB1FCF7B3FCA0EB0800B04218D92068DF
:10426000C06820F4D0702168C8602068406920F0E0
:10427000010021684861202084F8390084F83A0060
:1042800000BF002084F8380000BF0320BDE8F081A3
:10429000206800682840A84201D1012000E00020E9
:1042A000B842D3D00020F1E710B50248FEF7A6F8D7
:1042B00010BD00004401002000BFFEE700BFFEE784
:1042C0000FB4084B10B504A902AA039800F0DEF859
:1042D000044602A9002000F070FC204610BC5DF8E6
:1042E00014FB0000BB4B000802E008C8121F08C105
:1042F000002AFAD170477047002001E001C1121F67
:10430000002AFBD1704700002DE9FF5F82B0002139
:10431000DDE90430020DDDF840B0034318D044F667
:104320001050A2F2FF3242431514119801281FD0F9
:10433000A5EB0B00401C5FEA000A4FF000064E4F51
:10434000DFF83891B046504615D5CAF1000413E0A5
:10435000119801244AA3012801D16FEA0B010298A8
:10436000119AC0E90031C0E9024206B0BDE8F09FF1
:10437000CBF10000DFE704460021404A491842EB38
:104380000450CDE9001012E0E00707D032463B466A
:1043900040464946FCF749F88046894632463B4646
:1043A00010461946FCF741F806460F466410002CEB
:1043B000EAD1DDE90401DDE90023BAF1000F06DAF4
:1043C000FCF733F842464B46FCF72FF805E0FCF7C4
:1043D0009EF842464B46FCF79AF804460E460022E9
:1043E000284BFCF71BF903D84FF0FF30014607E0DC
:1043F0000022254B20463146FBF770FFFCF7F6F80C
:10440000102409E0002C0ADB0A220023FBF7FEFE41
:10441000039B30321A55641E50EA0102F2D1641C2B
:10442000039AC4F111031444119A012A03D0012202
:1044300008430DD10AE0084304D000204FF0110BCF
:10444000119072E7A3EB0B056D1E0DE05B4504DDDB
:104450004FF0000205F1010504E003DA4FF000021D
:10446000A5F10105002AECD002981199C0E90231AA
:10447000C0E9004579E70000000014400000F03F6B
:10448000300000000000F0430000E03F2DE9FF4F46
:1044900095B09B468946064600250FE2252877D130
:1044A00000242746F84A0121059400E0044316F849
:1044B000013F203B01FA03F01042F7D130782A285F
:1044C00011D06FF02F033078A0F13002092A16D8EE
:1044D000059A44F0020402EB820203EB420210440C
:1044E000761C0590EFE759F8042B0592002A03DAB1
:1044F000504244F40054059044F00204761C307895
:104500002E2816D116F8010F44F004042A280DD0E5
:104510006FF02F023078A0F13003092B09D807EB98
:10452000870302EB4303C718761CF3E759F8047BB3
:10453000761C30786C280FD006DC4C2817D0682801
:104540000DD06A2814D104E0742810D07A280FD135
:104550000DE044F400140AE044F4801401E044F453
:1045600040147278824202D104F58014761C761CC5
:10457000307866280BD013DC582877D009DC002867
:1045800075D04528F6D04628F4D047281AD19DE1A9
:1045900018E0632835D0642879D0652812D195E1D8
:1045A000702873D008DC6728F1D069286FD06E2896
:1045B0000DD06F2806D1B5E073282CD0752875D0A2
:1045C000782874D05A46179990476D1C75E1C4F34A
:1045D0000250022809D003280DD0D9F80010042871
:1045E0000DD00D6009F1040967E1D9F80010EA1750
:1045F000C1E90052F6E7D9F800100D80F2E70D701E
:10460000F0E719F8041B8DF8001000208DF8010068
:10461000EA46012003E059F804AB4FF0FF30610790
:104620004FF0000102D40DE008F101018846B942C3
:104630000FDA8045F8DB1AF808100029F4D108E0F9
:1046400008F1010188468142FADB1AF808100029B6
:10465000F6D105985B46A0EB080721463846179A25
:1046600000F094FA284400EB080507E04DE029E14A
:104670000DE01AF8010B5A4617999047B8F1010856
:10468000F7D25B4621463846179A13E142E00A22E8
:104690000092C4F302524FF0000A022A08D059F8DF
:1046A00004CB032A4FEAEC710AD00DE029E02AE09E
:1046B00009F1070121F00702F2E802C1914609E081
:1046C0000FFA8CFC4FEAEC71042A03D14FFA8CFCF0
:1046D0004FEAEC71002907DA0A460021DCF1000CF0
:1046E00061EB02012D2202E0220504D52B228DF878
:1046F0000420012203E0E20701D02022F7E79046E0
:1047000059E00A2102E010220DE010214FF0000ACA
:1047100000910BE010224FF0000A44F00404082737
:10472000009203E008224FF0000A0092C4F3025204
:10473000022A05D059F804CB0021032A08D009E049
:1047400009F1070121F00702F2E802C1914605E0F4
:104750001FFA8CFC042A01D10CF0FF0C4FF000086A
:10476000220728D5702806D0009B83F0100353EA57
:104770000A0305D00EE040228DF80420012208E053
:104780005CEA010206D030228DF804208DF8050085
:1047900002229046009B83F0080353EA0A030AD1E1
:1047A0005CEA010201D1620705D530228DF80420B0
:1047B0004FF001087F1E582804D034A003900EA8A3
:1047C00002900DE036A0F9E753466046009AFBF7E9
:1047D0001DFD84460398825C0298401E0290027080
:1047E0005CEA0100F0D1029806A9081A00F1200A3B
:1047F000600702D524F4803400E00127574502DD2C
:10480000A7EB0A0000E0002000EB0A0100900598E9
:104810004144401A0590E00306D45B462146179AAE
:10482000059800F0B3F90544002706E001A85A46B0
:10483000C05D179990476D1C7F1C4745F6DBE00370
:104840000CD55B462146179A059800F09FF9054460
:1048500004E030205A46179990476D1C0099481E75
:1048600000900029F5DC08E0029802995A46007889
:10487000491C0291179990476D1CBAF10001AAF1E9
:10488000010AF1DC65E10000092801003031323312
:10489000343536373839616263646566000000007C
:1048A0003031323334353637383941424344454666
:1048B0000000000000F058F90544761C307800280C
:1048C0007FF4ECAD19B02846BDE8F08F620700D444
:1048D000062709F1070222F0070CFCE80223E14653
:1048E00003F000485FEA080C02D00FF2702C0DE0D4
:1048F0005FEA045C02D50FF2682C07E05FEAC47C33
:1049000002D00FF2602C01E0AFF2700C4FF0FF38D4
:1049100023F00043CDF850C065280CD006DC4528B4
:1049200009D046281DD047283DD13DE0662818D043
:1049300067287ED138E00021112F01DB112000E033
:10494000781CCDE9000106A90EA8FFF7DDFCDDE922
:104950000F010E9A03910021009207F1010A0491C0
:104960004DE04FF000400097CDE9011006A90EA8D8
:10497000FFF7CAFCDDE90F0203920E9B119900229A
:10498000DDF80CA00093049211B9791C00EB010A28
:10499000B7EB0A0004D4C0F1FF3007F1010A04901C
:1049A000AAEB0700019044E0012F00DA0127002163
:1049B000112F01DD112000E03846CDE9000106A9E4
:1049C0000EA8FFF7A1FCDDE90F010E9A039100216B
:1049D00004910092BA4621070CD40399514500DA9C
:1049E0008A46BAF1010F05DD009AAAF10101515C76
:1049F000302908D0B84202DA10F1040F06DA01219A
:104A0000CDE9011015E0AAF10101E9E7002805DC74
:104A1000049901440491AAEB000102E0411C5145B4
:104A200000DD8A460499401A401C01904FF0004076
:104A30000290200704D40198504501DBCDF8048092
:104A400000208DF84F0002980DF14F07B0F1004F94
:104A500025D02B200E9002984FF0020800280CDA87
:104A6000404202902D200E9007E00A210298FBF7A9
:104A7000B7FB3031029007F8011DB8F10001A8F131
:104A80000108F2DC02980028EFD1791E0E98087018
:104A9000307800F0200040F0450007F8020D12A821
:104AA000C01B00F107081498007800B1012000EB4A
:104AB0000A01019801EBE07105984144401A401E3B
:104AC0000590E00306D45B462146179A059800F04E
:104AD0005DF805441498007818B15A461799904724
:104AE0006D1CE00324D55B462146179A059800F01B
:104AF0004DF805441CE00498002807DBDDE90301BC
:104B0000884203DD0098405C179901E01799302036
:104B10005A469047049805F10105401C04900198FD
:104B2000401E019004D12E205A46179990476D1CC3
:104B3000BAF10001AAF1010ADDDC05E017F8010B6A
:104B40005A46179990476D1CB8F10001A8F1010869
:104B5000F4DC5B462146179A0598ABE62D00000071
:104B60002B000000200000002DE9F0410446002544
:104B70001E461746880404D405E039462020B04775
:104B80006D1C641EF9D52846BDE8F0812DE9F04181
:104B9000044600251E469046C80301D5302700E094
:104BA0002027880404D505E041463846B0476D1CEF
:104BB000641EF9D52846BDE8F0810A68531C0B60D5
:104BC000107070472DE9F0410446E008104909884B
:104BD000A0EB41000F49B1F900104843C50A0C4849
:104BE0000088C0EB14104043000B0B49B1F90010D2
:104BF0004843860BAF1907EB870080300012074946
:104C0000086008460068FBF7B6FABDE8F0810000CE
:104C100010000020160000201C000020480000208A
:104C200070B5F8B04FF47A700121FE4A0B46CDE919
:104C300000210290D022EC21FB48FCF7C1F9FB498E
:104C400008700846007808B1012000E00020F5490E
:104C50000978602901D0012100E0002108430028E3
:104C60002ED02CE0F148007890B1F1A1FC48FFF77C
:104C700027FB3C20FB49087040F6FF73084602788A
:104C8000F749F948FDF7D5FC4FF47A70FBF7E2FDE0
:104C9000E4480078602812D0F4A1F148FFF710FB37
:104CA0003C20F049087040F6FF7308460278EC4952
:104CB000ED48FDF7BEFC4FF47A70FBF7CBFDD1E772
:104CC000F0A1E748FFF7FCFA3C20E649087040F6FF
:104CD000FF7308460278E249E348FDF7AAFC182171
:104CE00072A8FBF736FA4FF47A70182172AA0123E2
:104CF000CDE9002102908822EC21CB48FCF760F935
:104D0000CA4908709DF8C801E44908809DF8C901A6
:104D1000E3490880E1480088097840EA0120E14938
:104D200008809DF8CA01E04908809DF8CB01DF4961
:104D30000880DD480088097840EA012000B2DC499B
:104D400008809DF8CC01DB4908809DF8CD01DA4947
:104D50000880D8480088097840EA012000B2D74985
:104D600008809DF8CE019DF8CF1140EA0120D4497A
:104D700008809DF8D0019DF8D11140EA012000B2D1
:104D8000D04908809DF8D2019DF8D31140EA012056
:104D900000B2CD4908809DF8D4019DF8D51140EAB4
:104DA000012000B2C94908809DF8D6019DF8D711AD
:104DB00040EA012000B2C64908809DF8D8019DF85C
:104DC000D91140EA012000B2C24908809DF8DA01F9
:104DD0009DF8DB1140EA012000B2BF4908809DF830
:104DE000DC019DF8DD1140EA012000B2BB490880DA
:104DF0009DF8DE019DF8DF1140EA012000B2B849BC
:104E00000880B84908804FF47A700A2172AA0123F9
:104E1000CDE900210290E122EC218348FCF7D0F893
:104E2000824908709DF8C8019DF8C91140EA012027
:104E300000B2AD4908809DF8CA01AC4908809DF8D0
:104E4000CD019DF8CC1140EAC100A94908809DF828
:104E5000CF019DF8CE1140EAC12000B2A5490880DB
:104E60009DF8D001A4490880A4A17D48FFF728FA45
:104E70003C207C49087040F6FF7308460278784968
:104E80007948FDF7D6FB3C2163A8FBF762F98B4814
:104E9000B0F9000000908648B0F9003081480288DF
:104EA000A0A163A8FFF70CFA3C206E49087040F6F9
:104EB000FF730846027863A96B48FDF7BAFB3C21F3
:104EC00054A8FBF746F98048B0F9000000907D48EF
:104ED000B0F900307A4802889BA154A8FFF7F0F996
:104EE0003C206049087040F6FF730846027854A9D8
:104EF0005D48FDF79EFB3C2145A8FBF72AF9754864
:104F0000B0F9000000907248B0F900306F48B0F975
:104F1000002096A145A8FFF7D3F93C20514908701D
:104F200040F6FF730846027845A94F48FDF781FB1C
:104F30003C2136A8FBF70DF96948B0F90000009054
:104F40006648B0F900306448B0F9002090A136A856
:104F5000FFF7B6F93C204349087040F6FF73084656
:104F6000027836A94048FDF764FB3C2127A8FBF7EF
:104F7000F0F85E48008800905B48B0F9003059486E
:104F800002888CA127A8FFF79BF93C2035490870BF
:104F900040F6FF730846027827A93348FDF749FB1E
:104FA0003C2118A8FBF7D5F85348B0F90000009051
:104FB0005048B0F900304E48B0F9002086A118A83A
:104FC000FFF77EF93C202749087040F6FF7308463A
:104FD000027818A92448FDF72CFB3C2109A8FBF70F
:104FE000B8F886A109A8FFF76BF93C201D490870A5
:104FF00040F6FF730846027809A91B48FDF719FB24
:105000002026002008904FF47A70012108AA0B4650
:10501000CDE900210290F522EC210348FBF7D0FFF7
:10502000024901E10900002098000020080000204A
:105030004552524F5220434F4E4E45435420544FF9
:1050400020424D45323830202121212053544154F3
:105050005553213D48414C5F4F4B0D0A0000000065
:105060005C0000200A00002044010020424D45322F
:105070003830206E6F7420666F756E642021212198
:105080000D0A0000434F4E4E45435420544F2042DA
:105090004D45323830200D0A000000000C00002081
:1050A0000E0000201000002012000020140000203C
:1050B00016000020180000201A0000201C0000200C
:1050C0001E000020200000202200002024000020DC
:1050D00026000020280000202A0000202C000020AC
:1050E0002E0000203000002032000020340000207C
:1050F00036000020380000203A00002043414C498F
:10510000425241544520444154413D3D3D3D3D3D89
:105110003D3D3D3D3D3D3D3D3D3D3D3D3D3D0D0A22
:10512000000000006469675F54313A25642C2064F4
:1051300069675F54323A25642C206469675F543391
:105140003A25640D0A0000006469675F50313A2512
:10515000642C206469675F50323A25642C206469AE
:10516000675F50333A25640D0A0000006469675F89
:1051700050343A25642C206469675F50353A2564C1
:105180002C206469675F50363A25640D0A000000E0
:105190006469675F50373A25642C206469675F5003
:1051A000383A25642C206469675F50393A25640DCC
:1051B0000A0000006469675F48313A25642C206466
:1051C00069675F48323A25642C206469675F483319
:1051D0003A25640D0A0000006469675F48343A2587
:1051E000642C206469675F48353A25642C20646923
:1051F000675F48363A25640D0A000000454E44209A
:1052000043414C49425241544520444154413D3D63
:105210003D3D3D3D3D3D3D3D3D3D3D3D3D3D3D3DBE
:105220003D3D0D0A0D0A000008709DF8200000F0B9
:10523000030008909DF82000304308904FF47A70E6
:10524000012108AA0B46CDE900210290F522EC21AC
:105250005A48FCF759F85A490870002007904FF453
:105260007A70012107AA0B46CDE900210290F522B0
:10527000EC215248FBF7A4FE51490870002006902B
:10528000272405904FF47A70012105AA0B46CDE939
:1052900000210290F422EC214848FBF791FE484996
:1052A00008709DF81400204305904FF47A70012196
:1052B00005AA0B46CDE900210290F422EC213F48DB
:1052C000FCF722F83E4908704FF47A70012106AAD3
:1052D0000B46CDE900210290F422EC213748FBF780
:1052E0006FFE374908700225002004904FF47A7051
:1052F000012104AA0B46CDE900210290F222EC2103
:105300002E48FBF75DFE2E4908709DF8100000F056
:10531000070004909DF81000284304904FF47A7021
:10532000012104AA0B46CDE900210290F222EC21D2
:105330002248FBF7E9FF22490870002003904FF450
:105340007A70012103AA0B46CDE900210290F222D6
:10535000EC211A48FBF734FE194908709DF80C003F
:1053600000909DF818309DF81C2016A12148FEF7EA
:10537000A7FF3C202049087040F6FF7308460278DA
:105380001C491E48FDF755F90D48007898B1AFF259
:1053900060311848FEF794FF3C201749087040F62A
:1053A000FF730846027813491448FDF742F94FF499
:1053B0007A70FBF74FFA78B070BD000098000020BB
:1053C00008000020434F4E4649473D307825782C51
:1053D00020204354524C5F4D4541533D3078257851
:1053E0002C204354524C5F48554D3D307825780D64
:1053F0000A0000005C0000200A0000204401002098
:10540000FCF78CF8FEF710FDFEF780F9FEF714FAB2
:10541000FEF740FAFEF7E6F9FEF7FEFBFFF700FCA9
:105420001DE064241AE0643400F02AF80C480DA151
:1054300002681148FEF744FF0F48FAF795FE85B25F
:105440004FF480532A460C490C48FDF7F2F8044803
:10545000FEF766FA4FF47A70FBF7FCF9E3E7E0E752
:105460004800002054454D50455241545552453A4C
:10547000202564200A0D0000840100204401002042
:105480002DE9F04186B00020049005904FF47A7029
:10549000082104AA0123CDE900210290F722EC2182
:1054A0002E48FBF78DFD2E4908709DF81300000370
:1054B0009DF8141040EA01109DF8151040EA2114DF
:1054C0009DF8100000039DF8111040EA01109DF8AE
:1054D000121040EA11159DF817009DF8161040EAC9
:1054E00001282B4622461FA12748CDF80080FEF751
:1054F000E7FE3C202549087040F6FF730846027815
:1055000021492348FDF795F82046FFF75BFB064647
:10551000FAF73AFE1F490860002004E000211A4A09
:105520001154411CC8B23C28F8DD1B480068FAF74A
:1055300044FE064632460B4618A11348FEF7C0FE4D
:105540003C201249087040F6FF73084602780E4965
:105550000F48FDF76EF806B0BDE8F0819800002016
:10556000080000206164635F543D202564202061B1
:1055700064635F503D2025642C206164635F483D77
:10558000202564200D0A00005C0000200A00002095
:10559000440100204800002044000020543D252EF6
:1055A00032660D0A0000000000000000000000004C
:1055B00001020304060708090000000001020304B9
:1055C000E0550008000000205C000000E8420008F0
:1055D0003C5600085C00002054050000F84200081A
:1055E000B3B4010000000000010000000000000052
:1055F00000000000000000000000000000000000AB
:10560000000000000000000000000000000000009A
:105610000000000000000000000000000000010089
:10562000000000000000000000000000000000007A
:0C563000100000000100000000A24A046D
:04000005080000ED02
:00000001FF
