:020000040800F2
:100000003805002001010008BD2F000893220008D8
:10001000B92F0008710600089D3800080000000094
:10002000000000000000000000000000FF33000896
:100030007506000800000000DD32000801340008E9
:100040001B0100081B0100081B0100081B01000820
:100050001B0100081B0100081B0100081B01000810
:100060001B0100081B0100081B0100081B01000800
:100070001B0100081B0100081B0100081B010008F0
:100080001B0100081B0100081B0100081B010008E0
:100090001B0100081B0100081B0100081B010008D0
:1000A0001B0100081B0100081B0100081B010008C0
:1000B0001B0100081B0100081B010008A922000801
:1000C000992200081B0100081B01000809330008E1
:1000D0001B0100088D3800081B0100081B010008E7
:1000E0001B0100081B0100081B010008DFF80CD0F1
:1000F00000F02EFA00480047A9410008380500200A
:100100000648804706480047FEE7FEE7FEE7FEE7B1
:10011000FEE7FEE7FEE7FEE7FEE7FEE79D340008A8
:10012000ED000008202A04DB203A21FA02F0002129
:10013000704721FA02F3D040C2F1200291400843F7
:1001400019467047421C10F8011B0029FBD1801A88
:10015000704730B50B46014600202022012409E0FB
:1001600021FA02F59D4205D303FA02F5491B04FA70
:1001700002F52844151EA2F10102F1DC30BD2DE983
:10018000F05F0546002092469B468846064681461B
:1001900040241BE02846414647462246FFF7C2FF5F
:1001A00053465A46C01A914110D31146184622466A
:1001B00000F0E0F92D1A67EB01084F4622460120B6
:1001C000002100F0D7F917EB00094E41201EA4F1E1
:1001D0000104DFDC484631462A464346BDE8F09F2D
:1001E0002DE9FE4F804681EA0300C00F0C460090C7
:1001F00021F0004123F00045B8EB0200A94105D2EF
:100200004046214690461C460B46024623F00040DD
:10021000104347D0270DC7F30A00C3F30A510290D9
:10022000401A019040286BDAC3F3130040F4801B9E
:100230000098924620B10023D2EB030A63EB0B0B2C
:1002400001985946C0F14002504600F093F9064625
:100250000D4650465946019A00F09BF910EB0800F4
:100260006141002487EA115284EAE7731A4340D0BF
:10027000009A62B3019A012A4FEA075215DC001B6B
:1002800061EB02014FF0004202EA0752CDE9004261
:10029000001C41F5801132462B4600F09BF903B05B
:1002A000BDE8F08F40462146F9E7001B61EB0201F3
:1002B000001C41F5801300185B412018A2F50017BF
:1002C00047EB030140EAD570B6196D4111E06D08A6
:1002D0004FEA360645EAC0754FEA0752001B61EB4C
:1002E0000201001C41F5801149084FEA3000001955
:1002F000514132462B4603B0BDE8F04F00F05BB9E8
:100300000098012240000023D0EB020263EBE0736F
:10031000009821464FEAE074B8EB000061EB04015D
:10032000E9E783F000435BE781F0004158E72DE9FE
:10033000FE4F81EA030404F0004421F000410094E0
:100340004FF0000B23F0004350EA01045ED052EA64
:1003500003045BD0C3F30A54C1F30A552C44A4F23E
:10036000F3340194A0FB0254C1F3130141F4801152
:10037000C3F3130343F4801301FB024400FB034E59
:10038000840A970A44EA815447EA8357A4FB076822
:1003900002958D0A05FB07854FEA932C04FB0C544C
:1003A0002705029D4FEA065847EA1637B5EB0805C0
:1003B0006EEB070C870E920E47EA811742EA831212
:1003C000A7FB0201B6EB0B0164EB00042B0D43EA23
:1003D0000C335E1844EB1C50DA465146E7FB020131
:1003E000C5F313044FEA0B3343EA14534FEA0432C4
:1003F000019C43EA0603A4F10C040294009CCDE99D
:1004000000B400F0E7F803B0BDE8F08F002001462B
:10041000F9E72DE9F04D81EA030404F0004B21F0E7
:10042000004514464FF0000A23F0004150EA05024F
:1004300020D054EA01021DD0C5F30A570246C5F385
:100440001303C1F31300C1F30A5640F4801543F4BB
:100450008013A7EB0608101BD64608F2FD3873EB95
:10046000050002D308F1010801E092185B41B8F1E0
:10047000000F03DA00200146BDE8F08D00204FF4A4
:100480008011064684460EE0171B73EB050705D363
:10049000121B63EB050306434CEA010C49084FEAC3
:1004A000300092185B4150EA0107EDD152EA030097
:1004B00012D082EA040083EA0501084305D0101B2C
:1004C000AB4106D20122002306E000224FF0004398
:1004D00002E06FF0010253101AEB06004CEB0851DA
:1004E00010EB0A0041EB0B01BDE8F04D00F063B8E2
:1004F000C1F30A52C1F3130140F2FF3341F48011FA
:100500009A4202DA00200146704740F233439A4291
:10051000A2F2334202DC5242FFF704BE00F02AB8D6
:1005200030B5041E71F1000404DB4FF0004440427A
:1005300064EB0101141E73F1000405DB1C464FF04F
:100540000043524263EB0403994208BF904230BD1E
:10055000064C074D06E0E06840F0010394E8070010
:1005600098471034AC42F6D3FFF7C4FDF0430008BF
:1005700010440008202A04DB203A00FA02F100208F
:1005800070479140C2F1200320FA03F319439040D1
:100590007047202A06DBCB17203A41FA02F043EAE3
:1005A000E07306E041FA02F3D040C2F1200291402C
:1005B00008431946704710B5141E73F1000408DA99
:1005C000401C41F1000192185B411A4301D120F017
:1005D000010010BD2DE9F04D92469B4611B1B1FAD4
:1005E00081F202E0B0FA80F220329046FFF7C2FFBB
:1005F00004460F4640EA0A0041EA0B0153465A46B8
:10060000084313D0114653EA010019D0C8F1400243
:100610005046FFF787FD05460E465046594642466E
:10062000FFF7A8FF084305D0012004E02046394623
:10063000BDE8F08D0020054346EAE0762C433743C1
:100640000A986305E40AA0EB08000022FD0A44EAC8
:1006500047540A3002D500200146E9E70105101988
:100660006941DDE9084500196941BDE8F04DA2E79F
:1006700000BFFEE77047000001B50948006809495E
:10068000B0FBF1F00921B0FBF1F000994843009074
:1006900000BF0098411E00910028FAD108BD00005B
:1006A0002000002040420F0070B50446002594F859
:1006B0002100022803D00420A063012548E020681F
:1006C000006820F00E00216808602068006820F0B3
:1006D0000100216808601F492068884201D101207B
:1006E00026E01C4914312068884201D110201FE007
:1006F000184928312068884201D1801518E0154931
:100700003C312068884201D1801411E011495031F8
:100710002068884202D14FF4803009E00D496431ED
:100720002068884202D14FF4801001E04FF08070C1
:10073000084908394860012084F8210000BF0020E2
:1007400084F8200000BF606B10B12046616B8847C1
:10075000284670BD0800024070B5044600F0A4F9B8
:1007600006462546681C10B104480078054400BFC1
:1007700000F09AF9801BA842FAD370BD1C0000203B
:100780002DE9F84703460024002000258446002771
:1007900000226EE14FF0010808FA02F4D1F800805F
:1007A00008EA0400A0427DD1DFF8D0A2D1F804808D
:1007B000A8EB0A09D0453AD014DCB8F1030F50D0A9
:1007C00009DCB8F1000F31D0B8F1010F1CD0B8F13D
:1007D000020F49D120E0B8F1110F18D0B8F1120F73
:1007E00042D11EE0B9F5881F25D006DCB9F5803F5F
:1007F00020D0B9F5801F37D11AE0B9F5001F18D005
:10080000B9F5041F30D117E0D1F80CC02DE0D1F8B4
:100810000C8008F1040C28E0D1F80C8008F1080CD9
:1008200023E0D1F80C8008F10C0C1EE000BF00BFE3
:1008300000BF00BF00BF00BFD1F80880B8F1000FB3
:1008400002D14FF0040C0BE0D1F80880B8F1010F91
:1008500003D14FF0080C1C6102E04FF0080C5C6102
:1008600003E04FF0000C00E000BF00BFFF2801D8FC
:10087000984601E003F104084646FF2802D84FEAF3
:10088000820803E0A2F108084FEA88084746D6F834
:1008900000804FF00F0909FA07F928EA09080CFA55
:1008A00007F900E088E048EA0908C6F80080D1F8B6
:1008B000048008F08058B8F1805F7DD100BFDFF878
:1008C000C081D8F8188048F00108DFF8B491C9F861
:1008D0001880C846D8F8188008F00108CDF80080C4
:1008E00000BF00BF4FEAB9384FEA920958F82950C3
:1008F0004FEA82784FEA18794FF00F0808FA09F8A2
:1009000025EA0805DFF87C81434502D14FF0000855
:1009100016E0DFF87481434502D14FF001080FE083
:10092000DFF86881434502D14FF0020808E0DFF8A4
:100930006081434502D14FF0030801E04FF0040805
:100940004FEA82794FEA197908FA09F848EA050569
:10095000DFF840814FEA920948F82950D1F8048025
:1009600008F48038B8F5803F0AD1DFF82C81D8F838
:10097000008048EA0008DFF82091C9F8008009E00B
:10098000DFF81481D8F8008028EA0008DFF8089121
:10099000C9F80080D1F8048008F40038B8F5003FA9
:1009A00010D1DFF8F48008F10408D8F8008048EA94
:1009B0000008DFF8E49000E05AE009F10409C9F802
:1009C00000800DE0DFF8D08008F10408D8F800803E
:1009D00028EA0008DFF8C09009F10409C9F800808E
:1009E000D1F8048008F48018B8F5801F0ED1DFF824
:1009F000A88008F10808D8F8008048EA0008DFF865
:100A0000989009F10809C9F800800DE0DFF88880A6
:100A100008F10808D8F8008028EA0008DFF8789084
:100A200009F10809C9F80080D1F8048008F4001819
:100A3000B8F5001F0ED1DFF8608008F10C08D8F877
:100A4000008048EA0008DFF8509009F10C09C9F865
:100A500000800DE0DFF8408008F10C08D8F8008035
:100A600028EA0008DFF8309009F10C09C9F8008085
:100A7000521C102AFFF48EAEBDE8F887000011105A
:100A80000010024000080140000C0140001001402D
:100A90000014014008000140000401400AB1016156
:100AA00001E00B04036170470148006870470000D3
:100AB00014000020704770472DE9F04704464FF0BE
:100AC0000008C1460027BA46206845692068466884
:100AD0003448284080B106F4807068B1206C40F042
:100AE000010020646FF4807021684861206800680C
:100AF00040F400402168086005F4813050B106F4EC
:100B0000807038B1206C40F0020020646FF40070F7
:100B10002168486105F4823078B306F4807060B3D0
:100B200094F83E80B4F82A9094F83D70D4F830A040
:100B3000B8F1200F0FD1B9F1000F0CD1212F06D041
:100B4000292F04D0282F06D1BAF1210F03D1204636
:100B500002F06EF811E0206C40F00400206494F87C
:100B60003E00102805D12068006840F4007021681C
:100B700008606FF480602168486105F4843050B1EA
:100B800006F4807038B1206C40F0080020646FF4E7
:100B9000006021684861206C10B1204601F0C0FB64
:100BA000BDE8F087000101002DE9F04106463068FC
:100BB0008769306844693068456896F83E80B8F1C6
:100BC000100F02D0B8F1400F58D104F0011030B12D
:100BD00005F4007018B1304601F069FF13E04E488B
:100BE000204030B105F4007018B1304601F035FEF8
:100BF00009E04948801F204028B105F4007010B179
:100C0000304601F031FE45483840D8B1424878308E
:100C1000204050B105F4806038B13F48001F2040AB
:100C200018B9304601F074FD74E03B48001F2040C5
:100C300000286FD005F4007000286BD0304601F01A
:100C400017FD67E034483830204050B105F480602B
:100C500038B13148001F204018B9304601F099FCE6
:100C600058E02D48001F2040002853D005F40070A4
:100C700000284FD0304601F00BFC4BE02648801F87
:100C8000204030B105F4007018B1304601F0B4FFD7
:100C900040E021480830204030B105F4007018B120
:100CA000304602F017F835E01C483840C8B11A4801
:100CB0007830204050B105F4806038B11648001FEC
:100CC000204018B9304601F074FF23E01248001F9D
:100CD0002040F8B105F40070E0B1304601F05BFF50
:100CE00018E00D483830204050B105F4806038B12C
:100CF0000948001F204018B9304601F028FF09E0DC
:100D00000548001F204028B105F4007010B130469E
:100D100001F00EFFBDE8F0810800010004001000A2
:100D20007047000070B50446002600250CB901206C
:100D300070BD94F83D0028B9002084F83C0020469E
:100D400000F0B4F8242084F83D002068006820F00A
:100D500001002168086000F0B5FA05464C4960685A
:100D6000884206D84B48854201D2012007E0002086
:100D700005E04948854201D2012000E00020012819
:100D800000D1D5E74548B5FBF0F6206846604049FC
:100D90006068884201D8701C07E04FF49670704379
:100DA0004FF47A71B0FBF1F0401C216808623849B9
:100DB0006068884214D8681E61684900B0FBF1F091
:100DC000401CC0F30B00042801D204203DE0681E43
:100DD00061684900B0FBF1F0401CC0F30B0034E047
:100DE000A06838B9681E616801EB4101B0FBF1F001
:100DF000401C0AE0681E616801EBC10202EB0111B0
:100E0000B0FBF1F0401C40F48040C0F30B0008B987
:100E100001201AE0A06848B9681E616801EB410131
:100E2000B0FBF1F0401CC0F30B000CE0681E6168E1
:100E300001EBC10202EB0111B0FBF1F0401CC0F369
:100E40000B0040F4804040F400402168C861D4E9C0
:100E50000701084321680860D4E9031008432168AA
:100E60008860D4E9050108432168C86020680068EB
:100E700040F001002168086000202064202084F8F0
:100E80003D000020206384F83E0000BF50E70000D2
:100E9000A086010080841E0000093D0040420F0032
:100EA00070477047704770477047000010B586B0B4
:100EB000044617492068884227D1C020029012209A
:100EC00003900320059002A91248FFF759FC00BFC8
:100ED0001148C06940F400100F49C8610846C06954
:100EE00000F40010019000BF00BF002211461F2037
:100EF00000F0BDF81F2000F0ADF8002211462020C0
:100F000000F0B5F8202000F0A5F806B010BD0000F4
:100F100000540040000C0140001002407047704730
:100F2000034800680349097808440149086070478C
:100F3000140000201C00002010B50848006840F094
:100F4000100006490860032000F0D0F8002000F0EF
:100F500007F800F02BF8002010BD00000020024030
:100F600070B504460E4800784FF47A71B1FBF0F08A
:100F70000C490968B1FBF0F5284600F0E4FF08B120
:100F8000012070BD102C07D200222146501E00F017
:100F90006EF80548046001E00120F2E70020F0E768
:100FA0001C000020200000201800002008B500BF11
:100FB0002648806940F0010024498861084680691C
:100FC00000F00100009000BF00BF00BF0846C069EC
:100FD00040F08050C8610846C06900F08050009021
:100FE00000BF00BF032000F081F8002211466FF01F
:100FF0000B0000F03CF8002211466FF00A0000F0F0
:1010000036F8002211466FF0090000F030F8002297
:101010001146501F00F02BF800221146101F00F05F
:1010200026F800221146901E00F021F800221146F9
:10103000501E00F01CF800BF0549486820F0E06031
:1010400040F00070486000BF08BD00000010024082
:101050000000014000BF00F01F0201219140420941
:10106000920002F1E022C2F8001100BF70472DE9A2
:10107000F05F80460D461646002702F013F907463A
:1010800039462A46334601F00700C0F1070ABAF193
:10109000040F02D94FF0040A01E0C0F1070AD1465B
:1010A00000F1040ABAF1070F02D24FF0000A01E082
:1010B000A0F1030AD4464FF0010A0AFA09FAAAF18C
:1010C000010A0AEA020A0AFA0CFA4FF0010B0BFABB
:1010D0000CFBABF1010B0BEA030B4AEA0B042146B4
:1010E000404602F0E7F8BDE8F09F000000BF00F0C6
:1010F0000702064B19684FF6FF031940044B0B43D8
:1011000043EA0221014B196000BF70470CED00E07B
:101110000000FA0570B504460D46002662480068D6
:1011200000F00700A8420ED25F48006820F00700D8
:1011300028435D4908600846006800F00700A8429F
:1011400001D0012070BD207800F00200022807D1F4
:101150005648406820F0F000A168084353494860B1
:10116000207800F0010000285DD06068012806D1D9
:101170004E48006800F4003090B90120E2E7606852
:10118000022806D14948006800F0007040B90120EB
:10119000D8E74648006800F0020008B90120D1E70E
:1011A0004248406820F00300616808433F494860B6
:1011B000FFF77AFC06466068012810D108E0FFF7C7
:1011C00073FC801B41F28831884201D90320B9E7C2
:1011D0003648406800F00C000428F0D123E0606835
:1011E000022810D108E0FFF75FFC801B41F2883134
:1011F000884201D90320A5E72C48406800F00C0084
:101200000828F0D10FE008E0FFF74EFC801B41F208
:101210008831884201D9032094E72448406800F0CF
:101220000C000028F0D12048006800F00700A84218
:101230000ED91D48006820F0070028431A490860AD
:101240000846006800F00700A84201D0012079E7B5
:10125000207800F00400042807D11448406820F4E6
:10126000E060E168084311494860207800F0080018
:10127000082808D10D48406820F46050216940EAF0
:10128000C1000A49486000F03DF808494968C1F3C7
:101290000311074A515CC840064908600020FFF767
:1012A0005FFE00204EE700000020024000100240D8
:1012B000D843000820000020014800687047000063
:1012C0002000002000B5FFF7F7FF04494968C1F38B
:1012D0000221034A515CC84000BD000000100240DA
:1012E000E843000800B5FFF7E7FF04494968C1F388
:1012F000C221034A515CC84000BD000000100240FA
:10130000E8430008F0B585B00FF26C0C9CE8E010E3
:1013100001A8A0E8E0101CA52D680095002100227E
:10132000002300240020194D696801F00C05F5B177
:10133000042D02D0082D19D101E0154819E001ADA6
:10134000C1F38346AC5D01F4803555B10F4D6D6836
:10135000C5F340451DF805200D4D6543B5FBF2F37F
:1013600002E00C4D04FB05F3184602E000BF0848FC
:1013700000BF00BF05B0F0BD020304050607080961
:101380000A0B0C0D0E0F101001020000001002409D
:1013900000127A0000093D00F8B5044600252078C7
:1013A00000F00100002878D0F848406800F00C00F8
:1013B00004280CD0F548406800F00C00082811D132
:1013C000F248406800F48030B0F5803F0AD1EF4821
:1013D000006800F4003000285FD0606800285CD10D
:1013E0000120F8BD00BF6068B0F5803F06D1E74836
:1013F000006840F48030E549086028E0606858B92A
:10140000E248006820F48030E0490860084600683F
:1014100020F4802008601AE06068B0F5A02F0BD19E
:10142000DA48006840F48020D8490860084600681F
:1014300040F4803008600AE0D448006820F480302E
:10144000D24908600846006820F48020086000BF88
:10145000606888B1FFF728FB054606E0FFF724FB2C
:10146000401B642801D90320BBE7C848006800F48A
:1014700000300028F2D010E0FFF716FB054606E02A
:10148000FFF712FB401B642801D90320A9E7BF48DE
:10149000006800F400300028F2D1207800F002004B
:1014A000022857D1B948406800F00C0050B1B74845
:1014B000406800F00C00082818D1B448406800F4D7
:1014C000803098B9B148006800F0020020B120696E
:1014D000012801D0012084E7AC48006820F0F80022
:1014E000616940EAC100A949086033E02069E8B1B8
:1014F0000120A7490860FFF7D7FA054606E0FFF785
:10150000D3FA401B022801D903206AE79F480068EC
:1015100000F002000028F2D09C48006820F0F8009B
:10152000616940EAC1009949086013E000209849C8
:101530000860FFF7B9FA054606E0FFF7B5FA401B69
:10154000022801D903204CE79048006800F002000F
:101550000028F2D1207800F0080008282DD1A069D9
:10156000B8B101208B490860FFF79EFA054606E0F6
:10157000FFF79AFA401B022801D9032031E783487C
:10158000406A00F002000028F2D0012001F0A8FE1D
:1015900013E000207F490860FFF786FA054606E061
:1015A000FFF782FA401B022801D9032019E7774888
:1015B000406A00F002000028F2D1207800F0040018
:1015C000042873D100267148C06900F0805070B9BA
:1015D00000BF6E48C06940F080506C49C861084641
:1015E000C06900F08050009000BF00BF01266A482B
:1015F000006800F48070B0B96748006840F48070FB
:1016000065490860FFF750FA054606E0FFF74CFA17
:10161000401B642801D90320E3E65F48006800F41A
:1016200080700028F2D000BFE068012806D157483A
:10163000006A40F001005549086227E0E06858B9A7
:101640005248006A20F00100504908620846006ACA
:1016500020F00400086219E0E06805280BD14B482F
:10166000006A40F00400494908620846006A40F0F8
:10167000010008620AE04548006A20F00100434981
:1016800008620846006A20F00400086200BFE068B3
:10169000A0B1FFF709FA054609E0FFF705FA401B7C
:1016A00041F28831884202D903209AE622E0374885
:1016B000006A00F002000028EFD012E0FFF7F4F912
:1016C000054608E0FFF7F0F9401B41F288318842F7
:1016D00001D9032085E62D48006A00F002000028A9
:1016E000F0D1012E05D12948C06920F0805027494A
:1016F000C86100BFE069C8B32448406800F00C002E
:10170000082860D0E069022848D1002020490866F6
:10171000FFF7CAF9054606E0FFF7C6F9401B0228A5
:1017200001D903205DE61948006800F00070002828
:10173000F2D1206AB0F5803F07D11448406820F408
:101740000030A168084311494860D4E90801084302
:101750000E49496821F4741108430C49486001207E
:101760000B490866FFF7A0F9054607E02DE0FFF7F3
:101770009BF9401B022801D9032032E60348006888
:1017800000F000700028F2D01FE0000000100240BE
:1017900000004242800442420070004000200C4998
:1017A0000866FFF781F9054606E0FFF77DF9401B63
:1017B000022801D9032014E60648006800F00070F2
:1017C0000028F2D101E001200BE6002009E600002C
:1017D000000042420010024070470000F8B5044685
:1017E000206846682068856805F0400048B905F023
:1017F000010030B106F0400018B12046216C884746
:10180000F8BD05F0020030B106F0800018B12046A6
:10181000616C8847F4E705F06000002866D006F0A8
:101820002000002862D005F04000F0B194F851008B
:1018300003280ED0606D40F00400606500BF0020FA
:1018400000902068C068009020688068009000BF09
:101850000BE000BF002000902068C0680090206866
:101860008068009000BF00BFCAE705F0200088B183
:10187000606D40F00100606500BF002000902068AE
:10188000806800902068006820F0400021680860AF
:1018900000BF00BF606D20B32068406820F0E0000A
:1018A00021684860012084F8510006F0020010B958
:1018B00006F00100B0B12068406820F00300216804
:1018C0004860E06C28B10A48E16C4863E06CFEF7C0
:1018D000EBFEA06C28B10648A16C4863A06CFEF733
:1018E000E3FE02E02046FFF777FF89E700BF87E7C6
:1018F0004133000810B504460CB9012010BD002189
:10190000A16294F8510010B9204600F037F8022087
:1019100084F851002068006820F0400021680860C9
:10192000D4E901010843E16808432169084361697A
:101930000843218B01F400710843E1690843216ADF
:101940000843A16A0843216808600421A06901EAEC
:101950001040616A0843216848602168E06A0861B4
:101960002068C06920F400602168C86100206065BB
:10197000012084F851000020C0E7000010B586B0B7
:10198000044617492068884228D100BF154880695D
:1019900040F48050134988610846806900F4805003
:1019A000019000BF00BFA0200290022003900320FE
:1019B000059002A90C48FEF7E3FE402002900020AB
:1019C0000390049002A90848FEF7DAFE00221146AF
:1019D0002320FFF74CFB2320FFF73CFB06B010BD94
:1019E0000030014000100240000801402DE9F8439A
:1019F00004460D4617461E464FF00008C146606873
:101A0000B0F5827F0DD1A06858B9042084F8510048
:101A10003B462A4629462046009600F070F9BDE86C
:101A2000F88300BF94F85000012801D10220F6E7A6
:101A3000012084F8500000BFFFF736F8804694F884
:101A40005100012802D04FF002097BE005B117B91F
:101A50004FF0010976E0042084F851000020606511
:101A6000A563A787E7872063A086E086206460647B
:101A7000A068B0F5004F05D12068006820F48040D0
:101A8000216808602068006800F04000402805D008
:101A90002068006840F0400021680860E068E8B90C
:101AA00018E02068806800F0010038B12068007BF1
:101AB00028706D1CE08F401EE0870BE03EB1701C6B
:101AC00040B1FEF7F1FFA0EB0800B04202D34FF0A7
:101AD000030937E0E08F0028E3D11CE018E020681C
:101AE000806800F0010038B12068C0682880AD1C13
:101AF000E08F401EE0870BE03EB1701C40B1FEF766
:101B0000D3FFA0EB0800B04202D34FF0030919E065
:101B1000E08F0028E3D16068B0F5827F0DD1A06826
:101B2000B0F5004F03D0A068B0F5806F05D12068F4
:101B3000006820F0400021680860606D08B14FF037
:101B4000010900BF012084F8510000BF002084F883
:101B5000500000BF484662E72DE9F84304460D46B1
:101B600017461E464FF00008C14600BF94F85000CB
:101B7000012802D10220BDE8F883012084F850003A
:101B800000BFFEF791FF804694F85100012802D073
:101B90004FF00209A9E005B117B94FF00109A4E01F
:101BA000032084F85100002060652563A786E7863E
:101BB000A063A087E08760642064A068B0F5004F50
:101BC00005D12068006840F48040216808602068E2
:101BD000006800F04000402805D02068006840F010
:101BE000400021680860E068B0F5006F2AD16068A5
:101BF00010B1E08E012806D128882168C860AD1C8C
:101C0000E08E401EE08619E02068806800F0020047
:101C1000022807D128882168C860AD1CE08E401ECC
:101C2000E0860BE03EB1701C40B1FEF73DFFA0EB3B
:101C30000800B04202D34FF0030956E0E08E0028BE
:101C4000E2D129E0606810B1E08E012806D1287841
:101C5000216808736D1CE08E401EE08619E0206844
:101C6000806800F00200022807D1287821680873F4
:101C70006D1CE08E401EE0860BE03EB1701C40B152
:101C8000FEF712FFA0EB0800B04202D34FF00309A9
:101C90002BE0E08E0028E2D13346012202212046CB
:101CA000CDF8008001F056FB10B14FF003091CE0A5
:101CB00042463146204601F02FFB20B14FF001098A
:101CC0002020606511E0A06850B900BF002000909E
:101CD0002068C068009020688068009000BF00BF46
:101CE000606D08B14FF0010900BF012084F8510078
:101CF00000BF002084F8500000BF48463BE72DE9B4
:101D0000FE4F04460D4616461F46DDF830804FF064
:101D1000000A0020029081464FF0010B019000BFA5
:101D200094F85000012802D10220BDE8FE8F012066
:101D300084F8500000BFFEF7B7FE814694F851A02A
:101D400060680290BAF1010F0BD00298B0F5827F63
:101D500004D1A06810B9BAF1040F02D0022001909A
:101D6000D2E00DB106B117B901200190CCE094F892
:101D70005100012802D1052084F85100002060653F
:101D8000A663E787A7872563E786A7862064606444
:101D90002068006800F04000402805D020680068F6
:101DA00040F0400021680860E068B0F5006F43D162
:101DB000606810B1E08E012806D128882168C860CB
:101DC000AD1CE08E401EE0862FE0BBF1000F10D06E
:101DD000E08E70B12068806800F00200022808D10F
:101DE00028882168C860AD1CE08E401EE0864FF058
:101DF000000BE08F68B12068806800F0010040B1FE
:101E00002068C0683080B61CE08F401EE0874FF02D
:101E1000010B08F1010040B1FEF746FEA0EB0900FE
:101E2000404502D3032001906EE0E08E0028CCD123
:101E3000E08F0028C9D142E0606810B1E08E01282F
:101E400006D12878216808736D1CE08E401EE0865C
:101E50002FE0BBF1000F10D0E08E70B120688068D9
:101E600000F00200022808D115F8010B2168087360
:101E7000E08E401EE0864FF0000BE08F68B12068D6
:101E8000806800F0010040B12068C06806F8010BCE
:101E9000E08F401EE0874FF0010B08F1010040B1D8
:101EA000FEF702FEA0EB0900404502D3032001909B
:101EB0002AE0E08E0028CCD1E08F0028C9D143462B
:101EC000012202212046CDF8009001F043FA10B122
:101ED0000320019018E04A464146204601F01CFAD2
:101EE00020B101200190202060650DE0A06850B96C
:101EF00000BF002000902068C068009020688068C3
:101F0000009000BF00BF00BF012084F8510000BF57
:101F1000002084F8500000BF019806E7042808D18B
:101F20004FF0E021096941F004014FF0E022116116
:101F300007E04FF0E021096921F004014FF0E022B1
:101F400011617047704770B504462546681EB0F1B0
:101F5000807F01D301200FE0681E4FF0E02148612F
:101F60000F214FF0FF3001F0A5F900204FF0E021E4
:101F7000886107200861002070BD10B5FFF7E2FFFF
:101F800010BD70472DE9F0470446206805682068B9
:101F9000C668206847694FF00008C14605F00F0881
:101FA000B8F1000F0AD105F0200038B106F020008A
:101FB00020B1204601F0C8FABDE8F087B8F1000F63
:101FC0006DD007F0010018B906F49070002866D0B3
:101FD00005F0010030B106F4807018B1E06B40F0FC
:101FE0000100E06305F0040030B107F0010018B112
:101FF000E06B40F00200E06305F0020030B107F052
:10200000010018B1E06B40F00400E06305F0080047
:1020100030B107F0010018B1E06B40F00800E06358
:10202000E06B68B305F0200028B106F0200010B185
:10203000204601F089FA20684069C0F38019E06BFE
:1020400000F0080010B9B9F1000F22D0204601F0CD
:102050005BFA2068406900F04000B0B12068406938
:1020600020F0400021684861606B50B11748616BF7
:102070004863606BFEF718FB10B1606B416B8847DB
:102080000CE02046FFF77DFF08E02046FFF779FFD0
:1020900004E02046FFF775FF0020E0638CE705F0C1
:1020A000800030B106F0800018B1204601F084FBBA
:1020B00082E705F0400030B106F0400018B120463C
:1020C00001F032FA78E700BF76E70000F534000847
:1020D00010B504460CB9012010BDA06900B100E0A4
:1020E00000BF94F8390028B9002084F83800204651
:1020F00000F028F8242084F839002068C06820F413
:1021000000502168C860204601F072FA206800691A
:1021100020F49040216808612068406920F02A007E
:10212000216848612068C06840F400502168C86098
:102130000020E063202084F8390084F83A00002071
:10214000CAE7000010B586B00446184920688842E6
:1021500029D100BF1648806940F480401449886145
:102160000846806900F48040019000BF00BF481518
:102170000290022003900320059002A90D48FEF76B
:10218000FFFA4FF48060029000200390049002A9AF
:102190000848FEF7F5FA002211462520FEF767FFF2
:1021A0002520FEF757FF06B010BD000000380140A3
:1021B000001002400008014070472DE9F843044632
:1021C0000D4616461F464FF0000994F839002028A6
:1021D0005CD105B116B90120BDE8F88300BF94F8C1
:1021E0003800012801D10220F6E7012084F83800E8
:1021F00000BF0020E063212084F83900FEF754FC82
:102200008146A684E6842BE0E08C401EE084A06832
:10221000B0F5805F16D14B46002280212046009702
:1022200001F0FEFA08B10320D6E7A846B8F800008E
:10223000C0F3080021684860206908B9AD1C0FE0B0
:102240006D1C0DE04B46002280212046009701F0D6
:10225000E7FA08B10320BFE715F8010B21684860D1
:10226000E08C0028D0D14B46002240212046009728
:1022700001F0D6FA08B10320AEE7202084F8390037
:1022800000BF002084F8380000BFA5E70220A3E7C4
:10229000704700BFFEE7000010B50248FEF70CFCD7
:1022A00010BD00002400002010B50248FEF77CFCA1
:1022B00010BD00002400002070B505466C6A20683F
:1022C000006820F480602168086000206085616BF0
:1022D0004863A16B486394F83D00602810D120202A
:1022E00084F83D00002084F83E00206420680068E7
:1022F00020F00100216808602046FEF7DBFB0EE0BD
:10230000202084F83D00002084F83E00206800680A
:1023100020F00100216808602046FEF701FD70BD35
:1023200070B5044694F83D50292D01D02A2D05D1D1
:1023300000202063282084F83D0011E094F83D003F
:10234000602809D02068406800F40060B0F5006F94
:1023500002D0202084F83D000020206384F83E0055
:102360002068006820F400602168086020684068E8
:1023700000F40060B0F5006F40D12068406820F4A0
:10238000006021684860606B90F82100012814D03B
:102390003D48616B4863606BFEF786F900285BD0AF
:1023A0002068006820F0010021680860202084F87F
:1023B0003D00606B416B88474EE03348A16B48633A
:1023C000A06BFEF771F9002846D020684069C0F381
:1023D000801030B120680069C1B2626A501C60622E
:1023E00011702068006820F001002168086020203A
:1023F00084F83D00A06B416B88472DE094F83D00C8
:1024000060281AD1202084F83D0000202064206834
:102410004069C0F3801030B120680069C1B2626ABF
:10242000501C606211702068006820F00100216873
:1024300008602046FEF73EFB0EE020684069C0F3CE
:10244000801030B120680069C1B2626A501C6062BD
:1024500011702046FEF764FC94F83D00282811D145
:10246000206C00F0040004280CD10848E062002031
:102470002063202084F83D00002084F83E002046A0
:10248000FEF70EFD70BD0000B92200080000FFFF3E
:1024900070B50446E56A608D032817D1042D04D079
:1024A000082D02D015F5803F05D12068006820F482
:1024B00080602168086020680069C1B2626A501CAF
:1024C00060621170608D401E608560E0608D022842
:1024D00053D1042D1AD0082D18D015F5803F15D0F2
:1024E000022D06D02068006820F480602168086012
:1024F00005E02068006840F480602168086020687A
:10250000406820F44070216848600BE02068406813
:1025100020F44070216848602068006840F4007032
:102520002168086020680069C1B2626A501C60625C
:102530001170608D401E608520680069C1B2626ABA
:10254000501C60621170608D401E6085202084F8F0
:102550003D000020206394F83E00402806D1002072
:1025600084F83E002046FEF79EFC10E0002084F830
:102570003E002046FEF795FC09E020680069C1B2E4
:10258000626A501C60621170608D401E6085002080
:1025900070BD70B5044694F83D00222866D1002530
:1025A000658D032D0AD920680069C1B2626A501C8A
:1025B00060621170608D401E608556E0022D01D072
:1025C000032D1CD1E06A02280CD02068006820F49A
:1025D0008060216808602068006840F4006021681D
:1025E000086005E02068006840F4806021680860A9
:1025F0002068406820F480602168486035E0E06A27
:10260000022806D02068006820F4806021680860F5
:1026100005E02068006840F4806021680860206858
:10262000406820F4E0602168486020680069C1B219
:10263000626A501C60621170608D401E60852020AF
:1026400084F83D000020206394F83E00402806D125
:10265000002084F83E002046FEF725FC05E000201F
:1026600084F83E002046FEF71CFC00BF002070BD31
:1026700070B50446E56A94F83D00212846D1608D86
:1026800048B1616A481C6062087821680861608D01
:10269000401E60853AE0042D16D0082D14D015F5A3
:1026A000803F11D02068406820F4E06021684860D5
:1026B00011202063002084F83E00202084F83D0093
:1026C0002046FEF7EFFB21E02068406820F4E06040
:1026D000216848602068006840F400702168086044
:1026E00000202063202084F83D0094F83E0040281C
:1026F00006D1002084F83E002046FEF7D5FB05E019
:10270000002084F83E002046FEF7CCFB002070BD80
:102710002DE9F041044694F83D5094F83E70E66A85
:10272000208DB0BB212D3CD1042E16D0082E14D004
:1027300016F5803F11D02068406820F4E0602168E1
:10274000486011202063002084F83E00202084F897
:102750003D002046FEF7A6FB7CE02068406820F4A0
:10276000E060216848602068006840F400702168DB
:10277000086000202063202084F83D0094F83E008B
:10278000402807D1002084F83E002046FEF78CFB4D
:1027900060E006E0002084F83E002046FEF782FB61
:1027A00058E0212D03D0402F54D1222D52D1608DDD
:1027B00030B92068406820F480602168486049E0B2
:1027C00094F83E0040283CD1206D98B9E06C012877
:1027D00007D1A06CC0B221680861206D801C206503
:1027E00038E0A06CC0F3072021680861206D401C10
:1027F00020652FE0206D012807D1A06CC0B22168B0
:102800000861206D401C206524E0206D022821D144
:1028100094F83D00222806D12068006840F48070BA
:102820002168086016E094F83D00212812D1616A01
:10283000481C6062087821680861608D401E6085D0
:1028400008E0616A481C6062087821680861608D50
:10285000401E60850020BDE8F0810146486CC0B292
:102860000A6810610020704738B5014691F83E3083
:10287000CA6A0C6B91F83D00222873D1086D60B9CB
:10288000402B0AD100BF00200090086840690090EA
:1028900008688069009000BF07E1086DC0B9086949
:1028A000B0F5404F14D100BF002000900868406987
:1028B000009008688069009000BF00BF0868006849
:1028C00040F480700D682860086D401C0865ECE0DD
:1028D000488D88B900BF00200090086840690090CA
:1028E00008688069009000BF00BF0868006840F475
:1028F00000700D682860CAE0488D01286CD112F57F
:10290000803F30D10868006820F480600D6828603E
:102910000868406800F40060B0F5006F10D10868E6
:10292000006820F480600D68286000BF00200090DF
:1029300008684069009008688069009000BFA6E0C0
:1029400000BF002000900868406900900868806916
:10295000009000BF00BF0868006840F400700D6878
:10296000286094E096E0042A1ED0082A1CD0122C7D
:102970001AD0C86A022806D00868006820F480606F
:102980000D68286005E00868006840F480600D6804
:10299000286000BF00200090086840690090086827
:1029A0008069009000BF72E00868006820F48060D1
:1029B0000D68286000BF0020009008684069009002
:1029C00008688069009000BF00BF0868006840F494
:1029D00000700D6828605AE0488D022839D1C86A15
:1029E000022817D00868006840F400600D6828606D
:1029F00000BF002000900868406900900868806966
:102A0000009000BF00BF0868006820F480600D6877
:102A1000286010E00868006840F480600D68286055
:102A200000BF002000900868406900900868806935
:102A3000009000BF00BF0868406800F40060B0F577
:102A4000006F24D10868406840F480500D686860C9
:102A50001DE00868006840F480600D682860086820
:102A6000406800F40060B0F5006F05D10868406868
:102A700040F480500D68686000BF00200090086836
:102A80004069009008688069009000BF00BF002086
:102A900008650AE000BF00200090086840690090C7
:102AA00008688069009000BF00BF002038BD014663
:102AB00091F83E0040280ED1086D28B9486C00F00E
:102AC000FE000A68106131E0486CC0B240F00100BD
:102AD0000A6810612AE00869B0F5804F10D191F8BA
:102AE0003D00212805D1486C00F0FE000A68106105
:102AF0001CE0486CC0B240F001000A68106115E0AB
:102B0000086D40B9486C00F44070F02242EAE010D1
:102B10000A6810610AE0086D012807D1486C00F4CA
:102B20004070F12242EAE0100A681061002070470C
:102B30000146488D48B108680069C2B24B6A581C0A
:102B400048621A70488D401E48850020704770B555
:102B5000044694F83D50608DD8B120680069C1B238
:102B6000626A501C60621170608D401E6085608DCD
:102B700078B92A2D0DD12068406820F48060216842
:102B8000486022202063282084F83D002046FEF77C
:102B9000C5F9002070BD0146488D40B14A6A501CFD
:102BA000486210780A681061488D401E48850020F0
:102BB000704770B5044694F83D50608DD0B1616A9D
:102BC000481C6062087821680861608D401E60853D
:102BD000608D78B9292D0DD12068406820F480607F
:102BE0002168486021202063282084F83D00204689
:102BF000FEF795F9002070BD70B50446002500264B
:102C000020688069C0F3800000B9012520688069D0
:102C1000C0F3C01010B9A08986B201E0208B86B243
:102C2000324629462046FDF746FF002070BD0000D1
:102C300070B5044694F83D50E66A042E01D0082E83
:102C40001FD1282D1DD12248E0622068406820F461
:102C5000E060216848606FF4806021684861206806
:102C6000006820F480602168086000202063202034
:102C700084F83D00002084F83E002046FEF710F95D
:102C800023E0212D1DD11248E06221202063202065
:102C900084F83D00002084F83E002068406820F45D
:102CA000E060216848606FF48060216848612068B6
:102CB000006820F48060216808602046FEF72FF944
:102CC00003E06FF4806021684861002070BD00005F
:102CD0000000FFFF38B5044694F83D502068406876
:102CE00020F4E0602168486000BF00200090206868
:102CF000406900902068006840F001002168086089
:102D000000BF00BF2068006820F480602168086070
:102D10002068406800F40060B0F5006F10D194F8AE
:102D20003D00222803D094F83D002A2804D1A06B4E
:102D300000684068608503E0606B006840686085FB
:102D4000608D08B320684069C0F3800048B12068F6
:102D50000069C1B2626A501C60621170608D401ED1
:102D6000608520684069C0F3801048B12068006920
:102D7000C1B2626A501C60621170608D401E608535
:102D8000206C40F004002064206C18B12046FFF74E
:102D9000C7FA23E0282D03D02A2D01D0292D0DD1EB
:102DA0000F48E06200202063202084F83D000020CE
:102DB00084F83E002046FEF773F80FE0206B2228CF
:102DC00001D0222D0AD100202063202084F83D006C
:102DD000002084F83E002046FEF7A0F8002038BD11
:102DE0000000FFFF00B585B000BF3148806940F0AA
:102DF00010002F4988610846806900F0100000909B
:102E000000BF00BF00BF0846806940F02000886115
:102E10000846806900F02000009000BF00BF00BF9E
:102E20000846806940F0040088610846806900F027
:102E30000400009000BF00BF00BF0846806940F05A
:102E4000080088610846806900F00800009000BF13
:102E500000BF00224FF400511648FDF71FFE00226C
:102E600018211548FDF71AFE4FF40050019001207B
:102E70000290002003900220049001A90D48FDF764
:102E80007FFC0420019000200290039001A90A48D1
:102E9000FDF776FC1820019001200290002003909D
:102EA0000220049001A90448FDF76AFC05B000BDAA
:102EB00000100240001001400008014010B50D480C
:102EC0000D4908600D48486000210B488160C160D1
:102ED0004FF480410161002141618161C161016262
:102EE000FDF720FF20B140F20F1105A000F0D8FC43
:102EF00010BD00000054004024000020A086010006
:102F00002E2E2F5372632F6D61696E2E63000000A9
:102F100010B51048104908604FF4827048600021D5
:102F20000D488160C160016141614FF400718161B0
:102F30002021C16100210162416281620A21C162D6
:102F4000FEF7D8FC20B140F2271104A000F0A8FC45
:102F500010BD000000300140780000202E2E2F53BD
:102F600072632F6D61696E2E6300000010B50C480E
:102F70000C4908604FF4E130486000210948816045
:102F8000C16001610C21416100218161C161FFF7D4
:102F90009FF820B14FF49D7103A000F081FC10BD9B
:102FA00000380140D00000202E2E2F5372632F6D69
:102FB00061696E2E6300000000BFFEE770470000ED
:102FC00010B50024002000F057F8044644F0030434
:102FD0002146002000F0C6F8012208210548FDF72F
:102FE0005DFD9620FDF748FB00F006F800F024F8A0
:102FF00010BD00000008014008B50CA0006800905A
:10300000002210210A48FDF749FD4FF47A7301228E
:1030100069460848FEF7A0FD0120FDF72DFB0122BF
:1030200010210348FDF73AFD08BD0000E200000052
:10303000000801407800002008B50CA0006800904E
:10304000002210210A48FDF729FD4FF47A7301226E
:1030500069460848FEF780FD0120FDF70DFB0122BF
:1030600010210348FDF71AFD08BD0000E100000033
:10307000000801407800002001B584B000200390D2
:10308000002210211148FDF709FD4FF47A70012349
:1030900003AA04A900900E48FEF731FE9DF8100027
:1030A00007280AD0FF2002904FF47A70012303AA68
:1030B00002A900900648FEF722FE012210210348D3
:1030C000FDF7ECFC9DF80C0005B000BD00080140C8
:1030D0007800002037B50C461546002210210B4819
:1030E000FDF7DCFC4FF47A73012269460848FEF7CD
:1030F00033FD4FF47A732A4621460548FEF776FCE5
:10310000012210210148FDF7C9FC3EBD0008014025
:103110007800002008B510A000680090002210215F
:103120000E48FDF7BBFC4FF47A73012269460C4848
:10313000FEF712FD0120FDF79FFA732000904FF477
:103140007A73012269460648FEF706FD0122102126
:103150000248FDF7A3FC08BD500000000008014034
:103160007800002013B59DF8000040F0200000908A
:10317000002210210B48FDF791FC4FF47A730122D5
:1031800069460948FEF7E8FC4FF47A73012201A969
:103190000548FEF7E1FC012210210248FDF77EFC04
:1031A0001CBD0000000801407800002037B50C4627
:1031B00015469DF8000040F02000009000221021EC
:1031C0000C48FDF76BFC4FF47A73012269460A48FC
:1031D000FEF7C2FC0120FDF74FFA4FF47A732A463E
:1031E00021460548FEF7B8FC012210210148FDF7F1
:1031F00055FC3EBD000801407800002010B50022BB
:1032000008212548FDF74AFC41F28830FDF734FAE1
:103210000A210020FFF7A6FF41F28830FDF72CFAC3
:1032200002210120FFF79EFF02210846FFF79AFFC7
:1032300001210320FFF796FF5F210420FFF792FF93
:10324000FFF768FF00211D20FFF78CFF00211C20E5
:10325000FFF788FF70210720FFF784FF4C2105202E
:10326000FFF780FF06210846FFF77CFF03220B498A
:103270001020FFF79BFF032208490B20FFF796FF62
:1032800002211220FFF76EFFFFF79AFE0122510381
:103290000348FDF703FC10BD0008014000000020BA
:1032A0000010014002480068C0F30220704700008F
:1032B0000CED00E010B5002807DA0A07140E054AE5
:1032C00000F00F031B1FD45403E00A07130E024A39
:1032D000135410BD18ED00E000E400E0704700005A
:1032E00008B508490968C9084FF47A72B1FBF2F1D0
:1032F0004143009100BF00BF00994A1E009200297F
:10330000F9D108BD2000002010B50248FEF766FA8A
:1033100010BD000078000020F8B504460D461646A2
:103320002B46002280212046009600F013F828B199
:10333000606D40F0200060650320F8BD0020FCE7D0
:1033400070B505466C6A0020E087E0862046FEF7EF
:1033500043FA70BD2DE9F04104460E4617461D465E
:10336000DDF818803FE0681CE0B32DB1FDF79CFB51
:10337000A0EB0800A84236D32068406820F0E000A7
:10338000216848606068B0F5827F0DD1A068B0F513
:10339000004F03D0A068B0F5806F05D120680068A9
:1033A00020F0400021680860A06AB0F5005F0ED1EF
:1033B00000BF206800684DF6FF7108402168086072
:1033C0002068006840F400502168086000BF0120B8
:1033D00084F8510000BF002084F8500000BF032093
:1033E000BDE8F081FFE7206880683040B04201D13D
:1033F000012000E00020B842B5D10020F0E770477E
:1034000010B5FDF78DFDFEF7B8FD10BD10B590B0FD
:1034100001200690000407900020089001200A90E7
:1034200002200D90C1030E914FF4C0110F9106A818
:10343000FDF7B2FF18B1E32114A000F031FA0F201C
:10344000019002200290002003904FF480600490CD
:1034500000200590022101A8FDF75CFE18B1F121C2
:103460000AA000F01DFAFDF727FF4FF47A71B0FBB8
:10347000F1F42046FEF767FD0420FEF74FFD002221
:103480001146501EFDF7F3FD10B010BD2E2E2F5328
:1034900072632F6D61696E2E630000001148006831
:1034A00040F001000F490860084640680E49084096
:1034B0000C494860084600680C4908400949086002
:1034C0000846006820F4802008600846406820F420
:1034D000FE0048604FF41F008860C803044908607C
:1034E00070470000001002400000FFF8FFFFF6FEEA
:1034F00008ED00E070B505466C6A0020E085E084C8
:103500002046FEF73EFD70BD0168C96821F4907148
:103510000268D1600168496921F0010102685161C6
:10352000202180F83A10704710B504462068C06822
:1035300020F040002168C860202084F8390020462F
:10354000FEF7A6FE002010BD70B5044694F83A00C0
:1035500022284AD1A068B0F5805F13D1A56A2069FE
:1035600040B920684068C0F308002880A06A801C29
:10357000A06219E020684068C0B22880A06A401CA0
:10358000A06211E0206938B920684068C1B2A26A1F
:10359000501CA062117007E02068406800F07F01B5
:1035A000A26A501CA0621170E08D401E80B2E085BE
:1035B000C8B92068C06820F020002168C860206871
:1035C000C06820F480702168C8602068406920F0DD
:1035D000010021684861202084F83A002046FEF767
:1035E000EBFD002070BD0020FCE70220FAE70000A0
:1035F0002DE9F041044600252068006920F4405080
:10360000E1680843216808612169A068084361698D
:10361000084305432068C06841F20C618843284391
:103620002168C8602068406920F44070A16908439F
:10363000216848615F49206888425CD1FDF752FEED
:1036400000EBC00101EB001061688900B0FBF1F6EE
:10365000FDF748FE00EBC00101EB00106168890036
:10366000B0FBF1F06421B0FBF1F000EBC00101EB25
:103670000010A6EB8000322101EB00106421B0FBAA
:10368000F1F000F0F006FDF72DFE00EBC00101EBBC
:10369000001061688900B0FBF1F06421B0FBF1F02B
:1036A00006EB0016FDF71EFE00EBC00101EB00105B
:1036B00061688900B0FBF1F7FDF714FE00EBC00173
:1036C00001EB001061688900B0FBF1F06421B0FBF0
:1036D000F1F000EBC00101EB0010A7EB80003221FC
:1036E00001EB00106421B0FBF1F000F00F0030445A
:1036F000216888605BE0FDF7E5FD00EBC00101EBB0
:10370000001061688900B0FBF1F6FDF7DBFD00EB0E
:10371000C00101EB001061688900B0FBF1F0642189
:10372000B0FBF1F000EBC00101EB0010A6EB800054
:10373000322101EB00106421B0FBF1F000F0F00643
:10374000FDF7C0FD00EBC00101EB001061688900CE
:10375000B0FBF1F06421B0FBF1F006EB0016FDF7D1
:10376000B1FD00EBC00101EB001061688900B0FB06
:10377000F1F7FDF7A7FD00EBC00101EB0010616858
:103780008900B0FBF1F06421B0FBF1F000EBC00167
:1037900001EB0010A7EB8000322101EB0010642147
:1037A000B0FBF1F000F00F00304421688860BDE804
:1037B000F081000000380140014691F839002128CD
:1037C0002CD18868B0F5805F0FD10A6A1088C0F3E9
:1037D00008000B685860086918B9086A801C0862FC
:1037E00009E0086A401C086205E00B6A581C086280
:1037F00018780B685860C88C401E80B2C88458B9CD
:103800000868C06820F080000B68D8600868C0684D
:1038100040F040000B68D860002070470220FCE7B1
:103820002DE9F04104460D4617469846069E21E0D4
:10383000701CF8B12EB1FDF737F9A0EB0800B042CB
:1038400018D92068C06820F4D0702168C86020684A
:10385000406920F0010021684861202084F8390087
:1038600084F83A0000BF002084F8380000BF03202D
:10387000BDE8F081206800682840A84201D10120FD
:1038800000E00020B842D3D00020F1E710B5024894
:10389000FEF778FB10BD0000D000002000BFFEE75F
:1038A00000BFFEE70FB4084B10B504A902AA0398A5
:1038B00000F0DEF8044602A9002000F070FC20466B
:1038C00010BC5DF814FB00009F41000802E008C82E
:1038D000121F08C1002AFAD170477047002001E08A
:1038E00001C1121F002AFBD1704700002DE9FF5FC4
:1038F00082B00021DDE90430020DDDF840B0034361
:1039000018D044F61050A2F2FF3242431514119819
:1039100001281FD0A5EB0B00401C5FEA000A4FF006
:1039200000064E4FDFF83891B046504615D5CAF123
:10393000000413E0119801244AA3012801D16FEA81
:103940000B010298119AC0E90031C0E9024206B0A9
:10395000BDE8F09FCBF10000DFE704460021404ABC
:10396000491842EB0450CDE9001012E0E00707D0FF
:1039700032463B4640464946FCF7D9FC80468946DC
:1039800032463B4610461946FCF7D1FC06460F4628
:103990006410002CEAD1DDE90401DDE90023BAF16D
:1039A000000F06DAFCF7C3FC42464B46FCF7BFFCAF
:1039B00005E0FCF72EFD42464B46FCF72AFD044687
:1039C0000E460022284BFCF7ABFD03D84FF0FF302A
:1039D000014607E00022254B20463146FCF700FC5B
:1039E000FCF786FD102409E0002C0ADB0A220023E4
:1039F000FCF7C5FB039B30321A55641E50EA0102E6
:103A0000F2D1641C039AC4F111031444119A012ADF
:103A100003D0012208430DD10AE0084304D000205E
:103A20004FF0110B119072E7A3EB0B056D1E0DE02B
:103A30005B4504DD4FF0000205F1010504E003DA07
:103A40004FF00002A5F10105002AECD0029811996F
:103A5000C0E90231C0E9004579E7000000001440E8
:103A60000000F03F300000000000F0430000E03FA5
:103A70002DE9FF4F95B09B468946064600250FE28B
:103A8000252877D100242746F84A0121059400E033
:103A9000044316F8013F203B01FA03F01042F7D12E
:103AA00030782A2811D06FF02F033078A0F130023F
:103AB000092A16D8059A44F0020402EB820203EBAD
:103AC00042021044761C0590EFE759F8042B05924A
:103AD000002A03DA504244F40054059044F00204F2
:103AE000761C30782E2816D116F8010F44F0040405
:103AF0002A280DD06FF02F023078A0F13003092B67
:103B000009D807EB870302EB4303C718761CF3E7DA
:103B100059F8047B761C30786C280FD006DC4C28D2
:103B200017D068280DD06A2814D104E0742810D06A
:103B30007A280FD10DE044F400140AE044F4801414
:103B400001E044F440147278824202D104F58014FA
:103B5000761C761C307866280BD013DC582877D07A
:103B600009DC002875D04528F6D04628F4D047282F
:103B70001AD19DE118E0632835D0642879D06528F2
:103B800012D195E1702873D008DC6728F1D069283C
:103B90006FD06E280DD06F2806D1B5E073282CD0D9
:103BA000752875D0782874D05A46179990476D1C9F
:103BB00075E1C4F30250022809D003280DD0D9F8CA
:103BC000001004280DD00D6009F1040967E1D9F84F
:103BD0000010EA17C1E90052F6E7D9F800100D808D
:103BE000F2E70D70F0E719F8041B8DF800100020C3
:103BF0008DF80100EA46012003E059F804AB4FF0CC
:103C0000FF3061074FF0000102D40DE008F101011F
:103C10008846B9420FDA8045F8DB1AF80810002907
:103C2000F4D108E008F1010188468142FADB1AF874
:103C300008100029F6D105985B46A0EB080721463D
:103C40003846179A00F094FA284400EB080507E07C
:103C50004DE029E10DE01AF8010B5A4617999047FB
:103C6000B8F10108F7D25B4621463846179A13E1AE
:103C700042E00A220092C4F302524FF0000A022AE4
:103C800008D059F804CB032A4FEAEC710AD00DE0B2
:103C900029E02AE009F1070121F00702F2E802C158
:103CA000914609E00FFA8CFC4FEAEC71042A03D12B
:103CB0004FFA8CFC4FEAEC71002907DA0A46002122
:103CC000DCF1000C61EB02012D2202E0220504D59B
:103CD0002B228DF80420012203E0E20701D02022EC
:103CE000F7E7904659E00A2102E010220DE010218A
:103CF0004FF0000A00910BE010224FF0000A44F050
:103D000004040827009203E008224FF0000A009202
:103D1000C4F30252022A05D059F804CB0021032A29
:103D200008D009E009F1070121F00702F2E802C119
:103D3000914605E01FFA8CFC042A01D10CF0FF0C1F
:103D40004FF00008220728D5702806D0009B83F08A
:103D5000100353EA0A0305D00EE040228DF8042038
:103D6000012208E05CEA010206D030228DF804202E
:103D70008DF8050002229046009B83F0080353EA69
:103D80000A030AD15CEA010201D1620705D530229B
:103D90008DF804204FF001087F1E582804D034A06D
:103DA00003900EA802900DE036A0F9E75346604656
:103DB000009AFCF7E4F984460398825C0298401E5E
:103DC000029002705CEA0100F0D1029806A9081A7C
:103DD00000F1200A600702D524F4803400E00127B6
:103DE000574502DDA7EB0A0000E0002000EB0A01C6
:103DF000009005984144401A0590E00306D45B46C4
:103E00002146179A059800F0B3F90544002706E00B
:103E100001A85A46C05D179990476D1C7F1C474505
:103E2000F6DBE0030CD55B462146179A059800F0B7
:103E30009FF9054404E030205A46179990476D1CBD
:103E40000099481E00900029F5DC08E002980299CC
:103E50005A460078491C0291179990476D1CBAF197
:103E60000001AAF1010AF1DC65E100000928010066
:103E700030313233343536373839616263646566E0
:103E800000000000303132333435363738394142A2
:103E9000434445460000000000F058F90544761CF4
:103EA000307800287FF4ECAD19B02846BDE8F08FDB
:103EB000620700D4062709F1070222F0070CFCE88C
:103EC0000223E14603F000485FEA080C02D00FF23B
:103ED000702C0DE05FEA045C02D50FF2682C07E05D
:103EE0005FEAC47C02D00FF2602C01E0AFF2700CEC
:103EF0004FF0FF3823F00043CDF850C065280CD0B8
:103F000006DC452809D046281DD047283DD13DE094
:103F1000662818D067287ED138E00021112F01DBF8
:103F2000112000E0781CCDE9000106A90EA8FFF7DA
:103F3000DDFCDDE90F010E9A03910021009207F1EB
:103F4000010A04914DE04FF000400097CDE90110C7
:103F500006A90EA8FFF7CAFCDDE90F0203920E9B2B
:103F600011990022DDF80CA00093049211B9791C7C
:103F700000EB010AB7EB0A0004D4C0F1FF3007F1EF
:103F8000010A0490AAEB0700019044E0012F00DA37
:103F900001270021112F01DD112000E03846CDE975
:103FA000000106A90EA8FFF7A1FCDDE90F010E9A9A
:103FB0000391002104910092BA4621070CD4039981
:103FC000514500DA8A46BAF1010F05DD009AAAF1DF
:103FD0000101515C302908D0B84202DA10F1040F17
:103FE00006DA0121CDE9011015E0AAF10101E9E7A6
:103FF000002805DC049901440491AAEB000102E0C9
:10400000411C514500DD8A460499401A401C01902C
:104010004FF000400290200704D40198504501DB86
:10402000CDF8048000208DF84F0002980DF14F0765
:10403000B0F1004F25D02B200E9002984FF00208CF
:1040400000280CDA404202902D200E9007E00A2151
:104050000298FCF77EF83031029007F8011DB8F1A4
:104060000001A8F10108F2DC02980028EFD1791EC6
:104070000E980870307800F0200040F0450007F8F6
:10408000020D12A8C01B00F107081498007800B1B7
:10409000012000EB0A01019801EBE0710598414411
:1040A000401A401E0590E00306D45B462146179A4D
:1040B000059800F05DF805441498007818B15A4648
:1040C000179990476D1CE00324D55B462146179A4B
:1040D000059800F04DF805441CE00498002807DB23
:1040E000DDE90301884203DD0098405C179901E097
:1040F000179930205A469047049805F10105401C55
:1041000004900198401E019004D12E205A46179920
:1041100090476D1CBAF10001AAF1010ADDDC05E04F
:1041200017F8010B5A46179990476D1CB8F100011A
:10413000A8F10108F4DC5B462146179A0598ABE626
:104140002D0000002B000000200000002DE9F041B0
:10415000044600251E461746880404D405E0394667
:104160002020B0476D1C641EF9D52846BDE8F081BB
:104170002DE9F041044600251E469046C80301D5AE
:10418000302700E02027880404D505E04146384662
:10419000B0476D1C641EF9D52846BDE8F0810A6859
:1041A000531C0B601070704708B5FCF7C5FEFFF795
:1041B0002DF9FEF717FEFEF7ABFEFEF7D7FEFEF772
:1041C0007DFEFFF71BF8A5E04FF47A70FCF7C4FA08
:1041D0000020FEF751FF50490870084602784FA1B1
:1041E0005348FFF75FFB5248FBF7ACFF84B24FF434
:1041F000805322464E494F48FDF7DFFF0120FEF76E
:104200003BFF45490870084602784BA14848FFF734
:1042100049FB4748FBF796FF84B24FF48053224690
:1042200043494448FDF7C9FF0220FEF725FF3A49FC
:1042300008700846027845A13D48FFF733FB3C482B
:10424000FBF780FF84B24FF4805322463849394847
:10425000FDF7B3FF0720FEF70FFF2F490870084650
:10426000027840A13248FFF71DFB3148FBF76AFF97
:1042700084B24FF4805322462D492E48FDF79DFF0E
:104280000620FEF7F9FE24490870084602783AA194
:104290002748FFF707FB2648FBF754FF84B24FF48B
:1042A0008053224622492348FDF787FF03223749DE
:1042B0001020FEF70FFF3548807800903348437890
:1042C000027833A11A48FFF7EDFA1948FBF73AFFD5
:1042D00084B24FF48053224615491648FDF76DFF0E
:1042E00003222A490B20FEF7F5FE2848807800902B
:1042F0002648437802782FA10D48FFF7D3FA0C48DF
:10430000FBF720FF84B24FF4805322460849094846
:10431000FDF753FF58E7000008000020434F4E46CA
:1043200049473A20307825303258200A0D000000E5
:1043300010010020D0000020454E5F41413A20305E
:104340007825303258200A0D00000000454E5F529B
:1043500058414444523A20307825303258200A0DD2
:10436000000000005354415455533A203078253012
:104370003258200A0D00000052465F5345545550F4
:104380003A20307825303258200A0D0024010020D0
:1043900054585F414444523A203078253032582CEA
:1043A000203078253032582C203078253032582073
:1043B0000A0D000052585F414444523A203078259B
:1043C0003032582C203078253032582C2030782547
:1043D000303258200A0D00000000000000000000EC
:1043E000010203040607080900000000010203049B
:1043F000104400080000002024000000CC38000811
:10440000344400082400002014050000DC380008B3
:10441000B3B4010000000000000000000000000034
:10442000000000000000000010000000010000007B
:0444300000A24A0498
:04000005080000ED02
:00000001FF
