:020000040800F2
:10000000A009002001010008113B0008232B000873
:100010000D3B00089D080008E946000800000000AC
:10002000000000000000000000000000F740000891
:10003000A108000800000000A53F0008F9400008E2
:100040001B0100081B0100081B0100081B01000820
:100050001B0100081B0100081B0100081B01000810
:100060001B0100081B0100081B0100081B01000800
:100070001B0100081B0100081B0100081B010008F0
:100080001B0100081B0100081B0100081B010008E0
:100090001B0100081B0100081B0100081B010008D0
:1000A0001B0100081B0100081B0100081B010008C0
:1000B000F14100081B0100081B0100081B0100089A
:1000C0001B0100081B0100081B010008014000087B
:1000D0001B010008D94600081B0100081B0100088D
:1000E0001B0100081B0100081B010008DFF80CD0F1
:1000F00000F0C2FB00480047FD5A0008A00900209C
:100100000648804706480047FEE7FEE7FEE7FEE7B1
:10011000FEE7FEE7FEE7FEE7FEE7FEE7994100089F
:10012000ED000008202A04DB203A21FA02F0002129
:10013000704721FA02F3D040C2F1200291400843F7
:1001400019467047D2B201E000F8012B491EFBD2DC
:1001500070470022F6E710B513460A4604461946D2
:10016000FFF7F0FF204610BD421C10F8011B0029CC
:10017000FBD1801A704730B480EA010202F00045DA
:1001800030F0004221F0004013D090B1C30DD40DE7
:10019000C2F31601C0F31600E41A41F4000140F462
:1001A00000027D34914201D3641C00E04900002C20
:1001B00002DA30BC002070474FF400000023914267
:1001C00001D3891A034340084FEA4101F7D151B1E5
:1001D000914202D14FF0004105E002D24FF00101FF
:1001E00001E06FF0010103EBC450284430BC00F083
:1001F00097BA2DE9FE4F804681EA0300C00F0C46F6
:10020000009021F0004123F00045B8EB0200A94125
:1002100005D24046214690461C460B46024623F036
:100220000040104347D0270DC7F30A00C3F30A511B
:100230000290401A019040286BDAC3F3130040F497
:10024000801B0098924620B10023D2EB030A63EB97
:100250000B0B01985946C0F14002504600F03FFA9E
:1002600006460D4650465946019A00F047FA10EBF3
:1002700008006141002487EA115284EAE7731A43B7
:1002800040D0009A62B3019A012A4FEA075215DC66
:10029000001B61EB02014FF0004202EA0752CDE978
:1002A0000042001C41F5801132462B4600F07EFAD8
:1002B00003B0BDE8F08F40462146F9E7001B61EB33
:1002C0000201001C41F5801300185B412018A2F5C3
:1002D000001747EB030140EAD570B6196D4111E0F4
:1002E0006D084FEA360645EAC0754FEA0752001B13
:1002F00061EB0201001C41F5801149084FEA300012
:100300000019514132462B4603B0BDE8F04F00F0D2
:100310003EBA0098012240000023D0EB020263EBBA
:10032000E073009821464FEAE074B8EB000061EBFF
:100330000401E9E783F000435BE781F0004158E7FF
:100340002DE9FE4F81EA030404F0004421F000414E
:1003500000944FF0000B23F0004350EA01045ED0FC
:1003600052EA03045BD0C3F30A54C1F30A552C4488
:10037000A4F2F3340194A0FB0254C1F3130141F43D
:100380008011C3F3130343F4801301FB024400FB09
:10039000034E840A970A44EA815447EA8357A4FB30
:1003A000076802958D0A05FB07854FEA932C04FB2D
:1003B0000C542705029D4FEA065847EA1637B5EB5D
:1003C00008056EEB070C870E920E47EA811742EA8A
:1003D0008312A7FB0201B6EB0B0164EB00042B0DAB
:1003E00043EA0C335E1844EB1C50DA465146E7FBF7
:1003F0000201C5F313044FEA0B3343EA14534FEAE7
:100400000432019C43EA0603A4F10C040294009C0C
:10041000CDE900B400F0CAF903B0BDE8F08F0020C8
:100420000146F9E72DE9F04D81EA030404F0004BA1
:1004300021F0004514464FF0000A23F0004150EA35
:10044000050220D054EA01021DD0C5F30A57024626
:10045000C5F31303C1F31300C1F30A5640F480152A
:1004600043F48013A7EB0608101BD64608F2FD38AC
:1004700073EB050002D308F1010801E092185B411B
:10048000B8F1000F03DA00200146BDE8F08D00202E
:100490004FF48011064684460EE0171B73EB0507E8
:1004A00005D3121B63EB050306434CEA010C490814
:1004B0004FEA300092185B4150EA0107EDD152EA51
:1004C000030012D082EA040083EA0501084305D044
:1004D000101BAB4106D20122002306E000224FF0A0
:1004E000004302E06FF0010253101AEB06004CEBE0
:1004F000085110EB0A0041EB0B01BDE8F04D00F094
:1005000046B9C10F80EAE0700844CA07962300216B
:1005100000F00FB996230022114600F00AB90EB57B
:10052000C10F80EAE0700844CA07002140F233435B
:100530008DE80E000A460B4600F038F903B000BD06
:100540000EB540F2334102910021CDE900110A4677
:100550000B4600F02BF903B000BD70B5C1F30A5291
:1005600001F000450024C1F3130140F2FF3341F4D0
:1005700080119A4201DA002070BD40F233439A4262
:10058000A2F2334203DC5242FFF7CCFD00E0904080
:100590002C43F1D0404270BDC1F30A5210B5C1F3F3
:1005A000130140F2FF3341F480119A4201DA002036
:1005B00010BD40F233439A42A2F2334203DC52426E
:1005C000FFF7B0FD10BD904010BD00F0004230F0CC
:1005D00000400AD0C10D01F56071C0F3160042EA77
:1005E0000151C2084007114370470020014670477F
:1005F00030B5041E71F1000404DB4FF000444042AA
:1006000064EB0101141E73F1000405DB1C464FF07E
:100610000043524263EB04038B4208BF824230BD69
:1006200030B5041E71F1000404DB4FF00044404279
:1006300064EB0101141E73F1000405DB1C464FF04E
:100640000043524263EB0403994208BF904230BD1D
:1006500030B50B46014600202022012409E021FA92
:1006600002F59D4205D303FA02F5491B04FA02F58F
:100670002844151EA2F10102F1DC30BD2DE9F05F26
:100680000546002092469B46884606468146402401
:100690001BE02846414647462246FFF743FD5346A6
:1006A0005A46C01A914110D311461846224600F00E
:1006B00016F82D1A67EB01084F462246012000214B
:1006C00000F00DF817EB00094E41201EA4F10104C3
:1006D000DFDC484631462A464346BDE8F09F202AE3
:1006E00004DB203A00FA02F1002070479140C2F189
:1006F000200320FA03F3194390407047202A06DBB9
:10070000CB17203A41FA02F043EAE07306E041FADF
:1007100002F3D040C2F120029140084319467047CD
:100720000029A8BF7047401C490008BF20F0010005
:10073000704710B4B0FA80FC00FA0CF050EA0104E3
:1007400004BF10BC704749B1CCF1200421FA04F475
:1007500011FA0CF118BF012121430843A3EB0C014E
:10076000CB1D4FEA00614FEA102042BF002010BCB1
:10077000704700EBC35010440029A4BF10BC704761
:10078000401C490008BF20F0010010BC704710B5A4
:10079000141E73F1000408DA401C41F100019218A4
:1007A0005B411A4301D120F0010010BD2DE9F04D4D
:1007B00092469B4611B1B1FA81F202E0B0FA80F2A2
:1007C00020329046FFF78BFF04460F4640EA0A00AE
:1007D00041EA0B0153465A46084313D0114653EAE7
:1007E000010019D0C8F140025046FFF79BFC0546B6
:1007F0000E46504659464246FFF771FF084305D062
:10080000012004E020463946BDE8F08D0020054374
:1008100046EAE0762C4337430A986305E40AA0EBE6
:1008200008000022FD0A44EA47540A3002D500209D
:100830000146E9E7010510196941DDE9084500199C
:100840006941BDE8F04DA2E7C1F30A52C1F31301BB
:1008500040F2FF3341F480119A4202DA002001464F
:10086000704740F233439A42A2F2334202DC5242D2
:10087000FFF758BCFFF733BF064C074D06E0E068B2
:1008800040F0010394E8070098471034AC42F6D3D7
:10089000FFF730FC8C730008AC73000800BFFEE764
:1008A0007047000001B5094800680949B0FBF1F044
:1008B0000921B0FBF1F000994843009000BF009877
:1008C000411E00910028FAD108BD0000C40000209C
:1008D00040420F0070B50446002594F8210002281C
:1008E00003D00420A063012548E02068006820F0C0
:1008F0000E00216808602068006820F0010021686F
:1009000008601F492068884201D1012026E01C4967
:1009100014312068884201D110201FE01849283185
:100920002068884201D1801518E015493C312068C3
:10093000884201D1801411E0114950312068884269
:1009400002D14FF4803009E00D49643120688842BB
:1009500002D14FF4801001E04FF08070084908394F
:100960004860012084F8210000BF002084F82000A6
:1009700000BF606B10B12046616B8847284670BD90
:100980000800024070B5044600F0ACF90646254662
:10099000681C10B104480078054400BF00F0A2F9BB
:1009A000801BA842FAD370BDC00000202DE9F84793
:1009B00003460024002000258446002700226EE123
:1009C0004FF0010808FA02F4D1F8008008EA0400A8
:1009D000A0427DD1DFF8D0A2D1F80480A8EB0A09AB
:1009E000D0453AD014DCB8F1030F50D009DCB8F18F
:1009F000000F31D0B8F1010F1CD0B8F1020F49D16E
:100A000020E0B8F1110F18D0B8F1120F42D11EE05A
:100A1000B9F5881F25D006DCB9F5803F20D0B9F59F
:100A2000801F37D11AE0B9F5001F18D0B9F5041F9F
:100A300030D117E0D1F80CC02DE0D1F80C8008F1CE
:100A4000040C28E0D1F80C8008F1080C23E0D1F860
:100A50000C8008F10C0C1EE000BF00BF00BF00BFFF
:100A600000BF00BFD1F80880B8F1000F02D14FF0ED
:100A7000040C0BE0D1F80880B8F1010F03D14FF05E
:100A8000080C1C6102E04FF0080C5C6103E04FF0C1
:100A9000000C00E000BF00BFFF2801D8984601E02D
:100AA00003F104084646FF2802D84FEA820803E013
:100AB000A2F108084FEA88084746D6F800804FF0B0
:100AC0000F0909FA07F928EA09080CFA07F900E002
:100AD00088E048EA0908C6F80080D1F8048008F0E8
:100AE0008058B8F1805F7DD100BFDFF8C081D8F8B1
:100AF000188048F00108DFF8B491C9F81880C8469A
:100B0000D8F8188008F00108CDF8008000BF00BFB9
:100B10004FEAB9384FEA920958F829504FEA8278DB
:100B20004FEA18794FF00F0808FA09F825EA080586
:100B3000DFF87C81434502D14FF0000816E0DFF872
:100B40007481434502D14FF001080FE0DFF868815E
:100B5000434502D14FF0020808E0DFF860814345C9
:100B600002D14FF0030801E04FF004084FEA827908
:100B70004FEA197908FA09F848EA0505DFF84081D3
:100B80004FEA920948F82950D1F8048008F48038D7
:100B9000B8F5803F0AD1DFF82C81D8F8008048EA08
:100BA0000008DFF82091C9F8008009E0DFF814811F
:100BB000D8F8008028EA0008DFF80891C9F800801A
:100BC000D1F8048008F40038B8F5003F10D1DFF800
:100BD000F48008F10408D8F8008048EA0008DFF83B
:100BE000E49000E05AE009F10409C9F800800DE042
:100BF000DFF8D08008F10408D8F8008028EA00085F
:100C0000DFF8C09009F10409C9F80080D1F8048028
:100C100008F48018B8F5801F0ED1DFF8A88008F11D
:100C20000808D8F8008048EA0008DFF8989009F131
:100C30000809C9F800800DE0DFF8888008F108088D
:100C4000D8F8008028EA0008DFF8789009F1080950
:100C5000C9F80080D1F8048008F40018B8F5001F26
:100C60000ED1DFF8608008F10C08D8F8008048EA5F
:100C70000008DFF8509009F10C09C9F800800DE078
:100C8000DFF8408008F10C08D8F8008028EA000856
:100C9000DFF8309009F10C09C9F80080521C102AC5
:100CA000FFF48EAEBDE8F88700001110001002407E
:100CB00000080140000C01400010014000140140F8
:100CC0000800014000040140024693680B400BB14C
:100CD000012000E0002070470AB1016101E00B042F
:100CE000036170470148006870470000B8000020A9
:100CF00070B50446002600250CB9012070BD94F89B
:100D00003D0028B9002084F83C00204600F016FB86
:100D1000242084F83D002068006820F0010021684C
:100D2000086000F005FD05464C496068884206D819
:100D30004B48854201D2012007E0002005E04948E8
:100D4000854201D2012000E00020012800D1D5E732
:100D50004548B5FBF0F62068466040496068884227
:100D600001D8701C07E04FF4967070434FF47A710D
:100D7000B0FBF1F0401C2168086238496068884285
:100D800014D8681E61684900B0FBF1F0401CC0F344
:100D90000B00042801D204203DE0681E6168490070
:100DA000B0FBF1F0401CC0F30B0034E0A06838B990
:100DB000681E616801EB4101B0FBF1F0401C0AE0E4
:100DC000681E616801EBC10202EB0111B0FBF1F09A
:100DD000401C40F48040C0F30B0008B901201AE029
:100DE000A06848B9681E616801EB4101B0FBF1F0F1
:100DF000401CC0F30B000CE0681E616801EBC102EF
:100E000002EB0111B0FBF1F0401CC0F30B0040F409
:100E1000804040F400402168C861D4E907010843DC
:100E200021680860D4E90310084321688860D4E988
:100E3000050108432168C8602068006840F001008F
:100E40002168086000202064202084F83D000020F4
:100E5000206384F83E0000BF50E70000A086010038
:100E600080841E0000093D0040420F002DE9FC5F18
:100E700004460F4690469946DDE90CAB0E9E0025D0
:100E8000FFF730FF054694F83D0020287ED1192356
:100E90000122C5492046009501F0A7FF10B10220AC
:100EA000BDE8FC9F00BF94F83C00012801D102205E
:100EB000F6E7012084F83C0000BF2068006800F0DD
:100EC000010028B92068006840F00100216808602E
:100ED0002068006820F4006021680860222084F8FF
:100EE0003D00402084F83E0000202064C4F824A087
:100EF000A4F82AB0AD48E062608D20854B4642469A
:100F000039462046CDE9006501F028FE80B1206C0D
:100F1000042806D100BF002084F83C0000BF012057
:100F2000BEE700BF002084F83C0000BF0320B7E705
:100F3000208D88B900BF0020019020684069019091
:100F400020688069019000BF00BF2068006840F4FD
:100F50000070216808604CE0208D01281BD12068BA
:100F6000006820F480602168086072B600BF00202D
:100F7000019020684069019020688069019000BF5D
:100F800000BF2068006840F4007000E009E12168BB
:100F9000086062B62DE0208D022819D12068006813
:100FA00040F400602168086072B600BF0020019024
:100FB00020684069019020688069019000BF00BFEF
:100FC0002068006820F480602168086062B610E044
:100FD0002068006840F480602168086000BF00203D
:100FE000019020684069019020688069019000BFED
:100FF00000BFC7E0208D032875D8208D01281AD1A5
:101000002A463146204601F084FF30B1206C20286A
:1010100001D1032044E7012042E720680069C1B202
:10102000626A501C60621170208D401E2085608DA8
:10103000401E6085A6E0208D02282CD13346002278
:101040005B492046009501F0D0FE08B1032027E758
:1010500072B62068006840F400702168086020685B
:101060000069C1B2626A501C60621170208D401E1E
:101070002085608D401E608562B620680069C1B21F
:10108000626A501C60621170208D401E2085608D48
:10109000401E608576E03346002245492046009593
:1010A00001F0A3FE08B10320FAE62068006820F4EE
:1010B00080602168086072B620680069C1B2626A07
:1010C000501C60621170208D401E2085608D401E76
:1010D00060853346002236492046009501F085FEA2
:1010E00010B10320DCE621E02068006840F40070C5
:1010F0002168086020680069C1B2626A501C6062A1
:101100001170208D401E2085608D401E608562B666
:1011100020680069C1B2626A501C60621170208D43
:10112000401E2085608D401E60852BE02A4631469A
:10113000204601F0EEFE30B1206C202801D10320C2
:10114000AEE60120ACE620680069C1B2626A501CBC
:1011500060621170208D401E2085608D401E60856C
:1011600020684069C0F3800060B120680069C1B2A6
:10117000626A501C60621170208D401E2085608D57
:10118000401E6085208D00287FF434AF202084F835
:101190003D00002084F83E0000BF84F83C0000BF02
:1011A0007EE602207CE60000020010000000FFFF47
:1011B000040001002DE9FC5F04460F469046994665
:1011C000DDE90CAB0E9E0025FFF78CFD054694F87B
:1011D0003D0020287ED11923012256492046009542
:1011E00001F003FE10B10220BDE8FC9F00BF94F89F
:1011F0003C00012801D10220F6E7012084F83C00E0
:1012000000BF2068006800F0010028B9206800686D
:1012100040F00100216808602068006820F4006048
:1012200021680860212084F83D00402084F83E00B9
:1012300000202064C4F824A0A4F82AB03E48E0624C
:10124000608D20854B46424639462046CDE90065F3
:1012500001F030FD80B1206C042806D100BF0020D1
:1012600084F83C0000BF0120BEE700BF002084F8E6
:101270003C0000BF0320B7E733E02A463146204652
:1012800001F07EFE60B1206C042807D12068006860
:1012900040F40070216808600120A5E70320A3E75F
:1012A000616A481C6062087821680861208D401ED0
:1012B0002085608D401E608520684069C0F38000F5
:1012C00078B1208D68B1616A481C60620878216835
:1012D000086100E02CE0208D401E2085608D401EBE
:1012E0006085208D0028C8D12A463146204601F06D
:1012F00051FD60B1206C042807D12068006840F4DB
:1013000000702168086001206EE703206CE7206808
:10131000006840F4007021680860202084F83D00D7
:10132000002084F83E0000BF84F83C0000BF5BE76B
:10133000022059E7020010000000FFFF10B586B040
:1013400004460F492068884217D1C020029012201D
:1013500003900320059002A90A48FFF727FB00BF6E
:101360000948C06940F400100749C8610846C069CF
:1013700000F40010019000BF00BF06B010BD0000D7
:1013800000540040000C0140001002400348006877
:10139000034909780844014908607047B8000020F3
:1013A000C000002010B50848006840F01000064951
:1013B0000860032000F0D0F8002000F007F800F0EB
:1013C0002BF8002010BD00000020024070B504463C
:1013D0000E4800784FF47A71B1FBF0F00C490968BF
:1013E000B1FBF0F5284601F010F808B1012070BDFE
:1013F000102C07D200222146501E00F06EF805483E
:10140000046001E00120F2E70020F0E7C0000020C6
:10141000C4000020BC00002008B500BF2648806939
:1014200040F00100244988610846806900F001000D
:10143000009000BF00BF00BF0846C06940F0805068
:10144000C8610846C06900F08050009000BF00BF2E
:10145000032000F081F8002211466FF00B0000F02D
:101460003CF8002211466FF00A0000F036F8002226
:1014700011466FF0090000F030F800221146501FAD
:1014800000F02BF800221146101F00F026F8002271
:101490001146901E00F021F800221146501E00F067
:1014A0001CF800BF0549486820F0E06040F000707B
:1014B000486000BF08BD000000100240000001406D
:1014C00000BF00F01F02012191404209920002F189
:1014D000E022C2F8001100BF70472DE9F05F80469E
:1014E0000D461646002702F041FD074639462A46BA
:1014F000334601F00700C0F1070ABAF1040F02D920
:101500004FF0040A01E0C0F1070AD14600F1040AD5
:10151000BAF1070F02D24FF0000A01E0A0F1030A6E
:10152000D4464FF0010A0AFA09FAAAF1010A0AEAB6
:10153000020A0AFA0CFA4FF0010B0BFA0CFBABF1A2
:10154000010B0BEA030B4AEA0B042146404602F06A
:1015500015FDBDE8F09F000000BF00F00702064B3C
:1015600019684FF6FF031940044B0B4343EA02216D
:10157000014B196000BF70470CED00E00000FA0558
:1015800070B504460D4600266248006800F007006A
:10159000A8420ED25F48006820F0070028435D494A
:1015A00008600846006800F00700A84201D001204A
:1015B00070BD207800F00200022807D1564840682C
:1015C00020F0F000A168084353494860207800F0FB
:1015D000010000285DD06068012806D14E480068EF
:1015E00000F4003090B90120E2E76068022806D1DB
:1015F0004948006800F0007040B90120D8E746482B
:10160000006800F0020008B90120D1E742484068B4
:1016100020F00300616808433F494860FFF762FB20
:1016200006466068012810D108E0FFF75BFB801BCD
:1016300041F28831884201D90320B9E73648406831
:1016400000F00C000428F0D123E06068022810D1DB
:1016500008E0FFF747FB801B41F28831884201D93F
:101660000320A5E72C48406800F00C000828F0D1C2
:101670000FE008E0FFF736FB801B41F2883188421B
:1016800001D9032094E72448406800F00C000028AA
:10169000F0D12048006800F00700A8420ED91D488C
:1016A000006820F0070028431A49086008460068CF
:1016B00000F00700A84201D0012079E7207800F06F
:1016C0000400042807D11448406820F4E060E16871
:1016D000084311494860207800F00800082808D124
:1016E0000D48406820F46050216940EAC1000A4971
:1016F000486000F03DF808494968C1F30311074A02
:10170000515CC840064908600020FFF75FFE0020DA
:101710004EE70000002002400010024074730008F1
:10172000C40000200148006870470000C400002089
:1017300000B5FFF7F7FF04494968C1F30221034AE6
:10174000515CC84000BD00000010024084730008D6
:1017500000B5FFF7E7FF04494968C1F3C221034A16
:10176000515CC84000BD00000010024084730008B6
:10177000F0B585B00FF26C0C9CE8E01001A8A0E871
:10178000E0101CA52D6800950021002200230024F4
:101790000020194D696801F00C05F5B1042D02D047
:1017A000082D19D101E0154819E001ADC1F38346B8
:1017B000AC5D01F4803555B10F4D6D68C5F3404502
:1017C0001DF805200D4D6543B5FBF2F302E00C4D0D
:1017D00004FB05F3184602E000BF084800BF00BF45
:1017E00005B0F0BD02030405060708090A0B0C0D3D
:1017F0000E0F1010010200000010024000127A00CB
:1018000000093D00F8B504460025207800F00100ED
:10181000002878D0F848406800F00C0004280CD06C
:10182000F548406800F00C00082811D1F2484068E3
:1018300000F48030B0F5803F0AD1EF48006800F432
:10184000003000285FD0606800285CD10120F8BD1E
:1018500000BF6068B0F5803F06D1E748006840F4FB
:101860008030E549086028E0606858B9E2480068BF
:1018700020F48030E04908600846006820F48020A9
:1018800008601AE06068B0F5A02F0BD1DA48006854
:1018900040F48020D84908600846006840F4803051
:1018A00008600AE0D448006820F48030D24908601B
:1018B0000846006820F48020086000BF606888B196
:1018C000FFF710FA054606E0FFF70CFA401B642804
:1018D00001D90320BBE7C848006800F400300028A5
:1018E000F2D010E0FFF7FEF9054606E0FFF7FAF93F
:1018F000401B642801D90320A9E7BF48006800F411
:1019000000300028F2D1207800F00200022857D1E0
:10191000B948406800F00C0050B1B748406800F08A
:101920000C00082818D1B448406800F4803098B9F9
:10193000B148006800F0020020B12069012801D000
:10194000012084E7AC48006820F0F800616940EAB3
:10195000C100A949086033E02069E8B10120A74926
:101960000860FFF7BFF9054606E0FFF7BBF9401B2B
:10197000022801D903206AE79F48006800F00200AE
:101980000028F2D09C48006820F0F800616940EA25
:10199000C1009949086013E0002098490860FFF7EA
:1019A000A1F9054606E0FFF79DF9401B022801D981
:1019B00003204CE79048006800F002000028F2D1B4
:1019C000207800F0080008282DD1A069B8B10120C6
:1019D0008B490860FFF786F9054606E0FFF782F9B4
:1019E000401B022801D9032031E78348406A00F0F8
:1019F00002000028F2D0012002F0D6FA13E0002005
:101A00007F490860FFF76EF9054606E0FFF76AF9BF
:101A1000401B022801D9032019E77748406A00F0EB
:101A200002000028F2D1207800F00400042873D1CD
:101A300000267148C06900F0805070B900BF6E4840
:101A4000C06940F080506C49C8610846C06900F028
:101A50008050009000BF00BF01266A48006800F473
:101A60008070B0B96748006840F4807065490860CC
:101A7000FFF738F9054606E0FFF734F9401B642804
:101A800001D90320E3E65F48006800F48070002875
:101A9000F2D000BFE068012806D15748006A40F044
:101AA00001005549086227E0E06858B95248006AC9
:101AB00020F00100504908620846006A20F0040046
:101AC000086219E0E06805280BD14B48006A40F035
:101AD0000400494908620846006A40F001000862B3
:101AE0000AE04548006A20F00100434908620846C0
:101AF000006A20F00400086200BFE068A0B1FFF7B0
:101B0000F1F8054609E0FFF7EDF8401B41F2883196
:101B1000884202D903209AE622E03748006A00F0A2
:101B200002000028EFD012E0FFF7DCF8054608E0DD
:101B3000FFF7D8F8401B41F28831884201D90320D1
:101B400085E62D48006A00F002000028F0D1012E41
:101B500005D12948C06920F080502749C86100BFDD
:101B6000E069C8B32448406800F00C00082860D041
:101B7000E069022848D1002020490866FFF7B2F842
:101B8000054606E0FFF7AEF8401B022801D9032006
:101B90005DE61948006800F000700028F2D1206A64
:101BA000B0F5803F07D11448406820F40030A168A8
:101BB000084311494860D4E9080108430E494968BF
:101BC00021F4741108430C49486001200B49086650
:101BD000FFF788F8054607E02DE0FFF783F8401B84
:101BE000022801D9032032E60348006800F00070A3
:101BF0000028F2D01FE00000001002400000424226
:101C0000800442420070004000200C490866FFF743
:101C100069F8054606E0FFF765F8401B022801D980
:101C2000032014E60648006800F000700028F2D196
:101C300001E001200BE6002009E60000000042421E
:101C40000010024070470000F8B50446206846685E
:101C50002068856805F0400048B905F0010030B102
:101C600006F0400018B12046216C8847F8BD05F009
:101C7000020030B106F0800018B12046616C884740
:101C8000F4E705F06000002866D006F02000002888
:101C900062D005F04000F0B194F8510003280ED056
:101CA000606D40F00400606500BF00200090206877
:101CB000C068009020688068009000BF0BE000BF03
:101CC000002000902068C068009020688068009024
:101CD00000BF00BFCAE705F0200088B1606D40F08A
:101CE0000100606500BF00200090206880680090BF
:101CF0002068006820F040002168086000BF00BF35
:101D0000606D20B32068406820F0E00021684860E2
:101D1000012084F8510006F0020010B906F001001D
:101D2000B0B12068406820F0030021684860E06C92
:101D300028B10A48E16C4863E06CFEF7CBFDA06C6B
:101D400028B10648A16C4863A06CFEF7C3FD02E011
:101D50002046FFF777FF89E700BF87E73940000893
:101D600010B504460CB9012010BD0021A16294F801
:101D7000510010B9204600F037F8022084F85100D5
:101D80002068006820F0400021680860D4E9010163
:101D90000843E16808432169084361690843218BCE
:101DA00001F400710843E1690843216A0843A16A0C
:101DB0000843216808600421A06901EA1040616AB3
:101DC0000843216848602168E06A08612068C069AA
:101DD00020F400602168C86100206065012084F85B
:101DE00051000020C0E7000010B586B004462B4922
:101DF0002068884229D100BF2948806940F480507A
:101E0000274988610846806900F48050019000BF2E
:101E100000BFA0200290022003900320059002A999
:101E20002048FEF7C3FD402002900020039004905C
:101E300002A91C48FEF7BAFD002211462320FFF735
:101E40004CFB2320FFF73CFB26E017492068884223
:101E500022D100BF1248C06940F480401049C861D7
:101E60000846C06900F48040019000BF00BF4FF4F5
:101E700020400290022003900320059002A90B4805
:101E8000FEF794FD4FF480400290002003900490F0
:101E900002A90648FEF78AFD06B010BD00300140D9
:101EA000001002400008014000380040000C0140D2
:101EB0002DE9F84304460D4617461E464FF000082C
:101EC000C1466068B0F5827F0DD1A06858B9042082
:101ED00084F851003B462A4629462046009600F0E9
:101EE00070F9BDE8F88300BF94F85000012801D1D3
:101EF0000220F6E7012084F8500000BFFEF7F2FE52
:101F0000804694F85100012802D04FF002097BE08E
:101F100005B117B94FF0010976E0042084F85100AB
:101F200000206065A563A787E7872063A086E08619
:101F300020646064A068B0F5004F05D12068006897
:101F400020F48040216808602068006800F04000AC
:101F5000402805D02068006840F0400021680860F3
:101F6000E068E8B918E02068806800F0010038B146
:101F70002068007B28706D1CE08F401EE0870BE01E
:101F80003EB1701C40B1FEF7ADFEA0EB0800B042C0
:101F900002D34FF0030937E0E08F0028E3D11CE0C3
:101FA00018E02068806800F0010038B12068C0683F
:101FB0002880AD1CE08F401EE0870BE03EB1701C16
:101FC00040B1FEF78FFEA0EB0800B04202D34FF005
:101FD000030919E0E08F0028E3D16068B0F5827F43
:101FE0000DD1A068B0F5004F03D0A068B0F5806FA8
:101FF00005D12068006820F0400021680860606D0D
:1020000008B14FF0010900BF012084F8510000BF62
:10201000002084F8500000BF484662E72DE9F843ED
:1020200004460D4617461E464FF00008C14600BF45
:1020300094F85000012802D10220BDE8F883012065
:1020400084F8500000BFFEF74DFE804694F8510022
:10205000012802D04FF00209A9E005B117B94FF0ED
:102060000109A4E0032084F8510000206065256385
:10207000A786E786A063A087E08760642064A068E5
:10208000B0F5004F05D12068006840F48040216819
:1020900008602068006800F04000402805D02068F3
:1020A000006840F0400021680860E068B0F5006F0B
:1020B0002AD1606810B1E08E012806D128882168F5
:1020C000C860AD1CE08E401EE08619E02068806884
:1020D00000F00200022807D128882168C860AD1CE2
:1020E000E08E401EE0860BE03EB1701C40B1FEF772
:1020F000F9FDA0EB0800B04202D34FF0030956E00F
:10210000E08E0028E2D129E0606810B1E08E01285D
:1021100006D12878216808736D1CE08E401EE08689
:1021200019E02068806800F00200022807D12878B2
:10213000216808736D1CE08E401EE0860BE03EB106
:10214000701C40B1FEF7CEFDA0EB0800B04202D3F8
:102150004FF003092BE0E08E0028E2D13346012244
:1021600002212046CDF8008001F070FF10B14FF041
:1021700003091CE042463146204601F049FF20B1E8
:102180004FF001092020606511E0A06850B900BF40
:10219000002000902068C06800902068806800904F
:1021A00000BF00BF606D08B14FF0010900BF012002
:1021B00084F8510000BF002084F8500000BF48465A
:1021C0003BE72DE9FE4F04460D4616461F46DDF857
:1021D00030804FF0000A0020029081464FF0010B42
:1021E000019000BF94F85000012802D10220BDE800
:1021F000FE8F012084F8500000BFFEF773FD81467A
:1022000094F851A060680290BAF1010F0BD00298C7
:10221000B0F5827F04D1A06810B9BAF1040F02D0E2
:1022200002200190D2E00DB106B117B90120019052
:10223000CCE094F85100012802D1052084F8510027
:1022400000206065A663E787A7872563E786A786E2
:10225000206460642068006800F04000402805D0D9
:102260002068006840F0400021680860E068B0F530
:10227000006F43D1606810B1E08E012806D1288834
:102280002168C860AD1CE08E401EE0862FE0BBF1E7
:10229000000F10D0E08E70B12068806800F002005E
:1022A000022808D128882168C860AD1CE08E401E35
:1022B000E0864FF0000BE08F68B12068806800F086
:1022C000010040B12068C0683080B61CE08F401E1D
:1022D000E0874FF0010B08F1010040B1FEF702FD6D
:1022E000A0EB0900404502D3032001906EE0E08E90
:1022F0000028CCD1E08F0028C9D142E0606810B13D
:10230000E08E012806D12878216808736D1CE08EC4
:10231000401EE0862FE0BBF1000F10D0E08E70B1C0
:102320002068806800F00200022808D115F8010B2F
:1023300021680873E08E401EE0864FF0000BE08FAE
:1023400068B12068806800F0010040B12068C06872
:1023500006F8010BE08F401EE0874FF0010B08F1FB
:10236000010040B1FEF7BEFCA0EB0900404502D3DE
:10237000032001902AE0E08E0028CCD1E08F0028D5
:10238000C9D14346012202212046CDF8009001F038
:102390005DFE10B10320019018E04A4641462046F8
:1023A00001F036FE20B101200190202060650DE093
:1023B000A06850B900BF002000902068C06800905D
:1023C00020688068009000BF00BF00BF012084F833
:1023D000510000BF002084F8500000BF019806E7BC
:1023E000042808D14FF0E021096941F004014FF0C1
:1023F000E022116107E04FF0E021096921F00401BA
:102400004FF0E02211617047704770B504462546D1
:10241000681EB0F1807F01D301200FE0681E4FF0ED
:10242000E02148610F214FF0FF3001F0A7FD0020AF
:102430004FF0E021886107200861002070BD10B5D1
:10244000FFF7E2FF10BD70477047024600BF92F8E9
:102450003C00012801D102207047012082F83C0095
:1024600000BF022082F83D001068406820F0700034
:1024700013685860106840680B6818431368586008
:102480001068806820F08000136898601068806889
:102490004B68184313689860012082F83D0000BF24
:1024A000002082F83C0000BF00BFD5E710B504460D
:1024B0000CB9012010BD94F83D0028B9002084F823
:1024C0003C00204600F00CF8022084F83D00211D5D
:1024D000206801F0BBFE012084F83D000020E9E700
:1024E00038B504462068B0F1804F15D100BF0B48C5
:1024F000C06940F001000949C8610846C06900F0A0
:102500000100009000BF00BF002211461C20FEF712
:10251000E4FF1C20FEF7D4FF38BD0000001002408D
:1025200001460868C06840F001000A68D060086889
:10253000006840F001000A681060002070472DE933
:10254000F04104460D46002600BF94F83C000128E7
:1025500002D10220BDE8F081012084F83C0000BFD8
:10256000022084F83D002068866826F0770626F46D
:102570007F4620688660286850283BD00CDC2028E5
:1025800060D004DC002853D0102865D155E03028F5
:102590005DD0402860D141E0602835D070280DD052
:1025A000B0F5805F03D0B0F5005F55D115E020682D
:1025B000806820F00700216888604EE0D5E90213AA
:1025C0006A68206801F07CFE2068866826F077063D
:1025D00046F07706206886603FE0D5E902136A6816
:1025E000206801F06DFE2068806840F4804021681A
:1025F000886032E0EA686968206801F077FE50215F
:10260000206801F069FE28E0EA686968206801F046
:1026100082FE6021206801F05FFE1EE0EA686968C2
:10262000206801F063FE4021206801F055FE14E0AF
:102630000021206801F050FE0FE01021206801F019
:102640004BFE0AE02021206801F046FE05E0302123
:10265000206801F041FE00E000BF00BF012084F8C7
:102660003D0000BF002084F83C0000BF00BF71E7C0
:10267000704710B5044620680069C0F34000D8B127
:102680002068C068C0F34000B0B16FF0020021685C
:102690000861012020772068806900F0030018B1EC
:1026A0002046FFF7E5FF05E0204600F0ADF82046A4
:1026B00000F0ABF80020207720680069C0F38000AC
:1026C000D8B12068C068C0F38000B0B16FF00400DA
:1026D00021680861022020772068806900F440703A
:1026E00018B12046FFF7C4FF05E0204600F08CF843
:1026F000204600F08AF80020207720680069C0F3A7
:10270000C000D8B12068C068C0F3C000B0B16FF09D
:10271000080021680861042020772068C06900F063
:10272000030018B12046FFF7A3FF05E0204600F0A4
:102730006BF8204600F069F80020207720680069D7
:10274000C0F30010D8B12068C068C0F30010B0B169
:102750006FF0100021680861082020772068C069A8
:1027600000F4407018B12046FFF782FF05E02046D4
:1027700000F04AF8204600F048F800202077206852
:10278000006900F0010058B12068C06800F0010045
:1027900030B16FF0010021680861204600F036F882
:1027A00020680069C0F3C01058B12068C068C0F349
:1027B000C01030B16FF08000216808612046FFF73B
:1027C00042FE20680069C0F3801058B12068C068DC
:1027D000C0F3801030B16FF04000216808612046DE
:1027E00000F015F820680069C0F3401058B1206867
:1027F000C068C0F3401030B16FF02000216808615C
:102800002046FFF721FE10BD7047704770477047A4
:10281000704700002DE9F0470446206805682068ED
:10282000C668206847694FF00008C14605F00F08E8
:10283000B8F1000F0AD105F0200038B106F02000F1
:1028400020B1204601F0A7FDBDE8F087B8F1000FE8
:102850006DD007F0010018B906F49070002866D01A
:1028600005F0010030B106F4807018B1E06B40F063
:102870000100E06305F0040030B107F0010018B179
:10288000E06B40F00200E06305F0020030B107F0B9
:10289000010018B1E06B40F00400E06305F00800AF
:1028A00030B107F0010018B1E06B40F00800E063C0
:1028B000E06B68B305F0200028B106F0200010B1ED
:1028C000204601F068FD20684069C0F38019E06B84
:1028D00000F0080010B9B9F1000F22D0204601F035
:1028E0003AFD2068406900F04000B0B120684069BE
:1028F00020F0400021684861606B50B11748616B5F
:102900004863606BFDF7E6FF10B1606B416B884771
:102910000CE02046FFF77CFF08E02046FFF778FF39
:1029200004E02046FFF774FF0020E0638CE705F029
:10293000800030B106F0800018B1204601F062FE40
:1029400082E705F0400030B106F0400018B12046A3
:1029500001F011FD78E700BF76E70000434300086F
:1029600010B504460CB9012010BDA06900B100E00B
:1029700000BF94F8390028B9002084F838002046B8
:1029800000F028F8242084F839002068C06820F47A
:1029900000502168C860204601F050FD20680069A1
:1029A00020F49040216808612068406920F02A00E6
:1029B000216848612068C06840F400502168C86000
:1029C0000020E063202084F8390084F83A000020D9
:1029D000CAE7000010B586B004461849206888424E
:1029E00029D100BF1648806940F4804014498861AD
:1029F0000846806900F48040019000BF00BF481580
:102A00000290022003900320059002A90D48FDF7D3
:102A1000CDFF4FF48060029000200390049002A943
:102A20000848FDF7C3FF002211462520FEF755FD9B
:102A30002520FEF745FD06B010BD0000003801401E
:102A4000001002400008014070472DE9F843044699
:102A50000D4616461F464FF0000994F8390020280D
:102A60005CD105B116B90120BDE8F88300BF94F828
:102A70003800012801D10220F6E7012084F838004F
:102A800000BF0020E063212084F83900FEF72AF916
:102A90008146A684E6842BE0E08C401EE084A0689A
:102AA000B0F5805F16D14B4600228021204600976A
:102AB00001F0DCFD08B10320D6E7A846B8F8000015
:102AC000C0F3080021684860206908B9AD1C0FE018
:102AD0006D1C0DE04B46002280212046009701F03E
:102AE000C5FD08B10320BFE715F8010B2168486058
:102AF000E08C0028D0D14B46002240212046009790
:102B000001F0B4FD08B10320AEE7202084F83900BD
:102B100000BF002084F8380000BFA5E70220A3E72B
:102B2000704700BFFEE7014608684069C0F3802097
:102B300088B16FF480600A68506104200864002046
:102B40000863202081F83D0000BF002081F83C0090
:102B500000BF012070470020FCE700002DE9F8438A
:102B600004460F4615469946DDE908862068006848
:102B700040F48060216808602068006840F480703C
:102B800021680860434600224FF00111204600965C
:102B900000F02BF910B10320BDE8F88307F0FE0028
:102BA00021680861334642464149204600F05BF9FE
:102BB00030B1206C042801D10120EDE70320EBE7C0
:102BC00000BF002000902068406900902068806964
:102BD000009000BF00BF32464146204600F0D0F9C9
:102BE00060B1206C042807D12068006840F40070B0
:102BF000216808600120CFE70320CDE7B9F1010F7C
:102C000003D1E8B22168086119E0C5F30720216803
:102C1000086132464146204600F0B2F960B1206CAE
:102C2000042807D12068006840F40070216808601B
:102C30000120B1E70320AFE7E8B22168086132461E
:102C40004146204600F09CF960B1206C042807D171
:102C50002068006840F400702168086001209BE74C
:102C6000032099E72068006840F4807021680860BC
:102C7000434600224FF001112046009600F0B5F8BF
:102C800008B1032088E7F8B240F00100216808612C
:102C9000334642460649204600F0E5F830B1206C44
:102CA000042801D1012077E7032075E7002073E7AE
:102CB000020001002DE9F84304468846154699466E
:102CC000DDE908672068006840F4807021680860CA
:102CD000334600224FF001112046009700F085F89E
:102CE00010B10320BDE8F88308F0FE0021680861F8
:102CF0003B4632462649204600F0B5F830B1206CFC
:102D0000042801D10120EDE70320EBE700BF0020FC
:102D1000009020684069009020688069009000BFA2
:102D200000BF3A463146204600F02AF960B1206CD7
:102D3000042807D12068006840F40070216808600A
:102D40000120CFE70320CDE7B9F1010F03D1E8B2AD
:102D50002168086119E0C5F30720216808613A4637
:102D60003146204600F00CF960B1206C042807D1F0
:102D70002068006840F40070216808600120B1E715
:102D80000320AFE7E8B2216808610020AAE700004D
:102D90000200010070B504460D4616461DE02046AF
:102DA000FFF7C1FE08B1012070BD681CA8B125B1B4
:102DB000FDF798FF801BA8420FD9206C40F020003F
:102DC000206400202063202084F83D0000BF002004
:102DD00084F83C0000BF0320E6E720684069C0F3A8
:102DE00080000028DBD00020DEE72DE9F04104461A
:102DF0000D4617461E46DDF8188017E0701CA8B176
:102E00002EB1FDF76FFFA0EB0800B0420ED90020F5
:102E10002063202084F83D00002084F83E0000BF9D
:102E200084F83C0000BF0320BDE8F081C5F30740F3
:102E300001280AD120684069A9B20840A9B2884295
:102E400001D101200BE0002009E020688069A9B2CF
:102E50000840A9B2884201D1012000E00020B84218
:102E6000CCD00020E0E72DE9F04104460D4616469F
:102E70001F4631E020684069C0F38020C0B120685F
:102E8000006840F40070216808606FF48060216879
:102E900048610420206400202063202084F83D0045
:102EA00000BF002084F83C0000BF0120BDE8F08195
:102EB000701C88B126B1FDF715FFC01BB0420BD9BD
:102EC00000202063202084F83D0000BF002084F80B
:102ED0003C0000BF0320E9E7C5F3074001280AD101
:102EE00020684069A9B20840A9B2884201D10120F6
:102EF0000BE0002009E020688069A9B20840A9B26F
:102F0000884201D1012000E000200028B2D000203A
:102F1000CCE770B504460D46164629E020684069A6
:102F2000C0F3001080B16FF01000216848610020EC
:102F300020642063202084F83D0000BF002084F836
:102F40003C0000BF012070BD25B1FDF7CBFE801B0A
:102F5000A8420DD9206C40F020002064202084F885
:102F60003D0000BF002084F83C0000BF0320EAE7DA
:102F700020684069C0F380100028CFD00020E2E72D
:102F800070B504460D4616461DE02046FFF7CBFD02
:102F900008B1012070BD681CA8B125B1FDF7A2FEE3
:102FA000801BA8420FD9206C40F020002064002034
:102FB0002063202084F83D0000BF002084F83C00FE
:102FC00000BF0320E6E720684069C0F3C010002876
:102FD000DBD00020DEE700002DE9FE4F81460F46E2
:102FE00090469A460C9CCB46BBF1200F02DA4FF07C
:102FF000000903E0ABF1200000F0FF0B002009E026
:103000000BEB4B011F4A02EB4101095C01AA115471
:10301000411CC8B20628F3DB0D980090E004030CB5
:1030200004EB44004004020C4146384600F084F9A9
:10303000002522E000261CE001A8415D0120B040EF
:103040000140A1B1012C06D108EB060178195246C6
:1030500000F0B8F80BE006FB048291B205FB0472A5
:1030600090B223462246CDF800A000F065F9701C0E
:10307000C6B2082EE0DB681CC5B2062DDADBBDE85F
:10308000FE8F0000347100082DE9FC5F07460D46F5
:1030900000264FF4FA70B0EB450F01D92E4601E03F
:1030A0004FF4FA760122D1022148FDF715FE0022E5
:1030B0004FF480511F48FDF70FFE38120190B246C1
:1030C000504602F0ABFD0446002004E00199215473
:1030D000411C6754801CB042F8D34FEA4508B8FB46
:1030E000F6F9B8FBF6F006FB10800090B9F1000F7E
:1030F0000CD04FF0000B07E0B2B20A2321460E4875
:10310000FEF78CFF0BF1010BCB45F5D3009882B293
:103110000A2321460848FEF781FF012211030548D2
:10312000FDF7DAFD204602F089FABDE8FC9F0000B9
:1031300000080140000C0140600100202DE9F04F23
:1031400085B004460D4616461F46DDF838904FF010
:10315000000A00200490834603908046029001906C
:10316000A6EB0408B8F1000F01DA4FF0010B4FF0A5
:103170000008A7EB0508B8F1000F01DA0120039061
:10318000BBF1000F04D1301B1FFA80FA029403E058
:10319000A01B1FFA80FA0296039820B9781B80B210
:1031A0000490019503E0E81B80B204900197CDF8EC
:1031B00000905246049BDDE9011000F0BDF805B017
:1031C000BDE8F08FFEB504460D461646554800880A
:1031D000844203DA54480088854200DBFEBD0022A9
:1031E0004FF400615148FDF777FD00224FF4805104
:1031F0004F48FDF771FD2A2000F04CFA0122D10260
:103200004A48FDF769FD012211034948FDF764FDB5
:1032100000224FF480514648FDF75EFD20128DF8E4
:103220000800E0B28DF80900601C000A8DF80A0061
:10323000601CC0B28DF80B000123042202A93D4896
:10324000FEF7ECFE012211033948FDF745FD00228F
:103250004FF400613548FDF73FFD00224FF48051E7
:103260003348FDF739FD2B2000F014FA0122D1027A
:103270002E48FDF731FD012211032D48FDF72CFDED
:1032800000224FF480512A48FDF726FD28128DF8C0
:103290000400E8B28DF80500681C000A8DF80600ED
:1032A000681CC0B28DF807000123042201A921483F
:1032B000FEF7B4FE012211031D48FDF70DFD0022AB
:1032C0004FF400611948FDF707FD00224FF48051CB
:1032D0001748FDF701FD2C2000F0DCF90122D10296
:1032E0001248FDF7F9FC012211031148FDF7F4FC27
:1032F00000224FF480510E48FDF7EEFC30128DF89D
:103300000000F0B28DF8010001230222694609484D
:10331000FEF784FE012211030548FDF7DDFC00BF26
:103320005CE70000020000200000002000080140CF
:10333000000C0140600100202DE9F04104460D46DB
:1033400016461F46DDF8188017480088844203DAC5
:1033500016480088854201DBBDE8F081A019401EB7
:1033600011490988884203DB0F480088001B86B298
:10337000E819401E0D490988884203DB0B48008884
:10338000401B87B2E819401E83B2A019401E82B2CA
:103390002946204600F088F907FB06F14046FFF772
:1033A00073FE00BFD8E700000200002000000020EC
:1033B0002DE9FC4704460D4617469846DDE90A69A3
:1033C0000CE0CDE9006914F8010B43463A46294662
:1033D000FFF702FE062000FB0650C5B22078002849
:1033E000EFD1BDE8FC87000010B5012211020248B0
:1033F000FDF772FC10BD00000008014010B5044646
:1034000008480388084802880021084600F04CF963
:1034100005480088034A128800FB02F12046FFF7A6
:1034200033FE10BD000000200200002010B5FFF7A1
:10343000DBFF00F025F900F005F9012000F0A2F90A
:103440004FF47A70FDF79EFACB2000F09BF93920FB
:1034500000F0B4F92C2000F0B1F9002000F0AEF932
:10346000342000F0ABF9022000F0A8F9CF2000F0E2
:1034700089F9002000F0A2F9C12000F09FF9302066
:1034800000F09CF9E82000F07DF9852000F096F925
:10349000002000F093F9782000F090F9EA2000F085
:1034A00071F9002000F08AF9002000F087F9ED2082
:1034B00000F068F9642000F081F9032000F07EF943
:1034C000122000F07BF9812000F078F9F72000F05D
:1034D00059F9202000F072F9C02000F053F92320A0
:1034E00000F06CF9C12000F04DF9102000F066F9F1
:1034F000C52000F047F93E2000F060F9282000F0D8
:103500005DF9C72000F03EF9862000F057F936201B
:1035100000F038F9482000F051F93A2000F032F973
:10352000552000F04BF9B12000F02CF9002000F0FC
:1035300045F9182000F042F9B62000F023F90820E0
:1035400000F03CF9822000F039F9272000F036F92C
:10355000F22000F017F9002000F030F9262000F0EA
:1035600011F9012000F02AF9E02000F00BF90F20FA
:1035700000F024F9312000F021F92B2000F01EF991
:103580000C2000F01BF90E2000F018F9082000F0C4
:1035900015F94E2000F012F9F12000F00FF9372054
:1035A00000F00CF9072000F009F9102000F006F9EE
:1035B000032000F003F90E2000F000F9092000F0CC
:1035C000FDF8002000F0FAF8E12000F0DBF8002020
:1035D00000F0F4F80E2000F0F1F8142000F0EEF8FE
:1035E000032000F0EBF8112000F0E8F8072000F0CD
:1035F000E5F8312000F0E2F8C12000F0DFF84820C3
:1036000000F0DCF8082000F0D9F80F2000F0D6F820
:103610000C2000F0D3F8312000F0D0F8362000F074
:10362000CDF80F2000F0CAF8112000F0ABF8782098
:10363000FDF7A8F9292000F0A5F8002000F05EF8B9
:1036400010BD000010B500224FF480710A48FDF74C
:1036500043FBC820FDF796F900224FF4805107483C
:10366000FDF73AFBC820FDF78DF90122110202484F
:10367000FDF732FB10BD000000080140000C0140C6
:1036800010B500224FF480510148FDF725FB10BD15
:10369000000C014001B501231A4669460148FEF7B6
:1036A000BDFC08BD600100202DE9F04104460D4637
:1036B00016461F462A2000F065F8201200F07EF81A
:1036C000E0B200F07BF8301200F078F8F0B200F0D1
:1036D00075F82B2000F056F8281200F06FF8E8B2C9
:1036E00000F06CF8381200F069F8F8B200F066F8F3
:1036F0002C2000F047F8BDE8F081000070B50446CA
:103700002546362000F03EF80120FDF73BF935B1A3
:10371000012D0FD0022D18D0032D2CD120E04820F0
:1037200000F04CF8F020154908804FF4A0701449BF
:10373000088021E0282000F041F84FF4A0700F49E4
:103740000880F0200E49088016E0882000F036F846
:10375000F0200A4908804FF4A070094908800BE066
:10376000E82000F02BF84FF4A07004490880F02006
:103770000349088000E000BF00BF70BD02000020C8
:103780000000002010B5044600224FF48051094883
:10379000FDF7A2FA00224FF400610748FDF79CFAFA
:1037A0002046FFF777FF012211030248FDF794FA44
:1037B00010BD0000000C01400008014010B5044697
:1037C0000122D1020848FDF787FA00224FF4805108
:1037D0000648FDF781FA2046FFF75CFF012211033E
:1037E0000248FDF779FA10BD00080140000C0140C5
:1037F00000B585B000BF4B48806940F010004949D2
:1038000088610846806900F01000009000BF00BF8A
:1038100000BF0846806940F0200088610846806942
:1038200000F02000009000BF00BF00BF0846806984
:1038300040F0040088610846806900F004000090B0
:1038400000BF00BF00BF0846806940F008008861E3
:103850000846806900F00800009000BF00BF002209
:103860004FF400513048FDF737FA002241F202418F
:103870002E48FDF731FA00224FF410612C48FDF775
:103880002BFA4FF400500190012002900020039089
:103890000220049001A92448FDF788F84FF4404025
:1038A0000190002002900220039001A91E48FDF71C
:1038B0007DF806200190002002900220039001A9CB
:1038C0001B48FDF773F81020019000200290039030
:1038D00001A91748FDF76AF8012001900020029025
:1038E000039001A91148FDF761F841F202400190EF
:1038F00001200290002003900220049001A90B48AF
:10390000FDF754F84FF41060019001200290002060
:1039100003900220049001A90548FDF747F805B07F
:1039200000BD00000010024000100140000C0140EA
:103930000008014010B50D480D4908600D48486069
:1039400000210B488160C1604FF48041016100217A
:1039500041618161C1610162FDF7CAF920B140F2A4
:103960008D1105A000F0FEFE10BD000000540040C7
:103970000C010020A08601002E2E2F5372632F6DA4
:1039800061696E2E6300000010B510481049086090
:103990004FF48270486000210D488160C160016170
:1039A00041614FF4007181610821C1610021016210
:1039B000416281620A21C162FEF7D2F920B140F270
:1039C000A51104A000F0CEFE10BD000000300140A3
:1039D000600100202E2E2F5372632F6D61696E2EB1
:1039E0006300000010B51048104908604FF4827061
:1039F000486000210D488160C160016141614FF460
:103A0000007181611021C161002101624162816206
:103A10000A21C162FEF7A4F920B140F2BD1104A051
:103A200000F0A0FE10BD000000380040B8010020EA
:103A30002E2E2F5372632F6D61696E2E630000006E
:103A400000B587B04FF080401849086048F6A040A4
:103A50004860002115488160C821C16000210161D2
:103A60008161FEF723FD20B140F2D11110A000F0DA
:103A700079FE4FF48050039003A90C48FEF75FFDD8
:103A800020B140F2D7110AA000F06CFE0020019096
:103A9000029001A90548FEF7D8FC20B14FF4EF7160
:103AA00003A000F05FFE07B000BD00001002002080
:103AB0002E2E2F5372632F6D61696E2E63000000EE
:103AC00010B50C480C4908604FF4E1304860002103
:103AD00009488160C16001610C214161002181615F
:103AE000C161FEF73DFF20B140F2F11103A000F0EB
:103AF00039FE10BD00380140500200202E2E2F53F9
:103B000072632F6D61696E2E6300000000BFFEE7D7
:103B10007047000010B50024002000F00BF90446A7
:103B200044F003042146002000F07AF901229102BA
:103B30000548FDF7D1F89620FCF7B4FE00F0BAF87E
:103B400000F0D8F810BD0000000C01402DE9F04154
:103B50000124002500E005E001213948FDF7B4F813
:103B60000128F8D000BF072000F0E4F80446224600
:103B700034A1394800F0F8FD3748FCF7F5FA86B271
:103B80004FF48053324634493448FEF75EFF0A2032
:103B9000FCF788FE072000F0CDF8044604F0400052
:103BA000002839D000224FF400512D48FDF794F839
:103BB00005222C49612000F0EBF801202A49087009
:103BC0002848008885B22846FCF7A4FC0646274909
:103BD000FCF7D1FA2649086008460068FCF7F5FCB6
:103BE000064632460B4623A11B4800F0BDFD1A488D
:103BF000FCF7BAFA86B24FF480533246164917489A
:103C0000FEF723FF4021072000F00AF901225103AB
:103C10001348FDF761F811E01BA10F4800F0A4FD67
:103C20000D48FCF7A1FA86B24FF4805332460A4998
:103C30000A48FEF70AFF00200B490870BDE8F08132
:103C4000000C01405354415455533A2030782530EC
:103C500032580D0A0000000090020020500200209F
:103C60000010014063000020040000200000C84252
:103C70006C0000204F55544F5220543A20252E32CC
:103C8000662A430D0A000000434F4E4D45435449F8
:103C90004F4E20544F204F5554444F4F52205345C0
:103CA0004E534F52204953204C4F53542121212130
:103CB000210D0A0008B50CA0006800900022022126
:103CC0000A48FDF709F84FF47A730122694608485B
:103CD000FEF7A4F90120FCF7E5FD012202210348CB
:103CE000FCF7FAFF08BD0000E2000000000C0140F4
:103CF000B801002008B50CA0006800900022022145
:103D00000A48FCF7E9FF4FF47A7301226946084834
:103D1000FEF784F90120FCF7C5FD012202210348CA
:103D2000FCF7DAFF08BD0000E1000000000C0140D4
:103D3000B801002001B584B00020039000220221C8
:103D40001148FCF7C9FF4FF47A70012303AA04A9B4
:103D500000900E48FEF735FA9DF8100007280AD0AB
:103D6000FF2002904FF47A70012303AA02A9009069
:103D70000648FEF726FA012202210348FCF7ACFFB1
:103D80009DF80C0005B000BD000C0140B8010020FA
:103D900037B50C461546002202210B48FCF79CFF64
:103DA0004FF47A73012269460848FEF737F94FF459
:103DB0007A732A4621460548FEF77AF80122022145
:103DC0000148FCF789FF3EBD000C0140B80100200E
:103DD00008B510A000680090002202210E48FCF7F0
:103DE0007BFF4FF47A73012269460C48FEF716F9FF
:103DF0000120FCF757FD732000904FF47A730122E5
:103E000069460648FEF70AF9012202210248FCF73A
:103E100063FF08BD50000000000C0140B801002005
:103E200013B59DF8000040F0200000900022022110
:103E30000B48FCF751FF4FF47A7301226946094899
:103E4000FEF7ECF84FF47A73012201A90548FEF75A
:103E5000E5F8012202210248FCF73EFF1CBD0000EC
:103E6000000C0140B801002037B50C4615469DF8FE
:103E7000000040F020000090002202210C48FCF7D6
:103E80002BFF4FF47A73012269460A48FEF7C6F801
:103E90000120FCF707FD4FF47A732A4621460548B6
:103EA000FEF7BCF8012202210148FCF715FF3EBDD8
:103EB000000C0140B801002010B500224FF48061D1
:103EC0002548FCF709FF41F28830FCF7EBFC0A219A
:103ED0000020FFF7A5FF41F28830FCF7E3FC022148
:103EE0000120FFF79DFF02210846FFF799FF0121FE
:103EF0000320FFF795FF5F210420FFF791FFFFF7F5
:103F000067FF00211D20FFF78BFF00211C20FFF71A
:103F100087FF70210720FFF783FF4C210520FFF763
:103F20007FFF06210846FFF77BFF03220B49102085
:103F3000FFF79AFF032209490B20FFF795FF0521A0
:103F40001220FFF76DFFFFF7E5FD01225103044842
:103F5000FCF7C2FE10BD0000000C01406000002014
:103F60000010014010B5FFF7F1FD10BD02480068D8
:103F7000C0F30220704700000CED00E010B50028EF
:103F800007DA0A07140E054A00F00F031B1FD4546A
:103F900003E00A07130E024A135410BD18ED00E0A7
:103FA00000E400E07047000008B508490968C90846
:103FB0004FF47A72B1FBF2F14143009100BF00BFB0
:103FC00000994A1E00920029F9D108BDC4000020C2
:103FD00001460A2291FBF2F302FB13120A2391FB22
:103FE000F3F342EA0312D0B27047014601F00F0228
:103FF0000B1103EB830302EB4302D0B270470000C6
:1040000010B50248FDF720FE10BD00006001002041
:10401000F8B504460D4616462B4600228021204660
:10402000009600F013F828B1606D40F02000606544
:104030000320F8BD0020FCE770B505466C6A00203F
:10404000E087E0862046FDF7FDFD70BD2DE9F041DB
:1040500004460E4617461D46DDF818803FE0681CF2
:10406000E0B32DB1FCF73EFEA0EB0800A84236D32A
:104070002068406820F0E000216848606068B0F582
:10408000827F0DD1A068B0F5004F03D0A068B0F5D5
:10409000806F05D12068006820F04000216808602A
:1040A000A06AB0F5005F0ED100BF206800684DF631
:1040B000FF710840216808602068006840F40050E3
:1040C0002168086000BF012084F8510000BF002073
:1040D00084F8500000BF0320BDE8F081FFE72068AE
:1040E00080683040B04201D1012000E00020B84299
:1040F000B5D10020F0E7704710B5FDF747F9FEF79E
:104100009EF910BD10B590B00120069000040790F4
:104110000020089001200A9002200D90C1030E910A
:104120004FF4E0110F9106A8FDF76CFB20B140F2AF
:10413000611115A000F016FB0F20019002200290E3
:10414000002003904FF4806004900020059002212D
:1041500001A8FDF715FA20B140F26F110AA000F096
:1041600001FBFDF7DFFA4FF47A71B0FBF1F4204662
:10417000FEF74BF90420FEF733F900221146501EDA
:10418000FDF7ABF910B010BD2E2E2F5372632F6DBB
:1041900061696E2E630000001148006840F0010064
:1041A0000F490860084640680E4908400C494860BD
:1041B000084600680C49084009490860084600683C
:1041C00020F4802008600846406820F4FE00486023
:1041D0004FF41F008860C80304490860704700005E
:1041E000001002400000FFF8FFFFF6FE08ED00E0BF
:1041F00010B54FF480410E48FCF766FD0D4908608C
:104200004FF400410A48FCF75FFD0B4908600421A8
:104210000A48FCF759FD0A49086002210748FCF7E3
:1042200053FD084908600848FEF723FA10BD000056
:1042300000100140880000208C0000200008014090
:10424000900000209400002010020020002202684C
:10425000184B984208D0B0F1804F05D0164B9842C9
:1042600002D0164B984203D122F070024B681A43D9
:10427000104B984208D0B0F1804F05D00E4B9842B9
:1042800002D00E4B984203D122F44072CB681A43FD
:1042900022F080024B691A4302608B68C3620B688C
:1042A0008362044B984201D10B690363012343618C
:1042B00070470000002C014000040040000800404E
:1042C00030B50C460021816821F47F4142EA032584
:1042D00025432943816030BD0A460021816821F0D1
:1042E000700142F0070319438160704730B50B46F7
:1042F000144600210022026A056A25F001050562C4
:10430000816921F0F00141EA041122F00A021A4306
:104310008161026230BD30B50B4614460021002297
:10432000056A25F0100505628169026A21F4704171
:1043300041EA043122F0A00242EA031281610262E2
:1043400030BD70B505466C6A0020E085E0842046EB
:10435000FEF75EFA70BD0168C96821F490710268C9
:10436000D1600168496921F0010102685161202191
:1043700080F83A10704710B504462068C06820F0F5
:1043800040002168C860202084F839002046FEF7EC
:10439000C7FB002010BD70B5044694F83A002228EF
:1043A0004AD1A068B0F5805F13D1A56A206940B9F1
:1043B00020684068C0F308002880A06A801CA062C2
:1043C00019E020684068C0B22880A06A401CA06242
:1043D00011E0206938B920684068C1B2A26A501C57
:1043E000A062117007E02068406800F07F01A26AB7
:1043F000501CA0621170E08D401E80B2E085C8B9EB
:104400002068C06820F020002168C8602068C0686B
:1044100020F480702168C8602068406920F00100A5
:1044200021684861202084F83A002046FEF70CFB02
:10443000002070BD0020FCE70220FAE72DE9F041E2
:10444000044600252068006920F44050E1680843D4
:10445000216808612169A068084361690843054330
:104460002068C06841F20C61884328432168C86015
:104470002068406920F44070A169084321684861C0
:104480005F49206888425CD1FDF762F900EBC0010A
:1044900001EB001061688900B0FBF1F6FDF758F9F7
:1044A00000EBC00101EB001061688900B0FBF1F086
:1044B0006421B0FBF1F000EBC00101EB0010A6EBB2
:1044C0008000322101EB00106421B0FBF1F000F01C
:1044D000F006FDF73DF900EBC00101EB001061684B
:1044E0008900B0FBF1F06421B0FBF1F006EB00169F
:1044F000FDF72EF900EBC00101EB001061688900A7
:10450000B0FBF1F7FDF724F900EBC00101EB00105F
:1045100061688900B0FBF1F06421B0FBF1F000EBC1
:10452000C00101EB0010A7EB8000322101EB00106D
:104530006421B0FBF1F000F00F0030442168886086
:104540005BE0FDF7F5F800EBC00101EB00106168DE
:104550008900B0FBF1F6FDF7EBF800EBC00101EBD1
:10456000001061688900B0FBF1F06421B0FBF1F04C
:1045700000EBC00101EB0010A6EB8000322101EB43
:1045800000106421B0FBF1F000F0F006FDF7D0F868
:1045900000EBC00101EB001061688900B0FBF1F095
:1045A0006421B0FBF1F006EB0016FDF7C1F800EB5B
:1045B000C00101EB001061688900B0FBF1F7FDF765
:1045C000B7F800EBC00101EB001061688900B0FB97
:1045D000F1F06421B0FBF1F000EBC00101EB001041
:1045E000A7EB8000322101EB00106421B0FBF1F059
:1045F00000F00F00304421688860BDE8F0810000C1
:1046000000380140014691F8390021282CD18868F2
:10461000B0F5805F0FD10A6A1088C0F308000B68FC
:104620005860086918B9086A801C086209E0086ABD
:10463000401C086205E00B6A581C086218780B6879
:104640005860C88C401E80B2C88458B90868C068D9
:1046500020F080000B68D8600868C06840F0400017
:104660000B68D860002070470220FCE72DE9F0417C
:1046700004460D4617469846069E21E0701CF8B188
:104680002EB1FCF72FFBA0EB0800B04218D9206830
:10469000C06820F4D0702168C8602068406920F0AC
:1046A000010021684861202084F8390084F83A002C
:1046B00000BF002084F8380000BF0320BDE8F0816F
:1046C000206800682840A84201D1012000E00020B5
:1046D000B842D3D00020F1E710B50248FEF79AF8AF
:1046E00010BD00005002002000BFFEE77FB5044669
:1046F0000D460026002003902846FFF769FC039032
:10470000124800681249098803AACDE900210290E5
:10471000104800884FF6FF7202EA40010E480388F5
:1047200022460E48FCF746FD0D4908700846007801
:1047300020B94FF47A70FCF725F905E003E04FF457
:104740007A70FCF71FF9FAE77FBD0000280000200F
:104750002400002006000020260000200C0100207C
:104760001A00002000BFFEE70FB4084B10B504A9E3
:1047700002AA039800F0DEF8044602A9002000F027
:1047800070FC204610BC5DF814FB0000635000086C
:1047900002E008C8121F08C1002AFAD1704770470A
:1047A000002001E001C1121F002AFBD17047000068
:1047B0002DE9FF5F82B00021DDE90430020DDDF854
:1047C00040B0034318D044F61050A2F2FF324243E7
:1047D0001514119801281FD0A5EB0B00401C5FEAAF
:1047E000000A4FF000064E4FDFF83891B0465046B1
:1047F00015D5CAF1000413E0119801244AA3012839
:1048000001D16FEA0B010298119AC0E90031C0E9A9
:10481000024206B0BDE8F09FCBF10000DFE704469E
:104820000021404A491842EB0450CDE9001012E043
:10483000E00707D032463B4640464946FBF780FD3D
:104840008046894632463B4610461946FBF778FDBE
:1048500006460F466410002CEAD1DDE90401DDE9CB
:104860000023BAF1000F06DAFBF76AFD42464B4619
:10487000FBF766FD05E0FBF7D5FD42464B46FBF72F
:10488000D1FD04460E460022284BFBF7C9FE03D893
:104890004FF0FF30014607E00022254B204631460D
:1048A000FBF7A7FCFBF7D0FF102409E0002C0ADB84
:1048B0000A220023FBF7E2FE039B30321A55641EE6
:1048C00050EA0102F2D1641C039AC4F111031444AA
:1048D000119A012A03D0012208430DD10AE00843AE
:1048E00004D000204FF0110B119072E7A3EB0B05E1
:1048F0006D1E0DE05B4504DD4FF0000205F1010582
:1049000004E003DA4FF00002A5F10105002AECD023
:1049100002981199C0E90231C0E9004579E7000029
:10492000000014400000F03F300000000000F043A1
:104930000000E03F2DE9FF4F95B09B4689460646B3
:1049400000250FE2252877D100242746F84A0121C7
:10495000059400E0044316F8013F203B01FA03F000
:104960001042F7D130782A2811D06FF02F03307819
:10497000A0F13002092A16D8059A44F0020402EB8D
:10498000820203EB42021044761C0590EFE759F8CF
:10499000042B0592002A03DA504244F40054059097
:1049A00044F00204761C30782E2816D116F8010F38
:1049B00044F004042A280DD06FF02F023078A0F1C3
:1049C0003003092B09D807EB870302EB4303C71811
:1049D000761CF3E759F8047B761C30786C280FD0EE
:1049E00006DC4C2817D068280DD06A2814D104E0C2
:1049F000742810D07A280FD10DE044F400140AE096
:104A000044F4801401E044F440147278824202D1EC
:104A100004F58014761C761C307866280BD013DCE5
:104A2000582877D009DC002875D04528F6D04628CC
:104A3000F4D047281AD19DE118E0632835D06428C6
:104A400079D0652812D195E1702873D008DC6728E9
:104A5000F1D069286FD06E280DD06F2806D1B5E04F
:104A600073282CD0752875D0782874D05A46179999
:104A700090476D1C75E1C4F30250022809D0032849
:104A80000DD0D9F8001004280DD00D6009F10409EB
:104A900067E1D9F80010EA17C1E90052F6E7D9F842
:104AA00000100D80F2E70D70F0E719F8041B8DF887
:104AB000001000208DF80100EA46012003E059F8BB
:104AC00004AB4FF0FF3061074FF0000102D40DE05E
:104AD00008F101018846B9420FDA8045F8DB1AF87F
:104AE00008100029F4D108E008F10101884681424C
:104AF000FADB1AF808100029F6D105985B46A0EBFE
:104B0000080721463846179A00F094FA284400EB2B
:104B1000080507E04DE029E10DE01AF8010B5A46BF
:104B200017999047B8F10108F7D25B4621463846FD
:104B3000179A13E142E00A220092C4F302524FF0A6
:104B4000000A022A08D059F804CB032A4FEAEC7174
:104B50000AD00DE029E02AE009F1070121F007025F
:104B6000F2E802C1914609E00FFA8CFC4FEAEC71C1
:104B7000042A03D14FFA8CFC4FEAEC71002907DAC2
:104B80000A460021DCF1000C61EB02012D2202E05B
:104B9000220504D52B228DF80420012203E0E20730
:104BA00001D02022F7E7904659E00A2102E01022C6
:104BB0000DE010214FF0000A00910BE010224FF0A1
:104BC000000A44F004040827009203E008224FF092
:104BD000000A0092C4F30252022A05D059F804CB0D
:104BE0000021032A08D009E009F1070121F007029A
:104BF000F2E802C1914605E01FFA8CFC042A01D1BB
:104C00000CF0FF0C4FF00008220728D5702806D0C2
:104C1000009B83F0100353EA0A0305D00EE0402204
:104C20008DF80420012208E05CEA010206D030225F
:104C30008DF804208DF8050002229046009B83F039
:104C4000080353EA0A030AD15CEA010201D16207B0
:104C500005D530228DF804204FF001087F1E58281A
:104C600004D034A003900EA802900DE036A0F9E71E
:104C700053466046009AFBF701FD84460398825C28
:104C80000298401E029002705CEA0100F0D1029886
:104C900006A9081A00F1200A600702D524F480341E
:104CA00000E00127574502DDA7EB0A0000E00020E5
:104CB00000EB0A01009005984144401A0590E0037A
:104CC00006D45B462146179A059800F0B3F90544CF
:104CD000002706E001A85A46C05D179990476D1C51
:104CE0007F1C4745F6DBE0030CD55B462146179A4F
:104CF000059800F09FF9054404E030205A461799C2
:104D000090476D1C0099481E00900029F5DC08E0D2
:104D1000029802995A460078491C029117999047C7
:104D20006D1CBAF10001AAF1010AF1DC65E1000095
:104D30000928010030313233343536373839616271
:104D40006364656600000000303132333435363735
:104D500038394142434445460000000000F058F90C
:104D60000544761C307800287FF4ECAD19B0284655
:104D7000BDE8F08F620700D4062709F1070222F090
:104D8000070CFCE80223E14603F000485FEA080C48
:104D900002D00FF2702C0DE05FEA045C02D50FF236
:104DA000682C07E05FEAC47C02D00FF2602C01E0BF
:104DB000AFF2700C4FF0FF3823F00043CDF850C035
:104DC00065280CD006DC452809D046281DD0472888
:104DD0003DD13DE0662818D067287ED138E000211B
:104DE000112F01DB112000E0781CCDE9000106A99C
:104DF0000EA8FFF7DDFCDDE90F010E9A03910021FB
:104E0000009207F1010A04914DE04FF00040009735
:104E1000CDE9011006A90EA8FFF7CAFCDDE90F02D3
:104E200003920E9B11990022DDF80CA000930492CE
:104E300011B9791C00EB010AB7EB0A0004D4C0F1E8
:104E4000FF3007F1010A0490AAEB0700019044E04B
:104E5000012F00DA01270021112F01DD112000E0D0
:104E60003846CDE9000106A90EA8FFF7A1FCDDE94F
:104E70000F010E9A0391002104910092BA46210776
:104E80000CD40399514500DA8A46BAF1010F05DDC9
:104E9000009AAAF10101515C302908D0B84202DA27
:104EA00010F1040F06DA0121CDE9011015E0AAF195
:104EB0000101E9E7002805DC049901440491AAEB0B
:104EC000000102E0411C514500DD8A460499401A68
:104ED000401C01904FF000400290200704D401983C
:104EE000504501DBCDF8048000208DF84F0002987A
:104EF0000DF14F07B0F1004F25D02B200E900298F6
:104F00004FF0020800280CDA404202902D200E904B
:104F100007E00A210298FBF79BFB3031029007F86B
:104F2000011DB8F10001A8F10108F2DC0298002887
:104F3000EFD1791E0E980870307800F0200040F014
:104F4000450007F8020D12A8C01B00F107081498CD
:104F5000007800B1012000EB0A01019801EBE0713B
:104F600005984144401A401E0590E00306D45B4674
:104F70002146179A059800F05DF8054414980078CA
:104F800018B15A46179990476D1CE00324D55B462B
:104F90002146179A059800F04DF805441CE0049846
:104FA000002807DBDDE90301884203DD0098405C4F
:104FB000179901E0179930205A469047049805F157
:104FC0000105401C04900198401E019004D12E2040
:104FD0005A46179990476D1CBAF10001AAF1010ACF
:104FE000DDDC05E017F8010B5A46179990476D1C58
:104FF000B8F10001A8F10108F4DC5B462146179ADC
:105000000598ABE62D0000002B00000020000000FA
:105010002DE9F041044600251E461746880404D4B5
:1050200005E039462020B0476D1C641EF9D528469E
:10503000BDE8F0812DE9F041044600251E4690466A
:10504000C80301D5302700E02027880404D505E0F7
:1050500041463846B0476D1C641EF9D52846BDE868
:10506000F0810A68531C0B60107070472DE9F14FF6
:105070009EB000201D901C901B901A9019901890C3
:10508000182112A8FBF765F84FF47A70182112AABC
:105090000123CDE9002102908822EC218048FBF712
:1050A000E5FE804908701D904FF47A700A2112AA1B
:1050B0000123CDE900210290E122EC217848FBF7A1
:1050C000D5FE784908709DF848009DF8491040EADF
:1050D000012000B21C909DF84A001B909DF84C00E6
:1050E00040B2000111909DF84C0000F00F001090AC
:1050F000DDE9101008431A909DF84E0040B20001FF
:105100000F909DF84F0000110E90DDE90E1008433E
:1051100019909DF8500040B2189063480068FBF762
:10512000FEF906460022614BFBF704F904460D46E2
:105130001B98FBF705FA824600225D4BFBF772F9DC
:10514000804622462B46FBF7FBF806460022594BC9
:10515000FBF74FF8CDE902011898FBF7E0F980461C
:105160000022534BFBF75EF9064622462B46FBF71F
:10517000E7F8CDE90001DDE90223FBF7E1F80022C1
:105180004C4BCDE90401FBF734F8CDE908011C983C
:10519000FBF7C5F906460022474BFBF743F9CDE97B
:1051A0000601DDE90823FBF7CBF8CDE90C011998DE
:1051B000FBF7B5F980460022404BFBF733F9064672
:1051C00022462B46FBF7BCF882468B461A98FBF723
:1051D000A6F9064600223A4BFBF7B2F852465B4668
:1051E000CDE90401FBF705F8CDE908011E98FBF7AE
:1051F000A7F9CDE90601DDE90823FBF79BF8CDE926
:105200000A01DDE90C23FBF79BF804460D461D98C7
:10521000FBF796F922462B46CDE90C01FBF790F8F7
:1052200082460022274BFBF7FDF806460022214B61
:10523000FBF783F8804622462B46FBF781F80446AD
:105240000D460022204B20462946FBF7E9F902D201
:1052500000241D4D08E00022134620462946FBF796
:10526000C7F901D20024254620462946FBF775F9E7
:105270000646324615A11B48FFF776FA3C201A492C
:10528000087040F6FF730846027816491748FDF784
:10529000DCFB20462946FBF77FF91FB0BDE8F08F05
:1052A0000C010020340000205C00002000C0F2400F
:1052B000000090410000F03F0000F0400000D040AE
:1052C00000005040000020410000594048554D4921
:1052D000444954593A2025645F5F5F5F5F5F5F5FB9
:1052E0000D0A0000D00000209B000020500200208A
:1052F0002DE9F14F8AB09C480068FBF710F90022B5
:105300004FF08043CDE90801FBF78CF8824600227C
:10531000964BFBF70FF804460D469548B0F9000090
:10532000FBF7FDF882468B4622462B46204629464F
:10533000FBF706F852465B46CDE90601FBF700F89D
:1053400000228C4BCDE90801FBF76CF880468946BA
:105350008948B0F90000FBF7E2F822462B46CDE978
:105360000601FAF7EDFF824600224FF08043FAF77C
:10537000E7FF42464B46CDE90801FAF73AFF80467F
:1053800089467E48B0F90000FBF7C9F88246002242
:105390007B4BFAF7D5FF00227A4BCDE90801404656
:1053A0004946FBF73FF8CDE90601DDE90823FAF7A6
:1053B00020FF804689467448B0F90000FBF7AFF83B
:1053C000824622462B46FAF7BBFFCDE906016F481D
:1053D000B0F90000FBF7A3F822462B46CDE9000107
:1053E000FAF7AEFF824622462B46FAF7A9FF0022C3
:1053F000674BCDE90201FBF715F8CDE90401DDE9C2
:105400000623FAF7F6FE0022614BCDE90801FBF70F
:1054100009F804460D465F480088FBF791F882467C
:105420008B460022534B20462946FAF7FBFF002209
:10543000594BCDE90601FAF7DCFE52465B46CDE951
:105440000801FAF77DFF04460D4600221346204668
:105450002946FBF7CDF803D100200BB0BDE8F08F53
:105460000A98FBF76DF8824600224C4BFAF765FF6D
:1054700006460F4600224A4B40464946FAF7D2FFFD
:1054800032463B46CDE90601FAF757FF8246002235
:10549000444BFAF755FF22462B46CDE90801FAF7AF
:1054A000C1FF06460F464048B0F90000FBF737F849
:1054B000824632463B46FAF743FF32463B46CDE949
:1054C0000601FAF73DFF0022384BCDE90801FAF753
:1054D000A9FF04460D463648B0F90000FBF71FF857
:1054E00032463B46CDE90801FAF72AFF8246002200
:1054F000204BFAF797FF804689462E48B0F9000006
:10550000FBF70DF882468B4642464B46204629461D
:10551000FAF76FFE52465B46CDE90401FAF769FEE1
:105520000022254BCDE90601FAF77CFF32463B46C7
:10553000CDE90801FAF75DFE06460F4600221F4B33
:1055400030463946FAF76EFF06460F461C4A1D4B99
:1055500030463946FAF7F4FE06460F4630463946DD
:10556000FBF71AF879E700005C0000200040EF40EC
:10557000520000200000E040500000204E000020BB
:105580000000F040000010404A0000204C000020C5
:1055900000002041480000200000F03F00003041A2
:1055A0000000B040006AB840580000200000E04110
:1055B00056000020540000200000304000005940F8
:1055C0009911DE1E8400E83F2DE9F0410446E00811
:1055D00014490988A0EB41001349B1F90010484370
:1055E000C50A10480088C0EB14104043000B0F4957
:1055F000B1F900104843860BA8190D490860084608
:10560000006800EB8000803007123846FAF779FF17
:1056100080460849FAF7AFFD074908600846006868
:10562000BDE8F0813A000020400000204600002044
:105630005C0000200000C8427400002010B5002863
:1056400021D0114B0022001F196803E0814203D8CA
:105650000A4649680029F9D152B11368841A9C425C
:1056600004D1006818441060104602E0506000E069
:10567000186039B102680B1A934203D10B681A44BF
:1056800002604968416010BDC800002070B590B04C
:105690004FF47A700121BD4A0B46CDE900210290FA
:1056A000D022EC21BA48FBF7E1FBBA490870084662
:1056B000007808B1012000E00020B4490978602991
:1056C00001D0012100E00021084380B10EE0B14883
:1056D000007818B14FF47A70FBF754F9AB480078B2
:1056E000602803D04FF47A70FBF74CF9EFE71821EC
:1056F0000AA8FAF72EFD4FF47A7018210AAA01239E
:10570000CDE9002102908822EC21A148FBF7AEFBF5
:10571000A04908709DF828009F4908809DF829003D
:105720009E4908809C480088097840EA01209C49ED
:1057300008809DF82A009B4908809DF82B009A4913
:10574000088098480088097840EA012000B297490B
:1057500008809DF82C00964908809DF82D009549F9
:10576000088093480088097840EA012000B29249F5
:1057700008809DF82E009DF82F1040EA01208F49E7
:1057800008809DF830009DF8311040EA012000B2F9
:105790008B4908809DF832009DF8331040EA0120C3
:1057A00000B2884908809DF834009DF8351040EA21
:1057B000012000B2844908809DF836009DF837101A
:1057C00040EA012000B2814908809DF838009DF828
:1057D000391040EA012000B27D4908809DF83A0066
:1057E0009DF83B1040EA012000B27A4908809DF8FC
:1057F0003C009DF83D1040EA012000B27649088047
:105800009DF83E009DF83F1040EA012000B2734928
:1058100008804FF47A700A210AAA0123CDE90021F9
:105820000290E122EC215A48FBF720FB594908700D
:105830002026002009904FF47A70012109AA0B4616
:10584000CDE900210290F522EC215148FBF70EFB37
:10585000504908709DF8240000F0030009909DF85D
:105860002400304309904FF47A70012109AA0B46B5
:10587000CDE900210290F522EC214548FBF79AFC86
:1058800044490870002008904FF47A70012108AA5A
:105890000B46CDE900210290F522EC213C48FBF7B4
:1058A000E5FA3C49087000200790272406904FF441
:1058B0007A70012106AA0B46CDE900210290F4225C
:1058C000EC213348FBF7D2FA324908709DF81800F2
:1058D000204306904FF47A70012106AA0B46CDE9C9
:1058E00000210290F422EC212948FBF763FC2949AE
:1058F00008704FF47A70012107AA0B46CDE9002108
:105900000290F422EC212248FBF7B0FA21490870FA
:105910000225002005904FF47A70012105AA0B465C
:10592000CDE900210290F222EC211948FBF79EFA02
:10593000184908709DF8140000F0070005909DF8C4
:105940001400284305904FF47A70012105AA0B46F4
:10595000CDE900210290F222EC210D48FBF72AFC50
:105960000C490870002004904FF47A70012104AAB9
:105970000B46CDE900210290F222EC210448FBF70E
:1059800075FA0449087010B070BD000035000020A1
:105990000C010020340000203600002038000020D8
:1059A0003A0000203C0000203E0000204000002083
:1059B0004200002044000020460000204800002053
:1059C0004A0000204C0000204E0000205000002023
:1059D00052000020540000205600002058000020F3
:1059E0001CB5FDF723FD0320FDF788FE0020FDF721
:1059F00005FD3CA13D48FEF7B7FE002002211F2314
:105A0000A022CDE9001011463848FDF7D1FC38A19D
:105A10003648FEF7A9FE002003211F23B722CDE957
:105A2000001007213148FDF7C3FC32A12F48FEF7D3
:105A30009BFE002003211F23D522CDE90010072162
:105A40002A48FDF7B5FC2CA12848FEF78DFE002062
:105A500003211F239A22CDE9001007212348FDF7D7
:105A6000A7FC1F2003238F22972100900020FDF721
:105A700063FC1F200323F822B42100900020FDF7CF
:105A80005BFC1F200323F822D22100900020FDF7A9
:105A900053FC1F200323F822ED2100900020FDF786
:105AA0004BFC1F205A230322972100900020FDF772
:105AB00043FC1F205A230322972100902320FDF747
:105AC0003BFC1F205A230322972100908C20FDF7D6
:105AD00033FC1F203C230322B4210090F520FDF766
